:020000040000fa
:080000000002040000000000f2
:020000040000fa
:040008007e04000072
:020000040000fa
:04000c007e0400006e
:020000040000fa
:040010007e0400006a
:020000040000fa
:040014007e04000066
:020000040000fa
:040018007e04000062
:020000040000fa
:04001c007e0400005e
:020000040000fa
:040020007e0400005a
:020000040000fa
:040024007e04000056
:020000040000fa
:040028007e04000052
:020000040000fa
:04002c007e0400004e
:020000040000fa
:040030007e0400004a
:020000040000fa
:04003400fa020000cc
:020000040000fa
:040038007e04000042
:020000040000fa
:04003c007e0400003e
:020000040000fa
:040040007e0400003a
:020000040000fa
:040044007e04000036
:020000040000fa
:040048005803000059
:020000040000fa
:04004c007e0400002e
:020000040000fa
:040050007e0400002a
:020000040000fa
:040054007e04000026
:020000040000fa
:040058007e04000022
:020000040000fa
:04005c00ec030000b1
:020000040000fa
:040060007e0400001a
:020000040000fa
:040064007e04000016
:020000040000fa
:040068007e04000012
:020000040000fa
:04006c007e0400000e
:020000040000fa
:040070007e0400000a
:020000040000fa
:040074007e04000006
:020000040000fa
:040078007e04000002
:020000040000fa
:04007c007e040000fe
:020000040000fa
:040080007e040000fa
:020000040000fa
:040084007e040000f6
:020000040000fa
:040088007e040000f2
:020000040000fa
:04008c007e040000ee
:020000040000fa
:040090007e040000ea
:020000040000fa
:040094007e040000e6
:020000040000fa
:040098007e040000e2
:020000040000fa
:04009c007e040000de
:020000040000fa
:0400a0003a0400001e
:020000040000fa
:0400a4001004000044
:020000040000fa
:0400a8007e040000d2
:020000040000fa
:0400ac007e040000ce
:020000040000fa
:0400b0007e040000ca
:020000040000fa
:0400b4007e040000c6
:020000040000fa
:0400b8007e040000c2
:020000040000fa
:0400bc007e040000be
:020000040000fa
:0400c0007e040000ba
:020000040000fa
:0400c4007e040000b6
:020000040000fa
:0400c8007e040000b2
:020000040000fa
:0400cc007e040000ae
:020000040000fa
:0400d0007e040000aa
:020000040000fa
:0400d4007e040000a6
:020000040000fa
:0400d8007e040000a2
:020000040000fa
:0400dc007e0400009e
:020000040000fa
:0400e0007e0400009a
:020000040000fa
:0400e4007e04000096
:020000040000fa
:0400e8007e04000092
:020000040000fa
:0400ec007e0400008e
:020000040000fa
:0400f0007e0400008a
:020000040000fa
:0400f4007e04000086
:020000040000fa
:0400f8007e04000082
:020000040000fa
:0400fc007e0400007e
:020000040000fa
:040100007e04000079
:020000040000fa
:040104007e04000075
:020000040000fa
:040108007e04000071
:020000040000fa
:04010c007e0400006d
:020000040000fa
:040110007e04000069
:020000040000fa
:040114007e04000065
:020000040000fa
:040118007e04000061
:020000040000fa
:04011c007e0400005d
:020000040000fa
:040120007e04000059
:020000040000fa
:040124007e04000055
:020000040000fa
:040128007e04000051
:020000040000fa
:04012c007e0400004d
:020000040000fa
:040130007e04000049
:020000040000fa
:040134007e04000045
:020000040000fa
:040138007e04000041
:020000040000fa
:04013c007e0400003d
:020000040000fa
:040140007e04000039
:020000040000fa
:040144007e04000035
:020000040000fa
:040148007e04000031
:020000040000fa
:04014c007e0400002d
:020000040000fa
:040150007e04000029
:020000040000fa
:040154007e04000025
:020000040000fa
:040158007e04000021
:020000040000fa
:04015c007e0400001d
:020000040000fa
:040160007e04000019
:020000040000fa
:040164007e04000015
:020000040000fa
:040168007e04000011
:020000040000fa
:04016c007e0400000d
:020000040000fa
:040170007e04000009
:020000040000fa
:040174007e04000005
:020000040000fa
:040178007e04000001
:020000040000fa
:04017c007e040000fd
:020000040000fa
:040180007e040000f9
:020000040000fa
:040184007e040000f5
:020000040000fa
:040188007e040000f1
:020000040000fa
:04018c007e040000ed
:020000040000fa
:040190007e040000e9
:020000040000fa
:040194007e040000e5
:020000040000fa
:040198007e040000e1
:020000040000fa
:04019c007e040000dd
:020000040000fa
:0401a0007e040000d9
:020000040000fa
:0401a4007e040000d5
:020000040000fa
:0401a8007e040000d1
:020000040000fa
:0401ac007e040000cd
:020000040000fa
:0401b0007e040000c9
:020000040000fa
:0401b4007e040000c5
:020000040000fa
:0401b8007e040000c1
:020000040000fa
:0401bc007e040000bd
:020000040000fa
:0401c0007e040000b9
:020000040000fa
:0401c4007e040000b5
:020000040000fa
:0401c8007e040000b1
:020000040000fa
:0401cc007e040000ad
:020000040000fa
:0401d0007e040000a9
:020000040000fa
:0401d4007e040000a5
:020000040000fa
:0401d8007e040000a1
:020000040000fa
:0401dc007e0400009d
:020000040000fa
:0401e0007e04000099
:020000040000fa
:0401e4007e04000095
:020000040000fa
:0401e8007e04000091
:020000040000fa
:0401ec007e0400008d
:020000040000fa
:0401f0007e04000089
:020000040000fa
:0401f4007e04000085
:020000040000fa
:0401f8007e04000081
:020000040000fa
:0401fc007e0400007d
:020000040000fa
:040200007e04000078
:020000040000fa
:040204007e04000074
:020000040000fa
:040208007e04000070
:020000040000fa
:04020c007e0400006c
:020000040000fa
:040210007e04000068
:020000040000fa
:040214007e04000064
:020000040000fa
:040218007e04000060
:020000040000fa
:04021c007e0400005c
:020000040000fa
:040220007e04000058
:020000040000fa
:040224007e04000054
:020000040000fa
:040228007e04000050
:020000040000fa
:04022c007e0400004c
:020000040000fa
:040230007e04000048
:020000040000fa
:040234007e04000044
:020000040000fa
:040238007e04000040
:020000040000fa
:04023c007e0400003c
:020000040000fa
:040240007e04000038
:020000040000fa
:040244007e04000034
:020000040000fa
:040248007e04000030
:020000040000fa
:04024c007e0400002c
:020000040000fa
:040250007e04000028
:020000040000fa
:040254007e04000024
:020000040000fa
:040258007e04000020
:020000040000fa
:04025c007e0400001c
:020000040000fa
:040260007e04000018
:020000040000fa
:040264007e04000014
:020000040000fa
:10040000af3f21000eff2d000e018800000000000c
:10041000000020000000e000020032000001200087
:100420002002880014000700360107000000e000e9
:1004300003003a00409a2300010020000200370028
:100440000000200001002000810f70000100320038
:100450000f000700000020000000e0000200320052
:1004600000000200000000004a3b02000000000003
:100470000040da000000fe00200020000000e00044
:1004800002003200100020009001880000000600e9
:10049000a1028800800478000000eb001f003700f4
:1004a000e284440054a0b4009905ba00e2844400f8
:1004b00054a0b4009906ba00e284440054a0b400e9
:1004c0000006eb00476fde00fd07b200ae018800ba
:1004d000636ce10003003a000ad801000000eb0061
:1004e0000e003700606ce10008003a00004deb00a0
:1004f0000a05e800020039003420ec000af0a000f0
:100500008b05e900f9ff3e00040037006168e10057
:10051000010032000086eb000b00070019c7ba008b
:100520000e04e0001905ba0003003a000a00e000da
:10053000dbff3a0000000600fe07b200ae028800b2
:100540008a047800f5ff37000cd0a300e20f4d00bd
:100550001c003b0089027800354dba000a05e8000e
:10056000020039003420ec000af0a0008b05e900fd
:100570000f003200254dba000a05e80002003900dc
:100580003420ec000af0a0008b05e90008003200de
:100590000c00e0000600320015cdba000a05e800a4
:1005a000020039003420ec000af0a0008b05e900bd
:1005b0008984e80054a0b4000b00e000e2ff3a0098
:1005c000000006009902ba00055d78008b05e9007d
:1005d000f7ff3200c82ade00055d78008b05e900d0
:1005e000f3ff32000c00e000f1ff320019ddba0029
:1005f000eeff37003600f800809fbe00829fbe00ed
:10060000849fbe00869fbe000000fa000068a9001b
:100610007b1807009717070080868000918680006e
:10062000f226210033b823001c01070080868800d1
:1006300091868800af15070070828000f80f500087
:10064000020034003c1907004e30ef007082800039
:100650000000e80070828800f11c07004cd0bf0049
:100660000004e00004003a00040ea80010c0b3002b
:100670004cf0b70002003700040ea9004c70ef00e8
:1006800061120700100920000b130700300620003c
:10069000b91207000080fa004f03be004f02be00ef
:1006a0004f01be004f00be003600f90000400600ba
:1006b0003600f800809fbe00829fbe00849fbe006f
:1006c000869fbe000000fa00300a2100104078002a
:1006d0000004e00003003200308580000000e900e3
:1006e00030858800308580000000e0000c00340078
:1006f00012c0b30000002000011a2c004b170700a5
:1007000022c0b30000002000011a24004717070090
:10071000200a21008040eb000148780003003700e8
:10072000200a210011c0b300014878000108a90087
:1007300090738000620060000000e000030032005f
:100740007670ef0010c0b30050f0b70050d0bf007b
:100750000004e00019003200a0738000680060000f
:1007600000f0a7000000ea000000e9004f00de00f2
:10077000004078000080fb00610060004300dd0065
:10078000a17380000130a10001007000a0738800f7
:10079000908280000000e8009082880091828000b2
:1007a000b0032000808f50000400340010c0b3005c
:1007b00076f0b7005070ef005230ef000080fa0082
:1007c0004f03be004f02be004f01be004f00be00ef
:1007d0003600f90000400600801f78000000fa0093
:1007e00001a8a90000188000909b880010188000c4
:1007f000a09b880020188000b09b880030188000e3
:10080000c09b880040188000d09b880010c0b300b7
:1008100079f0b7000080fa004f0078000040060031
:100820003600f800809fbe00829fbe00849fbe00fd
:10083000869fbe000000fa0003e8a90071838000d3
:1008400060838000808f500002003200701b070020
:10085000010037007070ef000080fa004f03be0007
:100860004f02be004f01be004f00be003600f9002f
:10087000004006003600f800809fbe00829fbe0048
:10088000849fbe00869fbe000000fa0003c8a90036
:1008900090118000640060000000e0000100320060
:1008a0003242a90090118000620060000000e00068
:1008b000060032003222a90005003700b011800086
:1008c00000407800b51c0700010037000000000060
:1008d00090118000610060000000e000f7ff3a0026
:1008e0000080fa004f03be004f02be004f01be0061
:1008f0004f00be003600f900004006000040da005c
:100900000000fe000000050014002000af033700c7
:10091000f4ff2f00ad0337000001be0041000700c7
:100920000470a70003f0a1006509b10016003200b1
:100930000d0035006828e10006003500f0ff2f00ab
:10094000f1ff27000300e00013003b000100280036
:100950000000050000004000818048008502e90099
:10096000fcff3a0008003700f88f420002003c000c
:100970008000eb00000005008100d1000080d30062
:100980008502e800fcff3a000300e00002003b00a3
:1009900060001000e0801800000006000001be00aa
:1009a000200007000470a70003f0a10003f8a300d3
:1009b00013003a006509b10010003200090035004b
:1009c0006928e10002003500010028000000050050
:1009d00000004000818048008502e900fcff3a00e9
:1009e00000000600f88f4200050035008100d100ac
:1009f0000080d3008502e800fcff3a0000000600fa
:100a00008000eb00000005004f89de0082017800c5
:100a1000890337006011b8009703370004002000f5
:100a20006a033700c70ade00f107b200f50fb20013
:100a300008003200e1cf4200020032000170a00045
:100a400024000500810f7000010032000408050039
:100a500044000500810f700002003a0014000500f8
:100a60008502e9000000400081c04800fcff3b0017
:100a70000170a0002400050007f82700078361002b
:100a80000638e10004003a00f70720008783610080
:100a90008703710001003a0003f0a200889fbe00a6
:100aa0008a9fbe008c9fbe00470ade000480a10022
:100ab000c71ade000580a100070028000785600036
:100ac00087856100f70f20000720e1009e003200bb
:100ad0000728e1009c003200010678000400e000d5
:100ae000b4003200f7072000878060000170a0008a
:100af0000500e000c0003200f70720008781610098
:100b00000370a000050652000f003a000b50e100f0
:100b10000b0032000308e10002003a000200e1008d
:100b20007e0032000204500083845800040031002b
:100b30000001fd008101fd008402fd008a05fd0029
:100b40006044b800210037000520e10005003d00a9
:100b50000001fd008101fd008402fd008a05fd0009
:100b6000050652007a60e100050035000170a10021
:100b70004722dd00848070008a80700063003700a7
:100b80006044b800ef02660007ff2f00070666000a
:100b90000500e00006003400f08312008714dd0039
:100ba0000511de00071bdd00060171008519de005e
:100bb0007060e100050035000904780082047800c7
:100bc000030178008001eb00700656000b50e10035
:100bd00003003a0002004000838048000400370010
:100be00060041400e0841c00020058008380580058
:100bf0000188a300060032008100d1000080d300ec
:100c00008984d3000884d3000402e8002700370059
:100c10000178a30025003a000100e0000300320043
:100c20008186cf00698656000a0037008c002000bc
:100c30000000e00004003a00090078008804780011
:100c40000004eb00700252008086cf000d064600c3
:100c50000c06e9007060e1000600350080007800b5
:100c600009007800880478000004eb007006560044
:100c7000700252000c00e0000c0034008c08dd0013
:100c8000f00316000703de00868070000c00dd0014
:100c9000074bde00060070008c4cdd000743de00d1
:100ca000868474000c44dd000c0252006120e100d7
:100cb0002000350061016000070028008781640082
:100cc000f7ff270087836400070374000300e00038
:100cd0000600320082037300040032000000e800c6
:100ce000e08048000188a3000e003a00f70f2000c2
:100cf0000720e1004a003d000170a1004722dd000d
:100d0000810072008a8070000000be004f06be00a5
:100d10004f05be004f04be00000006006000b80092
:100d2000faff37008100d1000080d3000402e80000
:100d3000eeff37000401780089017400a10107006b
:100d40008a807000f1ff3700f70107000702780082
:100d50000001fd008101fd00f3010700870278001a
:100d6000850372000778a300040032000001fd0033
:100d70008101fd0006020700e4ff370085036200e1
:100d80000768a300080032000b50e10003003200a6
:100d9000f0ff2f00f1ff2700dcff37000001fd000e
:100da0008101fd00d9ff37000468a300d7ff32009e
:100db000faff3700f8ff2700888360000b003a0035
:100dc0000000e00009003a0083036400828373009e
:100dd000020032000200be00ccff37000b50e100e1
:100de000ceff3a000200be00c8ff3700140020000a
:100df000810064003eff3700f8ff27008883610010
:100e000004003a000200e00002003a008c00780082
:100e1000beff3700150020008301640039ff370052
:100e200001f827000000200081007500b7ff37009f
:100e3000889fbe008a9fbe008c9fbe001b002000c2
:100e40000202be000586680006002800060666004d
:100e50004709de00f20fb200820032000243e800d0
:100e600080003200c729de00f30fb2007d0032009f
:100e70000343e8007b003200f107b2000170a000dc
:100e8000f507b2000570a000c708dd004903de00c9
:100e9000868070004700dd00c72add004923de00a0
:100ea000868272004722dd000305510004035000d2
:100eb0008583580003003100000040008180480015
:100ec0000a05e9008c1f78008a9fbe0004005000cc
:100ed000858058000402420085824a0000004000dc
:100ee000818048000005eb000004be006033b800bc
:100ef0000406be000d48e100560031001100090053
:100f00004dccd8000c01b8000d02b800848141001e
:100f100060824a008283530003045c0084845c0086
:100f200060055d000a00e00025003a0080057800b9
:100f30000d40e1004900310088007800070078008a
:100f4000110009004d88d8000c01b8000d02b8004e
:100f50008481410060824a006003110083835b004a
:100f600004045c00e0845c000900e00021003a0019
:100f70004f01be000300e0002b003200e3016000df
:100f8000070673008c81710001003200640070005c
:100f90004200de004e5edd000c007000c258de0034
:100fa00001e0a00083010700cf017800818071007b
:100fb0004f06be004f05be004f04be0000000600f5
:100fc0008c8343000d044c00e0844c0060054d0010
:100fd0000000e9000a00e000d4ff32008c834300e7
:100fe0000d044c00e0844c0060054d000000e90059
:100ff000ceff37000c0343008d834b0060044c0090
:10100000e0844c000000e9000900e000d8ff320055
:101010000c0343008d834b0060044c00e0844c00c3
:101020000000e900d2ff37004200de004e5edd0026
:101030000c007000c258de0001e0a000cf01780073
:101040000300e000daff320060001000e0801800ca
:10105000d7ff3700f0ff2f00aaff3700f0ff2f0067
:10106000b9ff37000404be002f010700870678008f
:101070000004fd008104fd002b01070007836600ca
:101080000678a300030032000960a7000800be0034
:101090002c0037000d78a300020032000800be00cb
:1010a000280037000778a30026003a0001f0a100cd
:1010b00009f0a1000668a30003003200f1ff270039
:1010c000f0ff2f00baff37000d68a30003003200c5
:1010d0000800be008c807000b5ff37000768a300d1
:1010e00007003a000648a30003003200f1ff270082
:1010f000f0ff2f00aeff37000d48a30003003200c1
:101100006000b8008c807000a9ff37000748a3007a
:101110000400320001f82700000020008c807000dd
:10112000a3ff3700760107000004fd008104fd00e5
:1011300002057800720107000802be008a017800eb
:1011400059ff37000160a00012022000d2838800fe
:1011500097ff37000100e000120032000500e000b8
:1011600010003200889fbe008a9fbe008c9fbe0088
:101170000006eb0001f8a30003003200600010003d
:10118000e08018000cf0a00005f8a3000300320076
:1011900060021200e0821a000cf0a2008005eb0051
:1011a00041ff37006000b8000200050003836800bb
:1011b0000700280007036300470ade000480a1003f
:1011c000c71ade000580a100f70f20000720e1000c
:1011d000420032000728e10040003200889fbe0034
:1011e0008a9fbe008c1f7800f107b200f307b2009f
:1011f0000400e000640032000170a0000500e0007f
:10120000680032000370a00085054200eb07b100c2
:101210000204b8000302b8008484440060854a00d8
:10122000020ab800848444000a854a00030ab80010
:1012300004054500040033000804d0008984d2006e
:101240000a85d2008b05e9006158e1003d003500b8
:10125000021020000901610003082000898161005b
:10126000f70720008783640008867300c84cde00ff
:10127000c853dd00878474004855de000300e00099
:101280000600320082037600040032008904e80080
:1012900060054d000a88a3000c003a00f70f2000fb
:1012a0000758e10044003d000a70a100c75ddd0061
:1012b0000a8575008a007300090078004f067800df
:1012c0004f05be004f04be00000006000a05d10015
:1012d0008984d3008b05e800f0ff3700881f780071
:1012e0000604780090000700070278000001fd0066
:1012f0008101fd008c0007008702780085037200e1
:101300000778a300050032000001fd008101fd0007
:101310009f0007004f04780000000600850372005c
:101320000748a30003003200f0ff2f00f1ff270061
:10133000f8ff37000000200001f8270088807000c7
:10134000f4ff3700880178004848dd008081710093
:101350004848de00c850dd0001007000c850de00c3
:10136000060478000b0178001600070088807000e2
:10137000d2ff37000500e000050032001700200012
:101380003a0007009dff370081037000f9ff3a0023
:10139000860078004f0678004f05be004f04be005f
:1013a0000000050083037100f9ff320027002000d0
:1013b0002e00070094ff370001f827008680700098
:1013c000f4ff37000100e000260032006101110047
:1013d0007810e10023003c006022b8007010e100aa
:1013e0000400350080027800010078008000eb00e6
:1013f000700151000200e000090034007003110088
:10140000062add00822ade008603dd008782720064
:101410000200de00860bdd00070070008208de009f
:1014200084817100f4ff27000482620084817100ce
:1014300004002800848262006102600005f0a600ba
:101440000000060004827100070032000000e8007e
:10145000e0804800000006000002be006000b80006
:10146000efff37006000b80000000600889fbe0054
:101470000004eb006138e10016003a000100e000d2
:1014800008003a00c800de004800dd0088002000a7
:101490000100e00003003a00c800de004800dd0063
:1014a000680444008184cf00e984540006003400bd
:1014b0008908dd00f08314008703de008780700058
:1014c0000900dd0009044400610214004f04be005d
:1014d000000006000300e00008003a00c811de002a
:1014e0004811dd00880020000300e00003003a00fe
:1014f000c811de004811dd00680444008384cf0079
:10150000e9845400060034008919dd00f0831400da
:101510008713de00878171000911dd000904440092
:10152000e1021400e9ff37002700200001f0a700c6
:1015300017002000470bde00f60fb2000400320057
:101540000643e8000a0032004702b300000006002c
:1015500001037800f607b2000603700002003a00ab
:101560000703b300000006008702b3000000060076
:1015700001037800f607b200060370000200320093
:101580000770a000000006000760a0000000060031
:101590000478a300040032000578a30003003200a1
:1015a0000168a30001003a000200be000160a00033
:1015b0000000060081017000270032008002eb006d
:1015c00001f8a3000300320060001000e080180062
:1015d00015002000f4072000020242002000340021
:1015e000f703200087036000060420000003630067
:1015f00002082000000161004700de00c909dd008b
:1016000000807100c708de000600e000080032001c
:1016100087037100060032001000b0000180b000a6
:101620000188a30002003200c108de000402e800c5
:10163000f107b200f30f20000320e10003003d009a
:101640004722dd00810072002900370001f82700e1
:101650000000eb00260037006000b8000000060024
:10166000680212007f20e100020034006000b80030
:101670001f0037006011b8007020e1000400350041
:1016800080017800010078008000eb0070025200b9
:101690000400e00009003400f00312000719dd0027
:1016a0008419de000703dd00868171000400de007e
:1016b000070bdd00060070008408de00f7ff27003e
:1016c000838363008703710006002800030363001f
:1016d000070032000700e00003003a0061016000eb
:1016e00002817300020032001000b0000180b000df
:1016f0000500a6000000060001f0a00000000600a2
:101700004f0ade004709de00f107b200f20fb20017
:101710000b003200f207b1000170a000c708dd0025
:10172000c901de00838070004700dd000400a600d0
:101730000000060060001000e080180000000600b5
:10174000810f700001003a00000006008182cf0086
:101750000500e00010003e008082cf00ee824200d3
:101760007028e1000400390007003e008000780086
:101770000000eb000e003700708312008600de00d0
:101780000500dd000a003700708352008600dd008e
:101790000000eb0006003700e28252008508dd0001
:1017a000708312000603de00868070000500dd00f5
:1017b0007507b0000501ea000400a600000006005d
:1017c00060001000e080180000000600889fbe0046
:1017d0008a9fbe00841f78007c0007004f007800bd
:1017e00011003300f0ff2f00838f6c0006003b00d8
:1017f000040565000a00a7000800370009f0a600ec
:101800001000200008003700820f5400838f5c0016
:10181000030039001000200001003e0000002000fd
:1018200009f0a7000000ea004f05be004f04be000b
:101830000000e00000000600881f78000304780024
:101840000300e00007003d0060001000e080180089
:1018500060011900e081190002003b0001f02d0039
:10186000030037000400070008f0a70001f0a00003
:101870004f04780000000600889fbe008a9fbe00cb
:1018800000827000040271000482710026003200a0
:101890000004be000200be006011b8006b09200009
:1018a000950220000182cf000a0039000541b100f5
:1018b0000082cf00070039000541b1000982cf0046
:1018c000040039000541b1000882cf000100390051
:1018d0000541b10005425200120032000a003b00ef
:1018e00082817100610164008100d1000080d30019
:1018f0008984d3000884d3008b05e8000442e80003
:10190000f7ff3a00070037000804440089844c00c0
:1019100000004800818048008b05e9000442e9008e
:10192000f9ff3a00030007004f05be004f04be0058
:101930000000060081002000618055000b003d0082
:101940000b00200061fe2f000100e1001d003400ab
:1019500082817100610164008904d1000884d30090
:101960000000e800faff3a00710020006100640006
:1019700003007000020060000900320061044400ae
:10198000e0844c000988a500050032008b05e800c2
:101990006808e10002003a008904d1000884d300fd
:1019a000f20f20000258e10005003d00c75ddd0098
:1019b000f907b20089807500080078000000060071
:1019c0000bf827008b007800000005000004be0023
:1019d00014fc07000003be000405be000200be00a8
:1019e00010fc0700844f7500000006000000060090
:1019f0000800fa00889fbe008a9fbe008c9fbe0030
:101a00000004be000200be00e2b79f00f3b79f00d3
:101a1000f6ff07008102780005f0a10000027800bf
:101a20000c0020000df827006fb19700ffb1970060
:101a30008c0f52008d8f5a000a003e000800be0035
:101a4000eaff07008102780005f0a100000278009b
:101a50006fb19700ffb197008c0f52008d8f5a0025
:101a6000030036000800be000cfc07009800370099
:101a70000203be000000200001f82300800f530085
:101a8000818f5b0003003a000800be009800070049
:101a90008f0037000802be004e3dde000b00200024
:101aa0006000b800620065004f4dde000b002000b2
:101ab0000a0570008b8570008500780001f0a10098
:101ac00008007800e00f5000e08f580007003a004f
:101ad000e20f5500e08f5d0033003200e30f550048
:101ae000e08f5d007b003a0032003700870278000b
:101af00005f0a10006027800e00f5200e08f5a00c6
:101b00003b0032008c0f52008d8f5a002c003a009f
:101b1000840f5000858f580018003a00e20f5500de
:101b2000e08f5d0009003200e30f5500e08f5d009b
:101b300009003200e10f5500e08f5d005b003200cc
:101b4000b8fd200099f42300620037000200200055
:101b500003042400020037000200200003042c00cc
:101b6000b0fd20009104240090fd07000200200039
:101b700003e823008dfd070055003700e20f5500f4
:101b8000e08f5d0008003200e30f5500e08f5d003c
:101b9000080032006044b800e10f5500e08f5d009e
:101ba0004c003a0044003700b8fd2000990424009e
:101bb00048003700b8fd200099042c00450037008c
:101bc0000600200007d020000403430085834b005b
:101bd00086bf9f0097bf9f00800f5300818f5b00df
:101be000030039008c0f50008d8f580005003a001b
:101bf0000a08a30033003200b8fd200099fc2b0036
:101c0000340037006033b80062036500e00f530012
:101c1000e08f5b00080032000c0020000dd0200097
:101c20000003460081834e006000b800840f53001b
:101c3000858f5b00040039000800be007cfc0700b3
:101c40007c0107002a000700e10f5500e08f5d00ce
:101c5000050032001e003900e20f5500e08f5d00e4
:101c60000b003a00030037000004be0009f0a20098
:101c700018003700e2d22b00b33b230087fb07009c
:101c80000001be00b0fd20009104240005003700d3
:101c9000e2d22b00b33b230080fb0700b2fd200003
:101ca0009304240074fb070009003700b8fd2000ee
:101cb00099f42b00070037000800200009002800d5
:101cc00004003700b8fd200099fc23000100370014
:101cd0000004be000800be004f06be004f05be0057
:101ce0004f04be000080fa0000000600000006005d
:101cf0000c00fa00889fbe008a9fbe008c9fbe0029
:101d00000004be004f09de0003002000e2b79f0080
:101d1000f3b79f00810678000df0a100000678005f
:101d2000f0ff2f00f1c72400800f5600818f5e0066
:101d3000100036000800be00ecff070081017800ab
:101d400003f0a100000178000000200001f8270046
:101d5000800f5100818f5900b7003e000200200023
:101d600003382000a0fd200091fc23004bfb07005e
:101d7000a8003700f0ff2f00f1ed2300800f560080
:101d8000818f5e0011003e000085eb00f0ff2f0008
:101d9000f1972300800f5600818f5e0055003e00b2
:101da000f0ff2f00f1072000800f5600818f5e00aa
:101db000a1003e000801be000800be00fbfc0700b9
:101dc000c0b79f00d1b79f009b0037000800be003e
:101dd000180107000004be00f0ff2f0071f9230076
:101de000800f5600818f5e0025003e00f0ff2f001f
:101df000f1f22300800f5600818f5e0011003e003b
:101e00000801be000800be0024fb070002002000fd
:101e100003f8230018fb07000005be0002002000a5
:101e2000030024000800be001cfb07000001be00e8
:101e30000a00be00fefb07000004be000005eb0028
:101e40002c0037000200200003f823000800be0029
:101e500009fb07000005be000200200003f8230074
:101e60000800be000dfb07000001be000a00be0016
:101e7000effb07000004be001a0020001d00370021
:101e8000f0ff2f00b1012400800f5600818f5e000b
:101e900012003e000200200003fc23000800be00e8
:101ea000f5fa07000005be000200200003fc230035
:101eb0000800be00bdfc07000200200003f823005c
:101ec000f6fa07000001be000a00be00d8fb0700ba
:101ed0000004be002a002000060037000801be00f2
:101ee0000000200001f82b00d1fb07000004be0019
:101ef0003a0020000801be000800be00abfc07004d
:101f00000002be000001be0084bf9f0095bf9f007d
:101f1000a6fc07000006be0052c22a00c3d7230059
:101f2000a2fc0700d2502f0013e12300dbfa0700c8
:101f30000001be000c00be009cfc070092aa2a0013
:101f4000a3ea2300d5fa07000001be000fba9700ec
:101f50009fba97000400be0094fc07000002be0078
:101f600072242100a3dd2b000c00be0084bf9f0063
:101f700095bf9f008dfc070082a92c00c3e42300bd
:101f8000bdfa07000001be000c00be0087fc070080
:101f90000001be000fba97009fba9700e10f4500fd
:101fa00009003a000400be00bcfa07000001be00b0
:101fb0000800be007dfc07000001be000800be0056
:101fc000adfa07001b0037004255dd000c3c210034
:101fd0000a0646000400be00b0fa07000001be0079
:101fe0000800be0071fc0700023d21000a05410007
:101ff0001a0178009a0190009ffa07000801be00bc
:102000009dfa07000001be001c0078009c009000b3
:1020100099fa07006fb19700ffb19700e00f5100e8
:10202000e08f5900030032000004be0009f0a20056
:10203000010037000004be000800be004f06be00cd
:102040004f05be004f04be000080fa0000000600ed
:102050000800fa000002be008501780003f0a1002c
:1020600000017800a6fd200097f42300860f5100a0
:10207000878f59000d003e00f4ff2f00f5972300d5
:10208000840f5100858f59005a003e000200200045
:1020900003b8270081fa0700e0bf9f00f1bf9f004f
:1020a0000000200001f82300600037004f0ade0026
:1020b00005002000163d2500b7072400860f5100bb
:1020c000878f590019003e0036be2c00670124009e
:1020d000860f5100878f59000a0036000400e00087
:1020e00004003200b2fd2000930424006bfa0700c4
:1020f00048003700b2fd2000930424005efa070078
:10210000440037000400e00004003200b2fd20006b
:1021100093fc230061fa0700430037000001be0072
:10212000b0fd200091fc230019003700561d23004c
:10213000270e2400860f5100878f590016003e009d
:10214000f6dd2e00f70a2400860f5100878f590014
:102150000a0036000400e00004003200b2fd200056
:10216000930c24004dfa070022003700b2fd200036
:10217000930c240040fa07001e0037000400e00022
:102180000100320001f0a20042be2c0063092400cd
:1021900039fa070024003700f4ff2f00f5f7270075
:1021a000840f5100858f5900030036000001be00e6
:1021b00031fa07001d0037006881570074060700d8
:1021c0006011b80063016000e10f5100e08f590019
:1021d0000a003200e20f5100e08f59000b0032007c
:1021e000e00f5100e08f59000d003a004fb8970002
:1021f000dfb89700380607000c0037004fb897008b
:10220000dfb8970001f0a200070037004fb8970031
:10221000dfb897003006070001f0a2000300370086
:102220004fb89700dfb89700b20607000080fa00a9
:10223000000006000001be008300780001f0a1004c
:102240000200780000000600000006000400fa000a
:10225000889fbe008a9fbe008c9fbe000004be0007
:102260000205be000206410083864900e00f5600c9
:10227000e08f5e00140032000200be0082bf9f00ab
:1022800093bf9f00f0ff07008102780005f0a100d6
:10229000000278000000200001f827000fb9970025
:1022a0009fb99700800f5200818f5a0006003e00b0
:1022b0000802be00474bde00070020000680fb003e
:1022c000e14f430005003a000800be00b7fb0700dd
:1022d0000001be00d6fa07000900370008014400db
:1022e00089814c008c0f51008d8f590006003e00f3
:1022f00074003a006011b8000800be00abfb070094
:102300000004be006f0037000000e00013003a0038
:102310004949dd00c741de00830171004941dd000c
:10232000030037000000e9000201410083814900f9
:10233000e00f5100e08f5900faff3d00e10010006e
:102340000401be008100e9000300330002014100e6
:1023500083814900fbff37000400370085017800c6
:10236000f307b200080178000370a000475bde00ad
:102370000700200086007800f10fb20012003a003a
:10238000495bdd00c753de00870373004953dd005e
:10239000030037008100e9000603430087834b00f8
:1023a000e00f5300e08f5b00faff3d0061831000f7
:1023b0000603e900030033000a0545008b854d0044
:1023c000fbff3700100037008b037800f707b200df
:1023d0000a0378000605be000b70a0000a00370053
:1023e000e00f5300e08f5b0004003500e00f530066
:1023f000e08f5b00bfff32000601be00020141001a
:10240000838149000000e9000a0351008b835900d1
:10241000810f5000f2ff3c00e00f5300e08f5b00a3
:1024200003003d00090037000601be000700370029
:10243000e00f5300e08f5b00fbff3a00adff370079
:1024400002014100838149000000e900471bde00d2
:1024500007002000e00f5300e08f5b00f8ff320020
:102460000000e0000a0034000600200007f82f00fa
:102470000201430083814b00cf80de00c700dd00f6
:102480000000200002017000838170000600370008
:10249000610010000000e900030033008301d10057
:1024a0000281d300fbff370000002000010028005c
:1024b0008583600000037800060171008781710048
:1024c0000204be000800be004f06be004f05be005d
:1024d0004f04be000080fa00000006004f02b0006a
:1024e000889fbe008a9fbe008c9fbe008e1f780012
:1024f0000005be000204be00b2af9f00c3af9f0044
:10250000b2b79f00c3b79f00cfae97000df0a100f8
:1025100002067800e00f5600e08f5e00c303320031
:10252000faaf9f008bb79f000000200001f8230046
:10253000800f5500818f5d00bc0332008fb2970081
:1025400005f0a1007faa970094b79f00a5b79f0050
:102550000000200001f82700800f5200818f5a00f0
:1025600003003c00800f5600818f5e0004003400a1
:102570000a01be000800be0048f90700b203370098
:102580006033b8007fa997008fb19700e00f51002a
:10259000e08f590029003d002600200007002000a0
:1025a000f0ff2f00f1b72400800f5600818f5e00ee
:1025b00022003c006033b800f0ff2f00f1f7230049
:1025c000800f5600818f5e003300340047e8de0044
:1025d000cfe8de00f007b1000180b1007701100004
:1025e0000c00be00820178008301e9000300330083
:1025f0008180d1000080d300fbff37000003be00c4
:10260000020778000e07e9000300330006034300c9
:1026100087834b00fbff37000601be006033b80024
:102620008c0f51008d8f59001b003a006103600030
:1026300062031300e0831b00170037000000200036
:1026400001f82700800f5600818f5e0012003a00cb
:102650000000200001f82300800f5200818f5a00f3
:1026600072033200060034003fb09700cfb09700ed
:10267000e00f5000e08f580074033d006e033700f8
:102680003fb19700cfb19700e00f5100e08f5900a4
:1026900069033d00690037000000200001f82300b5
:1026a000800f5600818f5e0009003a003fb297000c
:1026b000cfb29700e00f5200e08f5a0060033d0058
:1026c0000a01be000000200001f823005500370079
:1026d00000002000010024003fb19700cfb1970017
:1026e000800f5100818f590003003a000a01be009b
:1026f0000a00be004b0337000000200001f0230059
:102700003fb19700cfb19700800f5100818f5900e2
:1027100008003a007fa897008fb09700e00f5000a4
:10272000e08f5800030035000a00be006004070077
:10273000450337000a00be00f4b79f0085bf9f0025
:10274000d6b79f00e7b79f00bafe0700020020003f
:1027500003f827007fb297008fba97005fb3970006
:10276000efb39700820f5200838f5a0008003200a7
:10277000e00f5200e08f5a000500320002002000f6
:1027800003f82300820f5200838f5a002d003a0075
:102790003fb19700cfb19700e00f5100e08f590093
:1027a0000c003d000001be000000200001f82300e5
:1027b000f4b79f0085bf9f00d6b79f00e7b79f0083
:1027c0009bf907007fb297008fba97005fb397001d
:1027d000efb397007fa997008fb19700e00f5100ea
:1027e000e08f590018033d000200200003082c0070
:1027f000040241008582490004027300858273004f
:10280000e00f5200e08f5a0008003a001202200048
:10281000c29f88000001be000200be0096f80700bb
:102820000001be0082f9070007033700e10f5300e3
:10283000e08f5b0004033a000004be0009f0a20030
:10284000020337007fa997008fb19700e00f510076
:10285000e08f59000d003d00e00f5300e08f5b005a
:1028600004003a0010022000c09f88000a01be0048
:10287000e9ff3700e10f5300e08f5b0008003200f2
:102880000600200007f823000700370002002000a0
:1028900003f82300f2af9f0083b79f0004003700c6
:1028a0000600200007f82b00f6af9f0087b79f00b7
:1028b0000200200003d02400820f5600838f5e00a8
:1028c0005600340072ff2f00f3f72300820f5200ee
:1028d000838f5a0006003c003fb09700cfb09700ae
:1028e000e00f5000e08f580007023d00e50137007f
:1028f0007200200003f82300820f5200838f5a00d9
:10290000060034003fb19700cfb19700e00f5100af
:10291000e08f5900db013c00fb0137000200200082
:1029200003f8230054f807000005be0002a02a00a7
:1029300083fb23001dfa070090b79f00a1b79f00fb
:1029400002572a00c36e23000a00be0017fa0700d0
:102950000002be000a01be000a00be00f4b79f00dc
:1029600085bf9f0011fa07000006be00020020008c
:1029700003e823000a00be000cfa07000001be00b5
:10298000b0aa2a00a1ea23003bf807000001be001c
:102990000a00be0005fa07000001be00000020008a
:1029a00001f0230034f807000001be000c00be0057
:1029b000fef90700b2a32a0083fb2300fbf90700fe
:1029c0000001be007fb297008fba97000400be00de
:1029d00029f807000005be000001be001fb09700e7
:1029e000afb097002df807000001be00830078000b
:1029f00004002f00020062000003be00b6b79f0073
:102a0000c7b79f001fb19700afb197001af8070032
:102a10000001be000a00be00590137006011b80075
:102a2000f6ff2f00f7072000860f5200878f5a000d
:102a300007003c000200200003b82400dbf9070077
:102a400090b79f00a1b79f0082fe2f00f3ff2f00d9
:102a5000f207b1000380b1002fb2970047a0de005b
:102a600084027800cfa8de00020340008383480080
:102a700096af9f00a7af9f0085007800f107b200d6
:102a80001fb097000200200003f82300020270002c
:102a90008382700094b79f00a5b79f006033b80091
:102aa000d6af9f00e7af9f0012472c00c301200064
:102ab000820f5000838f58001a003400120020004b
:102ac00003002000d2af9f00e3af9f00623d2b00c8
:102ad000d3052000820f5000838f5800110034006e
:102ae0001faa9700afaa970061024200e0824a0045
:102af00094af9f00a5af9f000000200001f82f00b9
:102b00001fb39700afb397000603400087834800c8
:102b100096b79f00a7b79f006000b800d0af9f0096
:102b2000e1af9f00dfa89700c208dd0081af9f00e2
:102b3000003e210001004000100578009005900043
:102b40000a01be001fb09700afb09700caf7070098
:102b50000006be000a01be001fb09700afb097008c
:102b6000cef707000001be000000200001f823009e
:102b7000aff807000002be000001be000c00be005e
:102b8000f4b79f0085bf9f0088f907000003be00cf
:102b90000e002f0081017800c3b79f00000167007d
:102ba000b2b79f005fa89700efa89700c500dd00af
:102bb00000002000d0af9f00e1af9f000000200088
:102bc000010420005fa99700efa9970002014000cf
:102bd00083814800d2af9f00e3af9f001fb09700f2
:102be000afb097008181d1000081d30083007800cd
:102bf00001d0a1000200670001d0a0005fa99700ea
:102c0000efa997000201400083814800d2af9f00e6
:102c1000e3af9f005fa99700efa997003fb097002f
:102c2000cfb09700d6b79f00e7b79f005ff90700c6
:102c30000001be000c00be008ff707000006be00ba
:102c40000a01be005fa89700efa897008af7070067
:102c50000001be001fb09700afb0970086f70700d5
:102c60000001be003fb09700cfb097004ff90700ba
:102c70000001be000c00be007ff707000001be008f
:102c80007fb297008fba97000400be0047f9070093
:102c90000006be005fb39700efb397000601be00c9
:102ca0000600be0041f907000005be000001be009d
:102cb0003ef907000002be0022142f0033e5230076
:102cc0000a00be00f4b79f0085bf9f0037f90700d8
:102cd00052252300c3e6230070f707000001be0061
:102ce0000a00be0031f9070052302a00b3e8230081
:102cf0006af707000001be000a00be002bf90700ba
:102d0000b2aa2a00a3ea230064f707000001be006c
:102d10000a00be0025f9070072db2600b3ed230090
:102d20005ef707000001be000a00be001ff90700a1
:102d3000a299290093f1230058f707000001be0073
:102d40007fb297008fba97000400be0017f9070002
:102d50000005be005fb39700efb397000601be0009
:102d60003fb09700cfb097004cf707000001be00be
:102d70000c00be000df907000001be000a00be00f5
:102d800046f7070090b79f00a1b79f003fb197009b
:102d9000cfb197000200be0004f907000005be0095
:102da00002002000030424003cf707001fb1970035
:102db000afb1970039f70700810278000002670081
:102dc0000401be003fb09700cfb09700f4b79f005a
:102dd00085bf9f00f5f80700b0b79f00c1b79f00ff
:102de0007fb297008fba97000401be000c00be00ae
:102df000eef807000006be000200200003042400d5
:102e00007fb297008fba97000400be001af7070040
:102e10000a01be0018f707000001be001fb09700ae
:102e2000afb0970014f707005fb39700efb39700b8
:102e30000601be00ddf807000001be000c00be0068
:102e400016f707000005be000001be003fb0970066
:102e5000cfb0970011f707008102780000026700e9
:102e60000200240063f723000400be00f4b79f00b3
:102e700085bf9f00cdf8070090b79f00a1b79f00c6
:102e8000623c2200638f2b007fb297008fba9700bd
:102e90000400be00c5f807000006be003fb1970061
:102ea000cfb197007fb297008fba97000400be00a1
:102eb000f1f607000001be000a00be00eef60700b2
:102ec000f284230063f72300b8f807000001be0076
:102ed0000c00be00f1f60700823e21008fab970088
:102ee000070141009201900012017800ebf6070003
:102ef000d0af9f00e1af9f001fa89700afa8970039
:102f0000c1f607000006be00003f21008fa9970010
:102f10000300400010057800900590005fa997001d
:102f2000efa997001fb09700afb09700dbf607003e
:102f30000a01be00d9f607000c01be00d7f6070053
:102f40000001be0083007800020067000002be009e
:102f5000b4b79f00c5b79f000c01be00c6f60700be
:102f60000a01be00c4f607001fb19700afb1970079
:102f7000c1f607000001be005fa89700efa8970008
:102f8000bdf607000005be00cfaa970000002f0085
:102f9000bfab9700070260000401be000800be003e
:102fa000f4b79f0085bf9f00b3f607003fb19700bd
:102fb000cfb197007df807000006be000a01be00f1
:102fc0000800be0079f807000001be000c00be003a
:102fd000b2f607000004be003fb19700cfb19700e2
:102fe0007fb297008fba97000400be006ff8070009
:102ff0000005be00b0b79f00c1b79f000a01be0028
:103000000800be00a5f607000006be000003be00d3
:103010000000200001302400800f5600818f5e00e8
:1030200018003c00800f5600818f5e001d003a00a2
:10303000c2a32a00833323000800be00dcb79f0030
:10304000e7b79f0095f607000002be000a01be0028
:103050000c00be00f4b79f0085bf9f0086f60700f6
:103060000001be007fb297008fba97000400be0037
:1030700027f607005fb39700efb397000000e0006a
:1030800029003400a22c2f00931427007fa897005a
:103090008fb0970045f80700a22c2f00931427004b
:1030a000e00037008701780003f0a1000c017800f0
:1030b0000000200061312400800f5100818f5900f1
:1030c00011003c000000200061312c00800f5600f0
:1030d000818f5e0014003a000a01be000c00be00a1
:1030e000dcb79f00e7b79f0063f607000001be0052
:1030f0000800be0004f607005fb39700efb3970027
:103100000000e00008003c000226240023da200032
:103110007fa897008fb0970024f8070002262400ac
:1031200023da2000bf0037008701780003f0a100f8
:10313000060178006022b8000000200001f02300a2
:10314000800f5100818f59003a0034004798de000b
:1031500022f82f000001410000002000010820009b
:103160000201e900030033008180d1000080d30018
:10317000fbff37000000430081804b000106780010
:103180008c01780003f0a100479ade00cf9ade00a0
:103190000401be00f207b1000380b100b2b79f0086
:1031a000c3b79f00f4ff2f00f5072000bfb19700c1
:1031b0008301e900030033008582d1000482d3003b
:1031c000fbff37000482ea008582ea008501660081
:1031d00000016200fd0720008d02660000027800f9
:1031e0000570a0003fb79700770017000000e900c6
:1031f000030033008582d1000482d300fbff370037
:10320000e00f5300e08f5b0002003d0060021200ff
:10321000e0821a000a00be00f4b79f0085bf9f003d
:1032200015f60700b0b79f00c1b79f008fba97008f
:103230007fb297003fb19700cfb197000800be0062
:10324000f4b79f0085bf9f0014f607008106780041
:1032500002002800000661000220270013f323006b
:103260000c00be00d1f707000005be003fb197007b
:10327000cfb197000c00be00fff507000001be00b3
:103280000800be00fcf507008221270013f323008d
:10329000c6f707000004be00c2e82b00f35b230062
:1032a0000c00be00c1f707000001be000800be0010
:1032b000faf507000006be000001be000a00be00cd
:1032c000f6f507000004be000a01be00eaf507009b
:1032d0000001be000c00be00e7f50700b0b79f007c
:1032e000c1b79f000801be000800be00aff707008d
:1032f0000005be00c2b42b0013332300abf7070058
:10330000e2a02e00d35d2300dbf507000001be0024
:103310000a00be00a5f7070052352b00a388230042
:10332000def507000001be000a00be009ff707009f
:1033300012b6200063b32300cff507000001be00e2
:103340000a00be0099f70700b2aa2a00a3e22300f0
:10335000d2f507000001be000a00be0093f7070087
:103360000001be000800be00c3f507000005be0056
:103370000001be000800be008cf707000006be007a
:1033800002002000030024000a00be00baf5070076
:103390000001be000c00be00a5f607000005be003f
:1033a0003fb19700cfb197000800be007ff707003c
:1033b0000001be003fb09700cfb09700b7f50700ff
:1033c0000001be000a00be00abf507000801be0008
:1033d000a9f507000001be000000200001f823004d
:1033e000a5f507007fb297008fba9700c721dd00cf
:1033f000020020000201400083814800479bde005c
:10340000cf9bde00e00f5300e08f5b0003003c0029
:1034100004017800650007000001be007fa8970046
:103420008fb0970061f70700070037000800200001
:1034300009f82300050037006044b8000300370096
:103440000a04be00010037000004be000800be00f0
:103450004f0778004f06be004f05be004f04be0068
:103460004f02b100000006000400fa00889fbe0071
:103470008a9fbe008c9fbe000004be004708de008d
:10348000f00fb20051092000810f500041003c00b4
:103490000806be00e00f5400e08f5c0003003d0012
:1034a0000805be000bf0a200010037000805be00b1
:1034b000d1072000810f50000a003c0002002000cc
:1034c00003b024000a00be0074f5070080bf9f000f
:1034d00091bf9f006011b8000800be0033f70700dd
:1034e0002b0037000200200003b024000a00be00b9
:1034f0006af507000200200003b024005ef5070013
:103500000a01be005cf507000004be0002002000b6
:1035100003f02300fef407000000e0000700340081
:103520000a01be000800be005cf507000200200092
:1035300003f8230050f507000f00370002002000b9
:1035400003f02b000800be00eff407000000e000cd
:1035500006003c000a01be000800be004ff507004f
:103560000200200003f82300020037000a01be0019
:103570000800be0049f50700e00f5600e08f5e002e
:1035800003003d000004be0009f0a2000100370066
:103590000004be000800be004f06be004f05be007e
:1035a0004f04be000080fa0000000600889fbe00a5
:1035b00002047800f9072000890f54000d00340040
:1035c0000200200003f02700f8f60700f807b1001a
:1035d000890f5400170034000200200003f0270078
:1035e000f2f60700f807b100890f540010003c0004
:1035f0001000370029f82f00890f54000d003d00fe
:103600000200200003c82000e8f607006806b000aa
:10361000890f540007003d000200200003c820006d
:10362000e2f607006806b000890f540001003d0073
:1036300009047800f207200008014100cf91de0064
:10364000c711dd0002002000d8f607004f04be00bd
:10365000000006000800fa00889fbe000004be00bb
:103660000001be008300780001f0a100080078008e
:10367000a4fd200095f42300840f5000858f58008e
:1036800018003e00f2ff2f00f3972300820f500036
:10369000838f580011003e00f2ff2f00f307200037
:1036a000820f5000838f580005003e00020020006a
:1036b000033820000800be00bcf6070004003700f5
:1036c0000200200003b827000800be00f3f4070042
:1036d000c0bf9f00d1bf9f00710037000800be002f
:1036e000680037004f49de0003002000143d25002c
:1036f000b5072400840f5000858f58001f003e003e
:1037000034be2c0065012400840f5000858f5800c2
:103710000e003e000200e00005003200b2fd200075
:1037200093fc23000800be00dcf4070059003700ba
:10373000b2fd200093fc23000800be00cef4070079
:10374000e50007000004be00550037000200e0005d
:1037500005003200b2fd2000930424000800be00e2
:10376000cef4070046003700b2fd20009304240089
:103770000800be00c0f4070041003700541d2300bc
:10378000250e2400840f5000858f58001d003e0038
:10379000f4dd2e00f50a2400840f5000858f5800b8
:1037a0000c003e000200e0000500320042be2c008a
:1037b000630924000800be00b8f40700e0ff3700ea
:1037c00042be2c00630924000800be00aaf40700d2
:1037d000300037000200e00005003200b2fd20009a
:1037e000930c24000800be00acf40700250037004d
:1037f000b2fd2000930c24000800be009ef40700d8
:1038000020003700f2ff2f00f3f72700820f50004f
:10381000838f5800040036000801be000800be0077
:1038200095f40700c7ff37006c8157000800be0001
:10383000d70007006011b80063016000e10f51007c
:10384000e08f590009003200e20f5100e08f59006b
:1038500009003200e00f5100e08f59000b003a00e0
:103860002fb89700bfb89700060037002fb8970011
:10387000bfb89700b2ff37002fb89700bfb89700c6
:1038800001f0a2001b010700aeff37002fb8970020
:10389000bfb89700900007000004be0009f0a20026
:1038a0000800be004f04be000080fa0000000600c1
:1038b000889fbe008a9fbe008c9fbe000004be0091
:1038c0000400200005f827008583600004037800c9
:1038d000840f5300858f5b0007003a000801be008b
:1038e0000800be0031f607000001be000800be005f
:1038f0006af4070010003700e00f5000e08f580016
:103900000f003c008101780003f0a1000001780065
:10391000e00f5100e08f59006a00320010022000d1
:10392000c09f88000801be000800be0052f40700d6
:103930000001be003ef507000004be006100370034
:10394000478cde00cf8cde00e00f5400e08f5c007f
:103950000f003a006044b800040037000000400047
:103960008180480061044400e0844c000400200091
:10397000050820008181620004017800e00f5100f9
:10398000e08f5900f5ff320061041400e0841c0050
:10399000f807b1000980b10081017800f307b20097
:1039a000000178000200be000170a0000808a3001a
:1039b0000200320000004000818048008984d1006c
:1039c0000884d3000000400081804800940120005a
:1039d00002002000031020006055b8006066b800a7
:1039e0000c0341008d834900800f5300818f5b00e1
:1039f00006003c000606410087864900060050008c
:103a0000878058000a0541008b854900000040006e
:103a1000818048008301d1000281d3000402e900c3
:103a2000efff3a00e00f5000e08f58001b0032001b
:103a30000226240023da20000000200001f82300e1
:103a40000df407000200200003f82300b0f3070084
:103a50000000e000110035000226240023da2000d7
:103a60000000200001f823000cf4070002002000f1
:103a700003f82300a6f307000000e0000300340071
:103a800062054500e0854d00040037006000b80085
:103a9000610065000005450081854d00c744dd00db
:103aa000080020000000200001f02300080440006e
:103ab000898448008b85d1000a85d300080445001d
:103ac00089844d000800be004f06be004f05be00b1
:103ad0004f04be0000000600889fbe008a9fbe0003
:103ae0008c9fbe000001be00b0f507000004be00c0
:103af0000001be00adf507000005be000200200079
:103b000003f02b000800be00a8f50700020020000b
:103b100003f82300e1f307000006be00f2a92a0023
:103b2000a3d223000a00be00a0f507000001be00da
:103b30000c00be00d9f307000006be000801be005d
:103b40000a00be0099f507000005be0072a1290019
:103b5000c37c23000800be0094f50700f243200058
:103b600063ab2300c4f307000001be000a00be00df
:103b70008ef507000001be000c00be00c7f3070071
:103b80004f06be004f05be004f04be0000000600f9
:103b90000800fa00889fbe008a9fbe008c9fbe006e
:103ba0000005be00020478000001be00830078001a
:103bb00001f0a1000a007800a2fd200093dc24009f
:103bc000820f5000838f58001d003e0032982f0056
:103bd00023f223000a00be0074f507000200200053
:103be00003b42400adf307000200200003b4240056
:103bf000a1f307000006be0047f307008004780029
:103c0000a2fd200093fc23000c00be0067f5070016
:103c10000001be000a00be0097f307000005be00c9
:103c2000325a2800832823000c00be005ff50700ed
:103c30000001be000a00be008ff307002600370017
:103c4000f2ff2f00f3f72700820f5000838f5800f8
:103c5000060036000a01be000a00be0086f3070017
:103c6000008cbe008004eb001c0037000a00be0080
:103c7000500007000005be0032982f0023f22300f9
:103c80004af507000200200003f0230083f3070039
:103c9000540007000203be000002be00e4b79f000c
:103ca000f5b79f0086bf9f0097bf9f00e2f6070011
:103cb00032982f0023f223005df407000001be00bc
:103cc0000a00be006cf307006000b80020049800f2
:103cd00031049800efb49700008cbe000900780012
:103ce0004f06be004f05be004f04be000080fa0024
:103cf00000000600889fbe008a9fbe008c9fbe0009
:103d00000005be000001be0028f507000004be004b
:103d10000a01be0025f507000006be004288280003
:103d200083c023000800be0020f50700b2aa2a00c5
:103d3000a3e2230050f307000001be000c00be0008
:103d40001af507000001be000a00be0053f3070089
:103d50000005be000801be000800be0013f5070004
:103d60000001be000c00be0010f507000006be00fa
:103d7000c2c32600636323000800be000bf50700e2
:103d8000f27c2000039523003bf307000001be00f6
:103d90000c00be0005f507000001be000a00be00d1
:103da0003ef307004f06be004f05be004f04be00a5
:103db000000006006022b8006033b8000002be00b8
:103dc000f0ff2f00f1ff2f00f2ff2f00f3ff27007d
:103dd0000000620081806200020163008381630051
:103de000000006000003be000ef307006011b800db
:103df0000470a70007f0a1006509b1001b003200a4
:103e000012003500860220000628e1000800350077
:103e1000f3ff2700f2ff2f006110b9000700e00058
:103e200018003b00030028006000b80002000500f5
:103e30000000400081804800020149008381490060
:103e40008502e900faff3a0008003700f88f4200c7
:103e500002003c008000eb00000005008100d10062
:103e60000080d3008502e800fcff3a000700e00074
:103e700004003b0060001000e080180060011900a1
:083e8000e081190000000600ba
:020000040000fa
:103e88000000fa0010d72300a1fa2300e09c880064
:103e9800f19c88006000b800009d8800119d880092
:103ea800b0fd200091042c00209d8800319d8800e1
:103eb8006000b800409d8800519d88006000b800ef
:103ec800609d8800719d88006000b800809d880012
:103ed800919d88006000b800a09d8800b19d880071
:103ee8006000b800c09d8800d19d88006000b800bf
:103ef800e09d8800f19d88000080fa00000006001f
:103f08002600fa00889fbe008a9fbe00849d80001c
:103f1800959d8000e09c8000f19c80000001be001f
:103f28000400be00d2f207000004be00a49d800079
:103f3800b59d8000009d8000119d80000001be009d
:103f48000400be00caf207000801be00a6f607007a
:103f58006007980071079800209d8000319d8000bf
:103f68006e019000fe019000380b0700cf80de0044
:103f7800a3f207000002be00209d8000319d800052
:103f88000001be000400be00b9f20700000f98004f
:103f9800110f98000e0990009e099000c29d88009c
:103fa800d39d8800649d8000759d8000609d800081
:103fb800719d80000001be000400be0079f4070076
:103fc8006266260063fe230097f30700008fbe0099
:103fd800609d8000719d800002002000a3372400ae
:103fe80091f307002007980031079800409d800052
:103ff800519d800002002000a33724008af30700a7
:104008004007980051079800449d8000559d800006
:10401800409d8000519d80000001be000400be004c
:1040280060f407006266260063fe23007ef3070043
:10403800200f9800310f9800849d8000959d800086
:10404800e09c8000f19c80000001be000400be00de
:1040580087f207000004be00849d8000959d8000c3
:10406800e09c8000f19c80000001be000400be00be
:104078007ff207000001be000800be0049f40700f7
:104088000004be00a49d8000b59d8000009d8000b6
:10409800119d80000001be000400be0074f20700fc
:1040a8000005be00a49d8000b59d8000009d800095
:1040b800119d80000001be000400be006cf20700e4
:1040c8000001be000a00be0036f407000001be0071
:1040d8000800be006ff20700f3fd0700400f9800cc
:1040e800510f98004e099000de099000e29d88006b
:1040f800f39d8800408380000000e00026003a001d
:1041080050838000e60f50008b023c0052838000f1
:10411800ea12b90084007800c03221000080400013
:10412800fc004700b0187800a0107800e480400038
:1041380064004000b0187800a0107800e4804000c7
:1041480064004000900878008180e8000080e80062
:104158000200e800508388006e089000fe08900076
:10416800809d8800919d88000e1090009e10900000
:10417800a09d8800b19d88002e1090000000e000ee
:10418800020032003000200001003700100020003b
:10419800408388006802370040838000e10f5000a8
:1041a8000300320040838000e30f500026013a00ec
:1041b800609d8000719d800018c0b3006011b80038
:1041c800cff107000000e000010035000044eb00db
:1041d8000804e000040032001e0078009e009000f1
:1041e80001f0a200008fbe0018c0b3006011b80033
:1041f8001e0078009e009000c3f107000000e00058
:1042080001003d000044eb000804e0000a00320011
:1042180018c0b3006011b8000e0890009e08900006
:10422800b9f107000000e00001003d000044eb0088
:104238000804e00014003a0018c0b3006011b80088
:104248001e0078009e009000adf107000000e0001d
:10425800010034000044eb000804e0004100320093
:1042680018c0b3006011b8000e0890009e089000b6
:10427800a3f107000000e000010034000044eb0057
:104288000804e000370032000e0890009e089000f5
:10429800f50a0700000478001e0078009e009000d0
:1042a800f10a0700800f54002e00350018c0b30033
:1042b8006011b8000e0890009e08900092f1070067
:1042c8000000e00001003c000044eb000804e000ae
:1042d8000d003200609d8000719d8000a2df2e00dd
:1042e800b3b62300ebf10700b2fd200093042400cd
:1042f8000b0b0700cf80de00c1f10700609d88002e
:10430800719d8800a500370018c0b3006011b8007f
:104318000e0890009e08900079f107000000e00068
:10432800010035000044eb000804e0009a00320068
:10433800609d8000719d8000a2df2e00b3b623002f
:10434800cbf10700b2fd200093042c00dc0a070023
:10435800cf80de00aaf10700609d8800719d88006b
:104368008e00370018c0b3006011b8000e08900026
:104378009e08900064f107000000e00001003d0085
:104388000044eb000804e00016003200609d800045
:10439800719d800018c0b3006011b8005af1070081
:1043a8000000e00001003c000044eb000804e000cd
:1043b8000c003200609d8000719d8000a2df2e00fd
:1043c800b3b62300aaf107000001eb00bc0a0700fe
:1043d800cf80de008af10700609d8800719d88000b
:1043e8005f00370018c0b3006011b8000e089000d5
:1043f8009e08900044f107000000e00001003d0025
:104408000044eb000804e00016003200609d8000c4
:10441800719d800018c0b3006011b80038f1070022
:104428000000e000010035000044eb000804e00053
:104438000c003200609d8000719d8000a2df2e007c
:10444800b3b6230093f107000001eb00b40a07009c
:10445800cf80de006af10700609d8800719d8800aa
:104468003f00370018c0b3006011b8000e08900074
:104478009e08900022f107000000e00001003400cf
:104488000044eb000804e00016003200609d800044
:10449800719d800018c0b3006011b8001af10700c0
:1044a8000000e00001003c000044eb000804e000cc
:1044b8000c003200609d8000719d8000a2df2e00fc
:1044c800b3b623006af107000001eb007c0a07007d
:1044d800cf80de004af10700609d8800719d88004a
:1044e8001f00370018c0b3006011b8000e08900014
:1044f8009e08900002f107000000e000010034006f
:104508000044eb000804e00015003200609d8000c4
:10451800719d800018c0b3006011b800f8f0070062
:104528000000e000010035000044eb000804e00052
:104538000b003200609d8000719d8000a2df2e007c
:10454800b3b6230053f107000001eb00740a07001b
:10455800cf80de002af10700609d8800719d8800e9
:104568000e0890009e0890003f0a0700000478009b
:104578002e009000be0090003b0a0700800f5400f8
:1045880006003d000e0990009e0990002207980041
:10459800330798000100370000000000209d8000cc
:1045a800319d80002e019000be01900039f1070076
:1045b800209d8800319d8800609d8000719d80004d
:1045c800c08c8800d18c8800609d8000719d80001f
:1045d8006011b800caf007000000e00053013a007b
:1045e8000e0890009e0890001f0a0700cf80de008a
:1045f80003f1070018c0b300a2702d0033c22300d6
:10460800bff007000000e000010035000044eb00a7
:104618000804e000470132006e019000fe0190009e
:10462800229d8800339d880040838000e30f50005e
:104638000300320020002000408388003e0137003c
:104648006830ef003c01370040838000e20f5000e3
:1046580039013a006011b8004e089000de08900059
:10466800ecf007000000e000f70032000e089000b0
:104678009e0890005909070018c0b300a2702d00c9
:1046880033c223009ef007000000e000010035005f
:104698000044eb000804e000eb00320018c0b3004f
:1046a8006011b8002e089000be08900096f0070030
:1046b8000000e00001003d000044eb000804e000b9
:1046c8000a00320018c0b3006011b8004e0890000c
:1046d800de0890008cf007000000e00001003d00bb
:1046e8000044eb000804e00014003a0018c0b300ce
:1046f8006011b8002e089000be08900080f00700f6
:104708000000e000010034000044eb000804e00071
:104718003f00320018c0b3006011b8004e08900086
:10472800de08900076f007000000e0000100340089
:104738000044eb000804e000350032004e08900009
:10474800de089000c8090700000478002e089000d1
:10475800be089000c4090700800f54002c003500e3
:1047680018c0b3006011b8004e089000de08900031
:1047780065f007000000e00001003c000044eb0089
:104788000804e0000c003200409d8000519d80002c
:10479800a2df2e00b3b62300bef0070012002000ef
:1047a800df090700cf80de0095f00700409d8800f4
:1047b800519d8800a400370018c0b3006011b800ec
:1047c8004e089000de0890004df007000000e00061
:1047d800010035000044eb000804e00099003200b5
:1047e800409d8000519d8000a2df2e00b3b62300bb
:1047f8009ff007000081eb00b1090700cf80de00c1
:104808007ff00700409d8800519d88008e0037008a
:1048180018c0b3006011b8004e089000de08900080
:1048280039f007000000e00001003d000044eb0003
:104838000804e00016003200409d8000519d800071
:1048480018c0b3006011b8002ff007000000e000a6
:1048580001003c000044eb000804e0000c003200ba
:10486800409d8000519d8000a2df2e00b3b623003a
:104878007ff007000001eb0091090700cf80de0000
:104888005ff00700409d8800519d88005f00370059
:1048980018c0b3006011b8004e089000de08900000
:1048a80019f007000000e00001003d000044eb00a3
:1048b8000804e00016003200409d8000519d8000f1
:1048c80018c0b3006011b8000df007000000e00048
:1048d800010035000044eb000804e0000c00320041
:1048e800409d8000519d8000a2df2e00b3b62300ba
:1048f80068f007000001eb0089090700cf80de009f
:104908003ff00700409d8800519d88003f00370018
:1049180018c0b3006011b8004e089000de0890007f
:10492800f7ef07000000e000010034000044eb004e
:104938000804e00016003200409d8000519d800070
:1049480018c0b3006011b800efef07000000e000e6
:1049580001003c000044eb000804e0000c003200b9
:10496800409d8000519d8000a2df2e00b3b6230039
:104978003ff007000001eb0051090700cf80de007f
:104988001ff00700409d8800519d88001f003700d8
:1049980018c0b3006011b8004e089000de089000ff
:1049a800d7ef07000000e000010034000044eb00ee
:1049b8000804e00015003200409d8000519d8000f1
:1049c80018c0b3006011b800cdef07000000e00088
:1049d800010035000044eb000804e0000b00320041
:1049e800409d8000519d8000a2df2e00b3b62300b9
:1049f80028f007000001eb0049090700cf80de001e
:104a0800ffef0700409d8800519d88004e089000e8
:104a1800de08900014090700000478004e0090009a
:104a2800de00900010090700800f540006003d00ca
:104a38004e099000de09900042079800530798003d
:104a480001003700000000004e089000de089000ca
:104a580005090700cf80de00e9ef070018c0b300a2
:104a680072712b00138d2300a5ef07000000e000f2
:104a7800010035000044eb000804e0000c0032009f
:104a88006000b800409d8800519d8800809d80008e
:104a9800919d8000e09c8800f19c8800a09d80008a
:104aa800b19d8000009d8800119d88006830ef004e
:104ab800e89c8000f99c8000209d8000319d80004a
:104ac80061f507004e019000de019000b5f1070086
:104ad8000001be000800be00eeef0700e09c880061
:104ae800f19c8800089d8000199d8000209d800011
:104af800319d8000d5fa07004e019000de0190003c
:104b0800a8f107000001be000800be00e1ef0700a1
:104b1800009d8800119d8800409d8000519d800067
:104b2800a08c8800b18c88000300370000000000ca
:104b38000100370000000000040007004f05be0018
:104b48004f04be000080fa00000006001800fa00ba
:104b580080868000918680006def07000001be000e
:104b68008000eb000e0078008c080700609d800034
:104b7800719d80000001be00410020000e007800f9
:104b88006d080700409d8000519d80000001be0017
:104b9800810020000e00780067080700209d800033
:104ba800319d80000001be00c10020000e00780089
:104bb80061080700e09c8000f19c80000001be00b5
:104bc800010120000e0078005b080700009d8000ae
:104bd800119d80000001be00410120000e007800f8
:104be800550807000e01780081012000000120000f
:104bf8006b0207000080fa00000006000e00fa00b1
:104c0800000f7800120798002307980034079800cf
:104c18004507980056079800670798001e00780017
:104c28001e019000ae0190000288be001e007800b0
:104c38003eb99700ceb997006200980073009800bb
:104c48001e0078003e019000ce01900022009800de
:104c5800330098001e0078001eb99700aeb997007f
:104c680002089800130898001e0078005e01900062
:104c7800ee01900042009800530098001e00780052
:104c88007eb197008eb997002208980033089800e3
:104c98000080fa00000006001200fa00889fbe009b
:104ca8006007980072079800030f98006e00900044
:104cb8007e0190008e099000021098001310980051
:104cc8006e00900090009000100078006011b8000d
:104cd80050ef07000000e0001e0032006e00900058
:104ce80060029000f00290006e009000900090002a
:104cf800100078000001be000400be004af0070062
:104d08000004be006e009000f0009000600090006b
:104d18000002be0005f0a2006e0090009000900016
:104d2800100078000001be000400be003ef007003d
:104d38000802be000001be007e0090008e089000b0
:104d48008f080700cf80de002def0700008fbe0020
:104d5800030037007e0190008e099000028fbe008c
:104d68006e00900090009000100078001e017800fe
:104d78009e0190000bf107006e0190002011980031
:104d8800311198006e009000400c9000d00c9000fb
:104d980002002000a33724007e0090008e089000b7
:104da80021f007000001be000800be0039ef07002f
:104db8006e01900040099800510998006e0090001b
:104dc800b0009000200090006011b80011ef0700bb
:104dd8000000e000220032006e009000000a9000ff
:104de800900a90006e009000b000900020009000a3
:104df8000001be000400be000bf007000004be0066
:104e08006e00900090089000000890000002be001c
:104e180005f0a2006e009000b00090002000900005
:104e28000001be000400be00ffef07006e01900005
:104e3800420b9000d20b90000802be000001be0099
:104e48000600be004e080700cf80de00ecee07002b
:104e58006e0190004009980051099800050037003c
:104e68006e0090007e0190008e0990004208980024
:104e7800530898006e009000400a9000d00a9000f5
:104e88006e009000b0009000200090000001be006d
:104e98000400be00c3f007006e01900040119800a6
:104ea800511198006e009000f00890006008900082
:104eb8000001be007e0090008e089000ecee070016
:104ec80002002000a3372400b6f00700400798002e
:104ed800510798006e009000d000900040009000ac
:104ee8006011b800cbee07000000e0001f003200a0
:104ef8006e009000200a9000b00a90006e009000aa
:104f0800d0009000400090000001be000400be00e8
:104f1800c5ef07000004be006e009000b0089000c6
:104f2800200890000002be0005f0a2006e0090006c
:104f3800d0009000400090000001be000400be00b8
:104f4800b9ef07000802be000001be004e00900045
:104f5800de0090000a080700cf80de00a8ee0700f8
:104f68002007980031079800040037004e01900090
:104f7800de01900022079800330798006e00900029
:104f88007e0190008e0990006208980073089800ce
:104f98006e009000d0009000400090002e0190001c
:104fa800be0190007ff007006e019000601198002c
:104fb800711198006e00900020129000b0129000bd
:104fc8006e009000d0109000401090000001be00cc
:104fd8000400be00afee07000002be006e009000a5
:104fe800f0109000601090000001be000400be00a8
:104ff800a8ee07004f04be000080fa00000006007b
:105008000000fa00889fbe008a9fbe006000b800ba
:10501800a08c8800b18c88006000b800c08c880023
:10502800d18c8800a48c8000b58c8000808580009d
:10503800918580000001be000400be008cee0700d0
:10504800a0878800b1878800c48c8000d58c800038
:10505800a0858000b18580000001be000400be006c
:1050680083ee07002089880031898800a0878000a6
:10507800b18780000001be00400d210006ff070037
:10508800e08c8800f18c88002089800031898000bc
:105098000001be0040102100fffe0700008d8800bf
:1050a800118d8800e0828000f18280000004be003b
:1050b80009f0a200ea8c8000fb8c8000048d80003f
:1050c800158d800000838000118380000001be00e0
:1050d8000400be0033f00700020020000300240093
:1050e80051ef07000001be000a00be0069ee07008c
:1050f8000001be000800be002af0070030848800c6
:1051080041848800e88c8000f98c8000048d800040
:10511800158d800000838000118380000001be008f
:105128000400be001ff00700020020000300240056
:105138003def07000001be000800be004cee07006e
:105148000002be00e0828000f18280000001be0003
:105158000400be0013f00700f08388000184880073
:105168004f05be004f04be000080fa000000060094
:105178003200fa00001f9800a0868000b1868000e7
:105188000001be008000eb000e007800ea06070070
:10519800c0868000d18680000001be00410020004a
:1051a8000e007800e4060700e0868000f1868000a3
:1051b8000001be00810020000e007800de06070016
:1051c80000878000118780000001be00c100200018
:1051d8000e007800d80607002087800031878000fd
:1051e8000001be00010120000e007800d206070071
:1051f80040878000518780000001be0041012000e7
:105208000e007800cc0607002088800031888000d6
:105218000001be00810120000e007800c6060700cc
:1052280040888000518880000001be00c101200034
:105238000e007800c0060700608880007188800032
:105248000001be00010220000e007800ba06070027
:1052580080888000918880000001be004102200003
:105268000e007800b4060700a0888000b18880008e
:105278000001be00810220000e007800ae06070083
:10528800c0888000d18880000001be00c1022000d3
:105298000e007800a80607000e0178000103200020
:1052a8000e189000be0007000080fa0000000600fb
:1052b8005a00fa00402f9800a08c8000b18c800022
:1052c8000001be008000eb000e007800cd0607004c
:1052d800c08c8000d18c80000001be0041002000fd
:1052e8000e007800c7060700f08380000184800064
:1052f8000001be00810020000e0078008e06070025
:1053080030848000418480000001be00c10020007c
:105318000e0078008806070080858000918580004f
:105328000001be00010120000e007800b50607004c
:10533800a0858000b18580000001be0041012000e9
:105348000e007800af060700608580007185800038
:105358000001be00810120000e007800a9060700a8
:1053680040858000518580000001be00c1012000f9
:105378000e007800a3060700a0878000b187800090
:105388000001be00010220000e0078006a06070036
:1053980020898000318980000001be004102200080
:1053a8000e00780064060700208d8000318d800093
:1053b8000001be00810220000e007800910607005f
:1053c800408d8000518d80000001be00c102200088
:1053d8000e0078008b060700e08c8000f18c8000be
:1053e8000001be00010320000e00780052060700ed
:1053f800008d8000118d80000001be004103200057
:105408000e0078004c06070010848000218480007c
:105418000001be00810320000e0078004606070048
:1054280050848000618480000001be00c103200018
:105438000e00780040060700c0878000d1878000f2
:105448000001be00010420000e0078003a060700a3
:1054580040898000518980000001be00410420007d
:105468000e00780034060700e0878000f18780008e
:105478000001be00810420000e0078002e060700ff
:1054880060898000718980000001be00c10420008d
:105498000e00780028060700008880001188800028
:1054a8000001be00010520000e007800220607005a
:1054b80080898000918980000001be00410520009c
:1054c8000e0078001c0607000e01780081052000f8
:1054d8004e289000320007000080fa000000060005
:1054e8000a00fa0020079800310798004207980040
:1054f8000040eb00004f7800e0cfb3001e4f68007b
:105508002e0090004880de00804078001e40780021
:1055180000c06800004f78002e009000804078009e
:105528001e40780000c06800004f78003e009000e0
:105538004880de00804078001e40780000c0680087
:10554800004f78003e009000804078001e407800b0
:1055580000c06800004f78000000eb0010079800ba
:10556800080037001e009000ce0090000080400028
:10557800104078001e4f68001e0090000000e800f0
:10558800100798009e0090003e009000808f500009
:10559800f4ff35001e4078000080fa000000060085
:1055a8000e00fa00889fbe00400798005107980037
:1055b800620798000f0478000f00780080047800d4
:1055c8005e009000660040008000e9001107980026
:1055d8000000e8000000e8000000d1008000400062
:1055e8000f007800818747000000e8000000d10024
:1055f80000004000200798002e009000e1cfb30083
:10560800014878004e0090004880de008040780015
:105618002e009000114098004e00900080407800c5
:105628002e009000214098005e0090004880de0027
:10563800804078002e009000314098005e00900075
:10564800804078002e0090004140980050002000d3
:10565800000f7800090037001e0078006500500030
:10566800ee00900000804000904078002e009000ee
:105678001e004000014878001e0fe8005e00900000
:10568800650040009e0f5000f3ff3c006e01900043
:10569800de0090004e00900091ff070060479800e0
:1056a8005e00900065004000ee4090002e019000e2
:1056b80000004100014878005e009000e6004000cc
:1056c8002e00900094070700890778008807780063
:1056d8004f04be000080fa00000006000c00fa002b
:1056e800300798004107980052079800e00f200003
