:020000040000fa
:080000000002040000000000f2
:020000040000fa
:04000800540400009c
:020000040000fa
:04000c005404000098
:020000040000fa
:040010005404000094
:020000040000fa
:040014005404000090
:020000040000fa
:04001800540400008c
:020000040000fa
:04001c005404000088
:020000040000fa
:040020005404000084
:020000040000fa
:040024005404000080
:020000040000fa
:04002800540400007c
:020000040000fa
:04002c005404000078
:020000040000fa
:040030005404000074
:020000040000fa
:04003400fa020000cc
:020000040000fa
:04003800540400006c
:020000040000fa
:04003c005404000068
:020000040000fa
:040040005404000064
:020000040000fa
:040044005404000060
:020000040000fa
:040048002c03000085
:020000040000fa
:04004c005404000058
:020000040000fa
:040050005404000054
:020000040000fa
:040054005404000050
:020000040000fa
:04005800540400004c
:020000040000fa
:04005c00c2030000db
:020000040000fa
:040060005404000044
:020000040000fa
:040064005404000040
:020000040000fa
:04006800540400003c
:020000040000fa
:04006c005404000038
:020000040000fa
:040070005404000034
:020000040000fa
:040074005404000030
:020000040000fa
:04007800540400002c
:020000040000fa
:04007c005404000028
:020000040000fa
:040080005404000024
:020000040000fa
:040084005404000020
:020000040000fa
:04008800540400001c
:020000040000fa
:04008c005404000018
:020000040000fa
:040090005404000014
:020000040000fa
:040094005404000010
:020000040000fa
:04009800540400000c
:020000040000fa
:04009c005404000008
:020000040000fa
:0400a0001004000048
:020000040000fa
:0400a400e60300006f
:020000040000fa
:0400a80054040000fc
:020000040000fa
:0400ac0054040000f8
:020000040000fa
:0400b00054040000f4
:020000040000fa
:0400b40054040000f0
:020000040000fa
:0400b80054040000ec
:020000040000fa
:0400bc0054040000e8
:020000040000fa
:0400c00054040000e4
:020000040000fa
:0400c40054040000e0
:020000040000fa
:0400c80054040000dc
:020000040000fa
:0400cc0054040000d8
:020000040000fa
:0400d00054040000d4
:020000040000fa
:0400d40054040000d0
:020000040000fa
:0400d80054040000cc
:020000040000fa
:0400dc0054040000c8
:020000040000fa
:0400e00054040000c4
:020000040000fa
:0400e40054040000c0
:020000040000fa
:0400e80054040000bc
:020000040000fa
:0400ec0054040000b8
:020000040000fa
:0400f00054040000b4
:020000040000fa
:0400f40054040000b0
:020000040000fa
:0400f80054040000ac
:020000040000fa
:0400fc0054040000a8
:020000040000fa
:0401000054040000a3
:020000040000fa
:04010400540400009f
:020000040000fa
:04010800540400009b
:020000040000fa
:04010c005404000097
:020000040000fa
:040110005404000093
:020000040000fa
:04011400540400008f
:020000040000fa
:04011800540400008b
:020000040000fa
:04011c005404000087
:020000040000fa
:040120005404000083
:020000040000fa
:04012400540400007f
:020000040000fa
:04012800540400007b
:020000040000fa
:04012c005404000077
:020000040000fa
:040130005404000073
:020000040000fa
:04013400540400006f
:020000040000fa
:04013800540400006b
:020000040000fa
:04013c005404000067
:020000040000fa
:040140005404000063
:020000040000fa
:04014400540400005f
:020000040000fa
:04014800540400005b
:020000040000fa
:04014c005404000057
:020000040000fa
:040150005404000053
:020000040000fa
:04015400540400004f
:020000040000fa
:04015800540400004b
:020000040000fa
:04015c005404000047
:020000040000fa
:040160005404000043
:020000040000fa
:04016400540400003f
:020000040000fa
:04016800540400003b
:020000040000fa
:04016c005404000037
:020000040000fa
:040170005404000033
:020000040000fa
:04017400540400002f
:020000040000fa
:04017800540400002b
:020000040000fa
:04017c005404000027
:020000040000fa
:040180005404000023
:020000040000fa
:04018400540400001f
:020000040000fa
:04018800540400001b
:020000040000fa
:04018c005404000017
:020000040000fa
:040190005404000013
:020000040000fa
:04019400540400000f
:020000040000fa
:04019800540400000b
:020000040000fa
:04019c005404000007
:020000040000fa
:0401a0005404000003
:020000040000fa
:0401a40054040000ff
:020000040000fa
:0401a80054040000fb
:020000040000fa
:0401ac0054040000f7
:020000040000fa
:0401b00054040000f3
:020000040000fa
:0401b40054040000ef
:020000040000fa
:0401b80054040000eb
:020000040000fa
:0401bc0054040000e7
:020000040000fa
:0401c00054040000e3
:020000040000fa
:0401c40054040000df
:020000040000fa
:0401c80054040000db
:020000040000fa
:0401cc0054040000d7
:020000040000fa
:0401d00054040000d3
:020000040000fa
:0401d40054040000cf
:020000040000fa
:0401d80054040000cb
:020000040000fa
:0401dc0054040000c7
:020000040000fa
:0401e00054040000c3
:020000040000fa
:0401e40054040000bf
:020000040000fa
:0401e80054040000bb
:020000040000fa
:0401ec0054040000b7
:020000040000fa
:0401f00054040000b3
:020000040000fa
:0401f40054040000af
:020000040000fa
:0401f80054040000ab
:020000040000fa
:0401fc0054040000a7
:020000040000fa
:0402000054040000a2
:020000040000fa
:04020400540400009e
:020000040000fa
:04020800540400009a
:020000040000fa
:04020c005404000096
:020000040000fa
:040210005404000092
:020000040000fa
:04021400540400008e
:020000040000fa
:04021800540400008a
:020000040000fa
:04021c005404000086
:020000040000fa
:040220005404000082
:020000040000fa
:04022400540400007e
:020000040000fa
:04022800540400007a
:020000040000fa
:04022c005404000076
:020000040000fa
:040230005404000072
:020000040000fa
:04023400540400006e
:020000040000fa
:04023800540400006a
:020000040000fa
:04023c005404000066
:020000040000fa
:040240005404000062
:020000040000fa
:04024400540400005e
:020000040000fa
:04024800540400005a
:020000040000fa
:04024c005404000056
:020000040000fa
:040250005404000052
:020000040000fa
:04025400540400004e
:020000040000fa
:04025800540400004a
:020000040000fa
:04025c005404000046
:020000040000fa
:040260005404000042
:020000040000fa
:04026400540400003e
:020000040000fa
:100400004f2121000eff2d000e018800000000008a
:10041000000020000000e000020032000001200087
:100420002002880014000700210107000000e000fe
:1004300003003a004056220001002000020037006d
:100440000000200001002000810f70000100320038
:100450000f000700000020000000e0000200320052
:100460000000020000000000fa220200000000006c
:100470000040da000000fe00200020000000e00044
:1004800002003200100020009001880000000600e9
:10049000a1028800800478000000eb001f003700f4
:1004a000e284440054a0b4009905ba00e2844400f8
:1004b00054a0b4009906ba00e284440054a0b400e9
:1004c0000006eb00476fde00fd07b200ae018800ba
:1004d000636ce10003003a000ad801000000eb0061
:1004e0000e003700606ce10008003a00004deb00a0
:1004f0000a05e800020039003420ec000af0a000f0
:100500008b05e900f9ff3e00040037006168e10057
:10051000010032000086eb000b00070019c7ba008b
:100520000e04e0001905ba0003003a000a00e000da
:10053000dbff3a0000000600fe07b200ae028800b2
:100540008a047800f5ff37000cd0a300e20f4d00bd
:100550001c003b0089027800354dba000a05e8000e
:10056000020039003420ec000af0a0008b05e900fd
:100570000f003200254dba000a05e80002003900dc
:100580003420ec000af0a0008b05e90008003200de
:100590000c00e0000600320015cdba000a05e800a4
:1005a000020039003420ec000af0a0008b05e900bd
:1005b0008984e80054a0b4000b00e000e2ff3a0098
:1005c000000006009902ba00055d78008b05e9007d
:1005d000f7ff3200c82ade00055d78008b05e900d0
:1005e000f3ff32000c00e000f1ff320019ddba0029
:1005f000eeff37003600f800809fbe00829fbe00ed
:10060000849fbe00869fbe000000fa000068a9001b
:10061000990d0700d210070018d0bf000004e000b9
:1006200004003a00040ea80010c0b30018f0b70090
:1006300002003700040ea9001870ef000080fa00d5
:100640004f03be004f02be004f01be004f00be0070
:100650003600f900004006003600f800809fbe001a
:10066000829fbe00849fbe00869fbe000000fa00ed
:1006700063090700d01c2100104078000004e0004e
:1006800003003200808e80000000e900808e880028
:10069000808e80000000e0000c00340012c0b30027
:1006a00000002000011a2c00610d070022c0b300d9
:1006b00000002000011a24005d0d0700c01c21006d
:1006c0008040eb000148780003003700c01c210087
:1006d00011c0b300014878000108a90090738000a0
:1006e000620060000000e000030032002070ef00b4
:1006f00010c0b30019f0b70019d0bf000004e0002b
:1007000019003200a07380006800600000f0a700ac
:100710000000ea000000e9004f00de000040780021
:100720000080fb00610060004300dd00a1738000d9
:100730000130a10001007000a0738800d08080000b
:100740000000e800d0808800d1808000b003200045
:10075000808f50000400340010c0b30020f0b700b8
:100760001970ef001a30ef000080fa004f03be004e
:100770004f02be004f01be004f00be003600f90020
:1007800000400600801f78000000fa0001a8a900c0
:1007900000188000908e880010188000a08e8800bd
:1007a00020188000b08e880030188000c08e88002d
:1007b00040188000d08e880010c0b30023f0b7002e
:1007c0000080fa004f007800004006003600f80074
:1007d000809fbe00829fbe00849fbe00869fbe0099
:1007e0000000fa0003e8a900a1808000908080004a
:1007f000808f5000020032005d0f070001003700bb
:100800001670ef000080fa004f03be004f02be00da
:100810004f01be004f00be003600f9000040060048
:100820003600f800809fbe00829fbe00849fbe00fd
:10083000869fbe000000fa0003c8a9009011800046
:10084000640060000000e000010032003242a900b4
:1008500090118000620060000000e000060032009d
:100860003222a90005003700b01180000040780056
:1008700051100700010037000000000090118000b7
:10088000610060000000e000f7ff3a000080fa001d
:100890004f03be004f02be004f01be004f00be001e
:1008a0003600f900004006000040da000000fe00bb
:1008b0000000050014002000ad033700f4ff2f00f6
:1008c000ab0337000001be003f0007000470a70023
:1008d00003f0a1006509b100160032000d003500db
:1008e0006828e10006003500f0ff2f00f1ff270027
:1008f0000300e00013003b00010028000000050099
:1009000000004000818048008502e900fcff3a00b9
:1009100008003700f88f420002003c008000eb0026
:10092000000005008100d1000080d3008502e800ae
:10093000fcff3a000300e00002003b0060001000f2
:10094000e0801800000006000001be001e00070045
:100950000470a70003f0a10003f8a30013003a00fd
:100960006509b10010003200090035006928e10076
:1009700002003500010028000000050000004000d2
:10098000818048008502e900fcff3a000000060073
:10099000f88f4200050035008100d1000080d300af
:1009a0008502e800fcff3a00000006008000eb0032
:1009b000000005004f89de008201780087033700c0
:1009c0006011b80095033700c70ade00f107b200d6
:1009d000f50fb20008003200e1cf42000200320001
:1009e0000170a00024000500810f7000010032009a
:1009f0000408050044000500810f700002003a0061
:100a0000140005008502e9000000400081c0480094
:100a1000fcff3b000170a0002400050007f8270040
:100a2000078361000638e10004003a00f707200060
:100a3000878361008703710001003a0003f0a20080
:100a4000889fbe008a9fbe008c9fbe00470ade00c2
:100a50000480a100c71ade000580a100070028005d
:100a60000785600087856100f70f20000720e100ff
:100a70009e0032000728e1009c0032000106780049
:100a80000400e000b4003200f70720008780600017
:100a90000170a0000500e000c0003200f707200050
:100aa000878161000370a000050652000f003a0024
:100ab0000b50e1000b0032000308e10002003a0095
:100ac0000200e1007e0032000204500083845800de
:100ad000040031000001fd008101fd008402fd00e1
:100ae0008a05fd006044b800210037000520e100c0
:100af00005003d000001fd008101fd008402fd00b4
:100b00008a05fd00050652007a60e1000500350007
:100b10000170a1004722dd00848070008a8070008f
:100b2000630037006044b800ef02660007ff2f0043
:100b3000070666000500e00006003400f08312009e
:100b40008714dd000511de00071bdd0006017100c2
:100b50008519de007060e1000500350009047800a9
:100b600082047800030178008001eb0070065600d3
:100b70000b50e10003003a0002004000838048006f
:100b80000400370060041400e0841c0002005800d8
:100b9000838058000188a300060032008100d10044
:100ba0000080d3008984d3000884d3000402e800c5
:100bb000270037000178a30025003a000100e0007b
:100bc000030032008186cf00698656000a00370094
:100bd0008c0020000000e00004003a0009007800ca
:100be000880478000004eb00700252008086cf0079
:100bf0000d0646000c06e9007060e10006003500b5
:100c00008000780009007800880478000004eb0078
:100c100070065600700252000c00e0000c00340018
:100c20008c08dd00f00316000703de0086807000ec
:100c30000c00dd00074bde00060070008c4cdd0070
:100c40000743de00868474000c44dd000c02520071
:100c50006120e100200035006101600007002800ec
:100c600087816400f7ff270087836400070374000f
:100c70000300e0000600320082037300040032002b
:100c80000000e800e08048000188a3000e003a0060
:100c9000f70f20000720e1004a003d000170a1008d
:100ca0004722dd00810072008a8070000000be00d3
:100cb0004f06be004f05be004f04be0000000600f8
:100cc0006000b800faff37008100d1000080d30037
:100cd0000402e800eeff3700040178008901740087
:100ce000a10107008a807000f1ff3700f7010700bb
:100cf000070278000001fd008101fd00f3010700fb
:100d000087027800850372000778a3000400320090
:100d10000001fd008101fd0006020700e4ff37002d
:100d2000850362000768a300080032000b50e10051
:100d300003003200f0ff2f00f1ff2700dcff370037
:100d40000001fd008101fd00d9ff37000468a30008
:100d5000d7ff3200faff3700f8ff270088836000d2
:100d60000b003a000000e00009003a008303640031
:100d700082837300020032000200be00ccff370005
:100d80000b50e100ceff3a000200be00c8ff370062
:100d900014002000810064003eff3700f8ff2700a8
:100da0008883610004003a000200e00002003a007b
:100db0008c007800beff370015002000830164001e
:100dc00039ff370001f8270000002000810075007e
:100dd000b7ff3700889fbe008a9fbe008c9fbe0071
:100de0001b0020000202be000586680006002800e5
:100df000060666004709de00f20fb20082003200ec
:100e00000243e80080003200c729de00f30fb20081
:100e10007d0032000343e8007b003200f107b2009e
:100e20000170a000f507b2000570a000c708dd0042
:100e30004903de00868070004700dd00c72add0020
:100e40004923de00868272004722dd00030551003f
:100e50000403500085835800030031000000400067
:100e6000818048000a05e9008c1f78008a9fbe0037
:100e700004005000858058000402420085824a0028
:100e800000004000818048000005eb000004be0027
:100e90006033b8000406be000d48e1005600310082
:100ea000110009004dccd8000c01b8000d02b800ab
:100eb0008481410060824a008283530003045c0005
:100ec00084845c0060055d000a00e00025003a00b3
:100ed000800578000d40e10049003100880078006d
:100ee00007007800110009004d88d8000c01b800f7
:100ef0000d02b8008481410060824a006003110045
:100f000083835b0004045c00e0845c000900e00073
:100f100021003a004f01be000300e0002b00320028
:100f2000e3016000070673008c817100010032004c
:100f3000640070004200de004e5edd000c007000b8
:100f4000c258de0001e0a00083010700cf01780055
:100f5000818071004f06be004f05be004f04be00e9
:100f6000000006008c8343000d044c00e0844c001c
:100f700060054d000000e9000a00e000d4ff3200e7
:100f80008c8343000d044c00e0844c0060054d0050
:100f90000000e900ceff37000c0343008d834b00b7
:100fa00060044c00e0844c000000e9000900e0000f
:100fb000d8ff32000c0343008d834b0060044c00cb
:100fc000e0844c000000e900d2ff37004200de0060
:100fd0004e5edd000c007000c258de0001e0a00093
:100fe000cf0178000300e000daff3200600010005b
:100ff000e0801800d7ff3700f0ff2f00aaff37006e
:10100000f0ff2f00b9ff37000404be002f010700d6
:10101000870678000004fd008104fd002b01070015
:10102000078366000678a300030032000960a7006a
:101030000800be002c0037000d78a300020032002b
:101040000800be00280037000778a30026003a00f9
:1010500001f0a10009f0a1000668a300030032001e
:10106000f1ff2700f0ff2f00baff37000d68a30043
:10107000030032000800be008c807000b5ff37000e
:101080000768a30007003a000648a30003003200e7
:10109000f1ff2700f0ff2f00aeff37000d48a3003f
:1010a000030032006000b8008c807000a9ff370098
:1010b0000748a3000400320001f8270000002000c8
:1010c0008c807000a3ff3700760107000004fd004c
:1010d0008104fd0002057800720107000802be00cd
:1010e0008a01780059ff37000160a0001202200039
:1010f0002281880097ff37000100e00012003200d3
:101100000500e00010003200889fbe008a9fbe00ec
:101110008c9fbe000006eb0001f8a3000300320024
:1011200060001000e08018000cf0a00005f8a3009b
:101130000300320060021200e0821a000cf0a200ec
:101140008005eb0041ff37006000b8000200050099
:10115000038368000700280007036300470ade00d6
:101160000480a100c71ade000580a100f70f20004f
:101170000720e100420032000728e1004000320071
:10118000889fbe008a9fbe008c1f7800f107b200c6
:10119000f307b2000400e000640032000170a00018
:1011a0000500e000680032000370a00085054200e1
:1011b000eb07b1000204b8000302b80084844400c5
:1011c00060854a00020ab800848444000a854a0007
:1011d000030ab80004054500040033000804d000e9
:1011e0008984d2000a85d2008b05e9006158e100ac
:1011f0003d003500021020000901610003082000b5
:1012000089816100f70720008783640008867300e6
:10121000c84cde00c853dd00878474004855de00ea
:101220000300e00006003200820376000400320072
:101230008904e80060054d000a88a3000c003a000c
:10124000f70f20000758e10044003d000a70a1009c
:10125000c75ddd000a8575008a007300090078000b
:101260004f0678004f05be004f04be000000060088
:101270000a05d1008984d3008b05e800f0ff370010
:10128000881f7800060478009000070007027800a5
:101290000001fd008101fd008c000700870278003d
:1012a000850372000778a300050032000001fd00ed
:1012b0008101fd009f0007004f0478000000060038
:1012c000850372000748a30003003200f0ff2f00df
:1012d000f1ff2700f8ff37000000200001f8270089
:1012e00088807000f4ff3700880178004848dd00ee
:1012f000808171004848de00c850dd0001007000a8
:10130000c850de00060478000b01780016000700c4
:1013100088807000d2ff37000500e0000500320031
:10132000170020003a0007009dff3700810370007e
:10133000f9ff3a00860078004f0678004f05be009e
:101340004f04be000000050083037100f9ff320066
:10135000270020002e00070094ff370001f8270027
:1013600086807000f4ff37000100e00026003200a4
:10137000610111007810e10023003c006022b800f8
:101380007010e10004003500800278000100780050
:101390008000eb00700151000200e0000900340001
:1013a00070031100062add00822ade008603dd00bc
:1013b000878272000200de00860bdd0007007000ed
:1013c0008208de0084817100f4ff2700048262003d
:1013d0008481710004002800848262006102600040
:1013e00005f0a6000000060004827100070032002c
:1013f0000000e800e0804800000006000002be0097
:101400006000b800efff37006000b8000000060081
:10141000889fbe000004eb006138e10016003a002e
:101420000100e00008003a00c800de004800dd00ce
:10143000880020000100e00003003a00c800de0040
:101440004800dd00680444008184cf00e984540032
:10145000060034008908dd00f08314008703de00f5
:10146000878070000900dd00090444006102140057
:101470004f04be00000006000300e00008003a0030
:10148000c811de004811dd00880020000300e000e4
:1014900003003a00c811de004811dd006804440072
:1014a0008384cf00e9845400060034008919dd00ec
:1014b000f08314008713de00878171000911dd00bd
:1014c00009044400e1021400e9ff3700270020006e
:1014d00001f0a70017002000470bde00f60fb20056
:1014e000040032000643e8000a0032004702b3005d
:1014f0000000060001037800f607b2000603700042
:1015000002003a000703b300000006008702b300a0
:101510000000060001037800f607b2000603700021
:10152000020032000770a000000006000760a00063
:10153000000006000478a300040032000578a30030
:10154000030032000168a30001003a000200be005f
:101550000160a00000000600810170002700320039
:101560008002eb0001f8a3000300320060001000cd
:10157000e080180015002000f4072000020242005d
:1015800020003400f70320008703600006042000d9
:101590000003630002082000000161004700de0034
:1015a000c909dd0000807100c708de000600e00008
:1015b0000800320087037100060032001000b000fe
:1015c0000180b0000188a30002003200c108de00e3
:1015d0000402e800f107b200f30f20000320e1004d
:1015e00003003d004722dd00810072002900370022
:1015f00001f827000000eb00260037006000b8006b
:1016000000000600680212007f20e10002003400a2
:101610006000b8001f0037006011b8007020e100c2
:101620000400350080017800010078008000eb00a4
:10163000700252000400e00009003400f0031200c0
:101640000719dd008419de000703dd0086817100c3
:101650000400de00070bdd00060070008408de00d9
:10166000f7ff2700838363008703710006002800cb
:1016700003036300070032000700e00003003a00a4
:101680006101600002817300020032001000b000ae
:101690000180b0000500a6000000060001f0a000d7
:1016a000000006004f0ade004709de00f107b20025
:1016b000f20fb2000b003200f207b1000170a0007f
:1016c000c708dd00c901de00838070004700dd002f
:1016d0000400a6000000060060001000e080180072
:1016e00000000600810f700001003a0000000600b3
:1016f0008182cf000500e00010003e008082cf0014
:10170000ee8242007028e1000400390007003e002c
:10171000800078000000eb000e003700708312009c
:101720008600de000500dd000a00370070835200ed
:101730008600dd000000eb0006003700e282520068
:101740008508dd00708312000603de0086807000cd
:101750000500dd007507b0000501ea000400a600e1
:101760000000060060001000e08018000000060085
:10177000889fbe008a9fbe00841f78007c000700ff
:101780004f00780011003300f0ff2f00838f6c00b2
:1017900006003b00040565000a00a70008003700aa
:1017a00009f0a6001000200008003700820f540046
:1017b000838f5c00030039001000200001003e0010
:1017c0000000200009f0a7000000ea004f05be005d
:1017d0004f04be000000e00000000600881f7800f3
:1017e000030478000300e00007003d0060001000e3
:1017f000e080180060011900e081190002003b0040
:1018000001f02d00030037000400070008f0a700d6
:1018100001f0a0004f04780000000600889fbe0081
:101820008a9fbe0000827000040271000482710071
:10183000260032000004be000200be006011b800a5
:101840006b092000950220000182cf000a003900b8
:101850000541b1000082cf00070039000541b10009
:101860000982cf00040039000541b1000882cf0091
:10187000010039000541b10005425200120032005a
:101880000a003b0082817100610164008100d10087
:101890000080d3008984d3000884d3008b05e8003e
:1018a0000442e800f7ff3a0007003700080444004c
:1018b00089844c0000004800818048008b05e900c5
:1018c0000442e900f9ff3a00030007004f05be009b
:1018d0004f04be000000060081002000618055001a
:1018e0000b003d000b00200061fe2f000100e10015
:1018f0001d00340082817100610164008904d100ff
:101900000884d3000000e800faff3a0071002000cc
:1019100061006400030070000200600009003200f2
:1019200061044400e0844c000988a50005003200f1
:101930008b05e8006808e10002003a008904d10044
:101940000884d300f20f20000258e10005003d009a
:10195000c75ddd00f907b2008980750008007800d6
:10196000000006000bf827008b007800000005003f
:101970000004be0014fc07000003be000405be0006
:101980000200be0010fc0700844f75000000060036
:101990004f02b000889fbe008a9fbe008c9fbe0091
:1019a0008e1f78000005be000204be00b2af9f008b
:1019b000c3af9f00b2b79f00c3b79f00cfae9700e1
:1019c0000df0a10002067800e00f5600e08f5e00e7
:1019d000c3033200faaf9f008bb79f0000002000c6
:1019e00001f82300800f5500818f5d00bc03320099
:1019f0008fb2970005f0a1007faa970094b79f00cf
:101a0000a5b79f000000200001f82700800f5200ba
:101a1000818f5a0003003c00800f5600818f5e00ca
:101a2000040034000a01be000800be0004fc0700e8
:101a3000b20337006033b8007fa997008fb19700d9
:101a4000e00f5100e08f590029003d0026002000e2
:101a500007002000f0ff2f00f1b72400800f560090
:101a6000818f5e0022003c006033b800f0ff2f0041
:101a7000f1f72300800f5600818f5e0033003400a1
:101a800047e8de00cfe8de00f007b1000180b100da
:101a9000770110000c00be00820178008301e9008c
:101aa000030033008180d1000080d300fbff3700aa
:101ab0000003be00020778000e07e90003003300b0
:101ac0000603430087834b00fbff37000601be007f
:101ad0006033b8008c0f51008d8f59001b003a0005
:101ae0006103600062031300e0831b0017003700ee
:101af0000000200001f82700800f5600818f5e0053
:101b000012003a000000200001f82300800f52006c
:101b1000818f5a0072033200060034003fb09700f4
:101b2000cfb09700e00f5000e08f580074033d00e5
:101b30006e0337003fb19700cfb19700e00f51001f
:101b4000e08f590069033d00690037000000200064
:101b500001f82300800f5600818f5e0009003a00d3
:101b60003fb29700cfb29700e00f5200e08f5a00cb
:101b700060033d000a01be000000200001f82300c0
:101b80005500370000002000010024003fb19700fd
:101b9000cfb19700800f5100818f590003003a00a8
:101ba0000a01be000a00be004b03370000002000ff
:101bb00001f023003fb19700cfb19700800f510093
:101bc000818f590008003a007fa897008fb09700d6
:101bd000e00f5000e08f5800030035000a00be00ff
:101be00078030700450337000a00be00f4b79f00e2
:101bf00085bf9f00d6b79f00e7b79f00fb03070094
:101c00000200200003f827007fb297008fba9700e8
:101c10005fb39700efb39700820f5200838f5a0093
:101c200008003200e00f5200e08f5a000500320039
:101c30000200200003f82300820f5200838f5a0015
:101c40002d003a003fb19700cfb19700e00f51004f
:101c5000e08f59000c003d000001be000000200094
:101c600001f82300f4b79f0085bf9f00d6b79f00ff
:101c7000e7b79f0057fc07007fb297008fba970025
:101c80005fb39700efb397007fa997008fb19700dc
:101c9000e00f5100e08f590018033d0002002000c2
:101ca00003082c00040241008582490004027300ed
:101cb00085827300e00f5200e08f5a0008003a005e
:101cc00012022000929088000001be000200be00b7
:101cd00052fb07000001be003efc0700070337006f
:101ce000e10f5300e08f5b0004033a000004be00e4
:101cf00009f0a200020337007fa997008fb1970077
:101d0000e00f5100e08f59000d003d00e00f53003f
:101d1000e08f5b0004003a001002200090908800e1
:101d20000a01be00e9ff3700e10f5300e08f5b00be
:101d3000080032000600200007f8230007003700e3
:101d40000200200003f82300f2af9f0083b79f003a
:101d5000040037000600200007f82b00f6af9f00b4
:101d600087b79f000200200003d02400820f560096
:101d7000838f5e005600340072ff2f00f3f72300bc
:101d8000820f5200838f5a0006003c003fb097003c
:101d9000cfb09700e00f5000e08f580007023d00e1
:101da000e50137007200200003f82300820f520083
:101db000838f5a00060034003fb19700cfb19700df
:101dc000e00f5100e08f5900db013c00fb013700c0
:101dd0000200200003f8230010fb07000005be00ee
:101de00002a02a0083fb2300d9fc070090b79f00c4
:101df000a1b79f0002572a00c36e23000a00be004d
:101e0000d3fc07000002be000a01be000a00be00ab
:101e1000f4b79f0085bf9f00cdfc07000006be0001
:101e20000200200003e823000a00be00c8fc0700ef
:101e30000001be00b0aa2a00a1ea2300f7fa0700b9
:101e40000001be000a00be00c1fc07000001be0088
:101e50000000200001f02300f0fa07000001be009e
:101e60000c00be00bafc0700b2a32a0083fb2300cb
:101e7000b7fc07000001be007fb297008fba970041
:101e80000400be00e5fa07000005be000001be0028
:101e90001fb09700afb09700e9fa07000001be003d
:101ea0008300780004002f00020062000003be00df
:101eb000b6b79f00c7b79f001fb19700afb197009b
:101ec000d6fa07000001be000a00be005901370023
:101ed0006011b800f6ff2f00f7072000860f5200b0
:101ee000878f5a0007003c000200200003b824003e
:101ef00097fc070090b79f00a1b79f0082fe2f00bc
:101f0000f3ff2f00f207b1000380b1002fb297005a
:101f100047a0de0084027800cfa8de000203400064
:101f20008383480096af9f00a7af9f00850078008d
:101f3000f107b2001fb097000200200003f8230051
:101f4000020270008382700094b79f00a5b79f00c3
:101f50006033b800d6af9f00e7af9f0012472c0058
:101f6000c3012000820f5000838f58001a003400f4
:101f70001200200003002000d2af9f00e3af9f00bb
:101f8000623d2b00d3052000820f5000838f580044
:101f9000110034001faa9700afaa97006102420007
:101fa000e0824a0094af9f00a5af9f000000200090
:101fb00001f82f001fb39700afb39700060340004e
:101fc0008783480096b79f00a7b79f006000b800be
:101fd000d0af9f00e1af9f00dfa89700c208dd00ef
:101fe00081af9f00a01f2100010040001005780074
:101ff000900590000a01be001fb09700afb0970097
:1020000086fa07000006be000a01be001fb0970056
:10201000afb097008afa07000001be000000200060
:1020200001f823006bfb07000002be000001be00a8
:102030000c00be00f4b79f0085bf9f0044fc070062
:102040000003be000e002f0081017800c3b79f007f
:1020500000016700b2b79f005fa89700efa8970044
:10206000c500dd0000002000d0af9f00e1af9f0061
:1020700000002000010420005fa99700efa997004d
:102080000201400083814800d2af9f00e3af9f0070
:102090001fb09700afb097008181d1000081d300bd
:1020a0008300780001d0a1000200670001d0a000e9
:1020b0005fa99700efa997000201400083814800c3
:1020c000d2af9f00e3af9f005fa99700efa99700f1
:1020d0003fb09700cfb09700d6b79f00e7b79f00fb
:1020e0001bfc07000001be000c00be004bfa0700fd
:1020f0000006be000a01be005fa89700efa8970087
:1021000046fa07000001be001fb09700afb097006d
:1021100042fa07000001be003fb09700cfb0970021
:102120000bfc07000001be000c00be003bfa0700dc
:102130000001be007fb297008fba97000400be0076
:1021400003fc07000006be005fb39700efb39700e3
:102150000601be000600be00fdfb07000005be0034
:102160000001be00fafb07000002be0022142f008f
:1021700033e523000a00be00f4b79f0085bf9f002f
:10218000f3fb070052252300c3e623002cfa0700c7
:102190000001be000a00be00edfb070052302a001d
:1021a000b3e8230026fa07000001be000a00be00c3
:1021b000e7fb0700b2aa2a00a3ea230020fa0700df
:1021c0000001be000a00be00e1fb070072db260032
:1021d000b3ed23001afa07000001be000a00be009a
:1021e000dbfb0700a299290093f1230014fa0700f2
:1021f0000001be007fb297008fba97000400be00b6
:10220000d3fb07000005be005fb39700efb3970054
:102210000601be003fb09700cfb0970008fa070054
:102220000001be000c00be00c9fb07000001be009b
:102230000a00be0002fa070090b79f00a1b79f00f6
:102240003fb19700cfb197000200be00c0fb07006e
:102250000005be000200200003042400f8f9070076
:102260001fb19700afb19700f5f907008102780020
:10227000000267000401be003fb09700cfb0970096
:10228000f4b79f0085bf9f00b1fb0700b0b79f0068
:10229000c1b79f007fb297008fba97000401be00bc
:1022a0000c00be00aafb07000006be0002002000d2
:1022b000030424007fb297008fba97000400be0089
:1022c000d6f907000a01be00d4f907000001be00dc
:1022d0001fb09700afb09700d0f907005fb3970029
:1022e000efb397000601be0099fb07000001be0096
:1022f0000c00be00d2f907000005be000001be00c0
:102300003fb09700cfb09700cdf907008102780069
:10231000000267000200240063f723000400be00ef
:10232000f4b79f0085bf9f0089fb070090b79f000f
:10233000a1b79f00623c2200638f2b007fb2970001
:102340008fba97000400be0081fb07000006be00a4
:102350003fb19700cfb197007fb297008fba970037
:102360000400be00adf907000001be000a00be0077
:10237000aaf90700f284230063f7230074fb070027
:102380000001be000c00be00adf9070022202100b4
:102390008fab970007014100920190001201780075
:1023a000a7f90700d0af9f00e1af9f001fa89700db
:1023b000afa897007ff907000006be00a02021000b
:1023c0008fa9970003004000100578009005900049
:1023d0005fa99700efa997001fb09700afb09700d3
:1023e00097f907000a01be0095f907000c01be002d
:1023f00093f907000001be00830078000200670027
:102400000002be00b4b79f00c5b79f000c01be001c
:1024100082f907000a01be0080f907001fb197008a
:10242000afb197007df907000001be005fa89700db
:10243000efa8970079f907000005be00cfaa970022
:1024400000002f00bfab9700070260000401be0030
:102450000800be00f4b79f0085bf9f006ff907001a
:102460003fb19700cfb1970039fb07000006be00cf
:102470000a01be000800be0035fb07000001be00d7
:102480000c00be006ef907000004be003fb19700cb
:10249000cfb197007fb297008fba97000400be00bb
:1024a0002bfb07000005be00b0b79f00c1b79f001f
:1024b0000a01be000800be0061f907000006be0068
:1024c0000003be000000200001302400800f5600f1
:1024d000818f5e0018003c00800f5600818f5e00e7
:1024e0001d003a00c2a32a00833323000800be0067
:1024f000dcb79f00e7b79f0051f907000002be005c
:102500000a01be000c00be00f4b79f0085bf9f000b
:1025100042f907000001be007fb297008fba970012
:102520000400be00e5f807005fb39700efb3970023
:102530000000e00029003400a22c2f009314270093
:102540007fa897008fb0970001fb0700a22c2f00f7
:1025500093142700e00037008701780003f0a10002
:102560000c0178000000200061312400800f510030
:10257000818f590011003c000000200061312c00c7
:10258000800f5600818f5e0014003a000a01be00e1
:102590000c00be00dcb79f00e7b79f001ff90700e3
:1025a0000001be000800be00c2f807005fb397003c
:1025b000efb397000000e00008003c000226240072
:1025c00023da20007fa897008fb09700e0fa070079
:1025d0000226240023da2000bf003700870178009c
:1025e00003f0a100060178006022b800000020007e
:1025f00001f02300800f5100818f59003a00340010
:102600004798de0022f82f00000141000000200062
:10261000010820000201e900030033008180d1009d
:102620000080d300fbff37000000430081804b0097
:10263000010678008c01780003f0a100479ade00c3
:10264000cf9ade000401be00f207b1000380b100a2
:10265000b2b79f00c3b79f00f4ff2f00f50720001b
:10266000bfb197008301e900030033008582d100e8
:102670000482d300fbff37000482ea008582ea006f
:102680008501660000016200fd0720008d026600e2
:10269000000278000570a0003fb797007700170090
:1026a0000000e900030033008582d1000482d300da
:1026b000fbff3700e00f5300e08f5b0002003d009e
:1026c00060021200e0821a000a00be00f4b79f0008
:1026d00085bf9f00d1f80700b0b79f00c1b79f002a
:1026e0008fba97007fb297003fb19700cfb19700a4
:1026f0000800be00f4b79f0085bf9f00d0f8070018
:1027000081067800020028000006610002202700f0
:1027100013f323000c00be008dfa07000005be0075
:102720003fb19700cfb197000c00be00bbf8070087
:102730000001be000800be00b8f807008221270093
:1027400013f3230082fa07000004be00c2e82b0046
:10275000f35b23000c00be007dfa07000001be0001
:102760000800be00b6f807000006be000001be006b
:102770000a00be00b2f807000004be000a01be0055
:10278000a6f807000001be000c00be00a3f8070079
:10279000b0b79f00c1b79f000801be000800be008f
:1027a0006bfa07000005be00c2b42b0013332300f0
:1027b00067fa0700e2a02e00d35d230097f8070018
:1027c0000001be000a00be0061fa070052352b006e
:1027d000a38823009af807000001be000a00be008b
:1027e0005bfa070012b6200063b323008bf80700e2
:1027f0000001be000a00be0055fa0700b2aa2a0076
:10280000a3e223008ef807000001be000a00be000c
:102810004ffa07000001be000800be007ff8070065
:102820000005be000001be000800be0048fa070017
:102830000006be0002002000030024000a00be00c3
:1028400076f807000001be000c00be0061f9070029
:102850000005be003fb19700cfb197000800be0051
:102860003bfa07000001be003fb09700cfb09700d1
:1028700073f807000001be000a00be0067f80700f9
:102880000801be0065f807000001be00000020003e
:1028900001f8230061f807007fb297008fba970014
:1028a000c721dd00020020000201400083814800b2
:1028b000479bde00cf9bde00e00f5300e08f5b0004
:1028c00003003c0004017800140007000001be0072
:1028d0007fa897008fb097001dfa07000700370008
:1028e0000800200009f82300050037006044b80004
:1028f000030037000a04be00010037000004be00d8
:102900000800be004f0778004f06be004f05be000e
:102910004f04be004f02b10000000600889fbe00b9
:1029200002047800f9072000890f54000d003400dc
:102930000200200003f0270005fa0700f807b100a5
:10294000890f5400170034000200200003f0270014
:10295000fff90700f807b100890f540010003c0090
:102960001000370029f82f00890f54000d003d009a
:102970000200200003c82000f5f907006806b00037
:10298000890f540007003d000200200003c820000a
:10299000eff907006806b000890f540001003d0000
:1029a00009047800f207200008014100cf91de0001
:1029b000c711dd0002002000e5f907004f04be004a
:1029c00000000600889fbe008a9fbe008c9fbe004c
:1029d0000004be000400200005f827008583600085
:1029e00004037800840f5300858f5b0007003a00d2
:1029f0000801be000800be00d5f907000001be00b6
:102a00000800be000ef8070010003700e00f50006d
:102a1000e08f58000f003c008101780003f0a10016
:102a200000017800e00f5100e08f59006a00320089
:102a300010022000909088000801be000800be002f
:102a4000f6f707000001be00e2f807000004be0030
:102a500061003700478cde00cf8cde00e00f5400b1
:102a6000e08f5c000f003a006044b80004003700bb
:102a7000000040008180480061044400e0844c0074
:102a80000400200005082000818162000401780014
:102a9000e00f5100e08f5900f5ff3200610414008f
:102aa000e0841c00f807b1000980b10081017800c2
:102ab000f307b200000178000200be000170a00020
:102ac0000808a30002003200000040008180480096
:102ad0008984d1000884d300000040008180480030
:102ae0009401200002002000031020006055b8006f
:102af0006066b8000c0341008d834900800f5300cd
:102b0000818f5b0006003c00060641008786490075
:102b100006005000878058000a0541008b85490057
:102b200000004000818048008301d1000281d30071
:102b30000402e900efff3a00e00f5000e08f580078
:102b40001b0032000226240023da200000002000af
:102b500001f82300b1f707000200200003f823006a
:102b600056f707000000e00011003500022624009f
:102b700023da20000000200001f82300b0f707004e
:102b80000200200003f823004cf707000000e000db
:102b90000300340062054500e0854d000400370065
:102ba0006000b800610065000005450081854d00aa
:102bb000c744dd00080020000000200001f02300d1
:102bc00008044000898448008b85d1000a85d30021
:102bd0000804450089844d000800be004f06be0071
:102be0004f05be004f04be00000006000001be00fd
:102bf0008300780001f0a1000200780000000600c8
:020000040000fa
:102c00002000fa00881f7800c01c210010407800c6
:102c10000004a2000004e00048023a0020d0bf00f7
:102c20000004e0000600320012c0b3006000b800eb
:102c3000ff03070022c0b3006000b800fc030700d8
:102c40004f070700e10f500093003a0051070700bb
:102c500047070700100798001e009000100078003a
:102c60008000eb0056f707003233230033052400c1
:102c700037f90700020020000358240055f8070028
:102c800020079800310798002e019000be019000a7
:102c900000002000812024004ef8070002002000e0
:102ca000030a24005df70700408e8800518e8800db
:102cb0001e0090000080e800100078008000eb000b
:102cc0003ff70700323323003305240020f90700c3
:102cd00002002000035824003ef807002007980057
:102ce000310798002e019000be01900000002000e6
:102cf0008120240037f8070002002000030a240086
:102d000046f70700208e8800318e88001e00900054
:102d100064004000100078008000eb0028f70700f6
:102d2000323323003305240009f907000200200094
:102d30000358240027f8070020079800310798005f
:102d40002e019000be019000000020008120240090
:102d500020f8070002002000030a24002ff70700d4
:102d6000008e8800118e88001e00900066004000d2
:102d7000100078008000eb0011f7070032332300c9
:102d800033052400f2f80700020020000358240055
:102d900010f8070020079800310798002e019000d6
:102da000be019000000020008120240009f80700e7
:102db00002002000030a240018f70700e08d8800b5
:102dc000f18d88001e00900068004000100078001f
:102dd0008000eb00faf607003233230033052400ad
:102de000dbf807000200200003582400f9f7070071
:102df00020079800310798002e019000be01900036
:102e00000000200081202400f2f7070002002000cb
:102e1000030a240001f70700c08d8800d18d8800c7
:102e2000408e8000518e8000c7f607000040780079
:102e3000405f9800208e8000318e8000c2f607002f
:102e400000407800505f9800008e8000118e800056
:102e5000bdf6070000407800605f9800e08d8000bc
:102e6000f18d8000b8f6070000407800705f980090
:102e7000c08d8000d18d8000b3f60700004078003f
:102e8000006798007c004700000178005100200096
:102e900000032000dd0107000000eb00000f7800b8
:102ea00000002000011e24004007980051079800f0
:102eb00000002000011e24006007980071079800a0
:102ec000c08d8000d18d800018c0b3006e019000cd
:102ed000fe01900077f607000000e00001003400da
:102ee0000044eb000804e000020032009e0078007d
:102ef000708f4000e08d8000f18d800018c0b3001d
:102f00004e019000de0190006af607000000e0002c
:102f1000010034000044eb000804e000020032002d
:102f20009e007800688f4000008e8000118e800027
:102f300018c0b3004e019000de0190005df607005e
:102f40000000e000010034000044eb000804e00051
:102f5000020032009e007800648f4000208e8000c6
:102f6000318e800018c0b3004e019000de01900049
:102f700050f607000000e000010034000044eb00c0
:102f80000804e000010032001e8fe800408e80003f
:102f9000518e800018c0b3006e019000fe019000b9
:102fa00044f607000000e000010034000044eb009c
:102fb0000804e000010032001e0fe80000002000bd
:102fc000011c2400000f9800110f98006000b80049
:102fd000200f9800310f980000002000010a2c00fb
:102fe000400f9800510f9800e08d8000f18d800017
:102ff00018c0b30002002000831924002df607003a
:103000000000e000010034000044eb000804e00090
:1030100022003200208e8000318e800018c0b30064
:10302000020020008319240022f607000000e000bf
:10303000010034000044eb000804e00017003200f7
:103040000e0990009e09900000002000011024004d
:1030500072f6070012c0b300f5020700020020005c
:10306000031024000e0890009e0890006bf60700e5
:1030700022c0b300ee020700d01c210011c0b30033
:103080000148780010002000808e8800e01c21009c
:1030900011c0b30001487800290137001e007800f4
:1030a0000000e00002003a000000eb00000f780092
:1030b0001e007800e10f500002003a0010002000ce
:1030c000000f78001e007800e20f500002003a0066
:1030d00020002000000f78001e007800e30f500051
:1030e00002003a0020002000000f78001e00780047
:1030f000e40f500002003a0040002000000f78006a
:103100001e007800e50f500002003a00a0002000e9
:10311000000f78001e007800e60f500002003a0011
:10312000a0002000000f78001e007800e70f50007c
:1031300002003a00a0002000000f78001e00780076
:10314000e80f500002003a0080002000000f7800d5
:103150001e007800e90f500002003a00a000200095
:10316000000f78001e007800ea0f500002003a00bd
:10317000c0002000000f78001e007800eb0f500008
:1031800002003a00a0002000000f78001e00780026
:10319000ec0f500002003a00c0002000000f780041
:1031a0001e007800ed0f500002003a00a000200041
:1031b000000f78001e007800ee0f500002003a0069
:1031c000a0002000000f78001e007800ef0f5000d4
:1031d00002003a00a0002000000f78001e007800d6
:1031e000f00f500002003a0090002000000f78001d
:1031f0001e007800f10f500002003a000000eb00c2
:10320000000f78001e007800f20f500002003a0014
:10321000a0002000000f78001e007800f30f50007f
:1032200002003a00a0002000000f78001e00780085
:10323000f40f500002003a00c0002000000f780098
:103240001e007800f50f500002003a00c000200078
:10325000000f78001e007800f60f500002003a00c0
:10326000c0002000000f78001e007800f70f50000b
:1032700002003a00a0002000000f78001e00780035
:10328000f80f500002003a0080002000000f780084
:103290001e007800f90f500002003a00c000200024
:1032a000000f78001e007800fa0f500002003a006c
:1032b000c0002000000f78001e007800fb0f5000b7
:1032c00002003a00c0002000000f78001e007800c5
:1032d000fc0f500002003a00c0002000000f7800f0
:1032e0001e007800fd0f500002003a00c0002000d0
:1032f000000f78001e007800fe0f500002003a0018
:10330000c0002000000f78001e007800ff0f500062
:1033100002003a00c0002000000f78001e00780074
:10332000e80f500047003200e80f50000c003c004e
:10333000e10f50001f003200e10f500003003c007d
:103340000000e0000f0032007d003700e20f500067
:1033500024003200e40f50002e00320078003700c5
:10336000ea0f50004f003200ea0f500041003500d4
:10337000ec0f50005a003200f40f5000670032008a
:103380006f00370012c0b3000e0890009e08900036
:10339000270207000200200003f823000e08900017
:1033a0009e0890009df5070022c0b3002002070090
:1033b0006300370002002000031024000e08900074
:1033c0009e08900095f5070012c0b3001802070090
:1033d00022c0b3002e089000be089000140207001f
:1033e0005700370002002000031024000e08900050
:1033f0009e08900089f5070012c0b3000c02070078
:1034000022c0b3004e089000de08900008020700ba
:103410004b00370002002000031024000e0890002b
:103420009e0890007df5070012c0b300000207005f
:1034300022c0b3004e089000de089000fc01070097
:103440003f00370012c0b3004e089000de08900025
:10345000f701070002002000031024000e0890006e
:103460009e0890006df5070022c0b300f001070030
:103470003300370012c0b3002e089000be08900041
:10348000eb01070002002000031024000e0890004a
:103490009e08900061f5070022c0b300e401070018
:1034a0002700370002002000031024000e089000bf
:1034b0009e08900059f5070012c0b300dc01070018
:1034c0000e0990009e0990000000200001102400c9
:1034d00052f5070022c0b300d501070018003700dd
:1034e0000e0990009e0990000000200001102400a9
:1034f0004af5070012c0b300cd010700020020000a
:10350000031024000e0890009e08900043f5070069
:1035100022c0b300c60107000900370012c0b30083
:103520006000b800c201070022c0b3006000b8000c
:10353000bf0107000000000001003700000000008c
:103540004f0478000080fa00000006000a00fa002c
:103550002007980031079800420798000040eb00d0
:10356000004f7800e0cfb3001e4f68002e0090009f
:103570004880de00804078001e40780000c068006f
:10358000004f78002e009000804078001e407800a8
:1035900000c06800004f78003e0090004880de00c8
:1035a000804078001e40780000c06800004f78001e
:1035b0003e009000804078001e40780000c0680007
:1035c000004f78000000eb0010079800080037005b
:1035d0001e009000ce009000008040001040780057
:1035e0001e4f68001e0090000000e80010079800c1
:1035f0009e0090003e009000808f5000f4ff350048
:103600001e4078000080fa00000006000e00fa005c
:10361000889fbe00400798005107980062079800f5
:103620000f0478000f007800800478005e0090009e
:10363000660040008000e900110798000000e800e3
:103640000000e8000000d100800040000f0078007a
:10365000818747000000e8000000d1000000400022
:10366000200798002e009000e1cfb30001487800b9
:103670004e0090004880de00804078002e009000d0
:10368000114098004e009000804078002e0090007d
:10369000214098005e0090004880de008040780065
:1036a0002e009000314098005e009000804078002d
:1036b0002e0090004140980050002000000f78003c
:1036c000090037001e00780065005000ee009000f1
:1036d00000804000904078002e0090001e004000c6
:1036e000014878001e0fe8005e0090006500400071
:1036f0009e0f5000f3ff3c006e019000de00900032
:103700004e00900091ff0700604798005e00900017
:1037100065004000ee4090002e0190000000410046
:10372000014878005e009000e60040002e00900006
:103730005303070089077800880778004f04be000c
:103740000080fa00000006000c00fa003007980024
:103750004107980052079800e00f2000000f780002
:103760003e0090004880de001e0f68003e00900082
:103770001e0f68004e0090004880de001e0f68009b
:103780004e0090001e0f68000000eb00100798002c
:103790000f0037001e009000de0090000080400007
:1037a000104078000080fb00200798001e00900069
:1037b000de00900000804000104078000080fb0098
:1037c0001e0f68001e0090000000e800100798001f
:1037d0009e0090004e009000808f5000edff35005d
:1037e0001e0078000080fa00000006000800fa00c1
:1037f0001007980021079800320798009e0090005b
:1038000000022000808f500072003a003e009000bd
:103810000000e800104078000080fb00000f7800f6
:103820003e0090000000e8009040780010c3b30014
:1038300080cf500010003a003e0090000080e80069
:103840009040780010c3b30080cf500002003a00cf
:10385000052ea8005f0037003e0090000080e800c1
:103860009040780000c3b30080cf500059003a0068
:10387000052ea900570037003e0090000000e80028
:103880009040780020c3b30080cf500010003a0071
:103890003e0090000080e8009040780010c3b30024
:1038a00080cf500002003a0095eea8004900370092
:1038b0003e0090000080e8009040780000c3b30014
:1038c00080cf500043003a0095eea9004100370038
:1038d0003e0090000000e8009040780030c3b30044
:1038e00080cf500010003a003e0090000080e800b9
:1038f0009040780010c3b30080cf500002003a001f
:10390000054ea800330037003e0090000080e8001c
:103910009040780000c3b30080cf50002d003a00e3
:10392000054ea9002b0037003e0090000000e80083
:103930009040780040c3b30080cf500010003a00a0
:103940003e0090000080e8009040780010c3b30073
:1039500080cf500002003a00746ea8001d003700ae
:103960003e0090000080e8009040780000c3b30063
:1039700080cf500017003a00746ea9001500370080
:103980003e0090000000e8009040780000c3b300c3
:1039900080cf50000f003a003e0090000080e80009
:1039a0009040780010c3b30080cf500002003a006e
:1039b000040ea800070037003e0090000080e800d9
:1039c0009040780000c3b30080cf500001003a005f
:1039d000040ea9009e00900000042000808f50007b
:1039e00000003a000080fa00000006000200fa0021
:1039f000004f780040808000e30f50002600320026
:103a0000e30f500005003e00e10f500011003200ae
:103a1000e10f500017003e0007003700e50f50008f
:103a200032003200e50f500021003900e60f50004f
:103a30003d003200520037000830ef001e40780091
:103a4000e24f400049003a0010002000408088000a
:103a50004b0037001e80fb00c800dd001080800096
:103a60000100700010808800200020004080880045
:103a7000430037009e80fb00108080000100700032
:103a800010808800108080001080880030002000a6
:103a9000408088003a0037001e80fb004800dd00af
:103aa00020808800400020004080880034003700db
:103ab0009e80fb0020808000010070002080880034
:103ac0002080800020808800208080000000e000ae
:103ad0000300340050002000408088002800370098
:103ae0006000200040808800250037003080800082
:103af0000000e800308088003080800061122100e2
:103b0000008040001e4878003180800020808000c6
:103b1000808f5000170035000630ef006000200055
:103b200040808800160037002180800010808000cf
:103b30006212210004ff07000040780000f0b70087
:103b400000d0bf009e4f50000c003a000830ef003c
:103b500021808000108080006212210023ff070076
:103b60000230ef000430ef000500370000000000d5
:103b700003003700000000000100370000000000d3
:103b80000080fa00000006000000fa0011608000ca
:103b900080ff2f00008060001060880000962000e9
:103ba000206088001161800000c0200001007000ca
:103bb0001061880023cca80023eca800300020006e
:103bc000206188001162800000c0200001007000a8
:103bd0001062880043cca80043eca800300020000d
:103be000206288001163800000c020000100700086
:103bf0001063880063cca80063eca80030002000ac
:103c0000206388001164800000c020000100700063
:103c10001064880083cca80083eca800300020004a
:103c20002064880001eca8000080fa000000060073
:103c30000600fa00008fbe00424798004e409000f8
:103c4000e14f500005003a001e0178009e019000ef
:103c5000828d8800938d8800050037001e00780053
:103c60009e00900001f0a200408d8800518d8800d8
:103c70000080fa00000006000000fa00889fbe00e5
:103c8000a48d8000b58d8000808d8000918d800096
:103c900018c0b3000001be000400be0005f3070019
:103ca0000000e000010035000044eb000804e000e3
:103cb0000d003200888d8000998d8000a48d8000d9
:103cc000b58d800050808000618080000001be00c2
:103cd0000400be005af307000801be007e01070081
:103ce000a08d8800b18d8800a48d8000b58d8000e6
:103cf000808d8000918d800018c0b3000001be004f
:103d00000400be00edf207000000e00001003c00ee
:103d10000044eb000804e0000d003200888d8000b4
:103d2000998d8000a48d8000b58d8000508080002a
:103d3000618080000001be000400be0037f3070070
:103d40000801be004c010700a08d8800b18d8800dd
:103d5000a08d8000b18d800018c0b3006011b80044
:103d6000d6f207000000e00001003d000044eb0037
:103d70000804e00014003200a08d8000b18d8000a6
:103d800002002000031c2400f1f407000002be0022
:103d900070808000818080000001be000400be00b1
:103da00027f30700e8f20700000078003061880080
:103db0007080800081808000e3f2070000007800be
:103dc000706188001400370070808000818080005e
:103dd000ddf207000000780030618800a08d8000cf
:103de000b18d800001f0a20002002000031c24001d
:103df000d7f407000002be00708080008180800040
:103e00000001be000400be000df30700cef2070063
:103e10000000780070618800648d8000758d8000de
:103e2000408d8000518d800018c0b3000001be009d
:103e30000400be009ff207000000e0000100350012
:103e40000044eb000804e0000d003200488d8000c3
:103e5000598d8000648d8000758d800050808000b9
:103e6000618080000001be000400be00f4f2070083
:103e70000801be0018010700608d8800718d880060
:103e8000648d8000758d8000408d8000518d800094
:103e900018c0b3000001be000400be0087f2070096
:103ea0000000e00001003c000044eb000804e000da
:103eb0000d003200488d8000598d8000648d800097
:103ec000758d800050808000618080000001be0000
:103ed0000400be00d1f207000801be00e6000700a2
:103ee000608d8800718d8800608d8000718d8000ec
:103ef00018c0b3006011b80070f207000000e000c5
:103f000001003c000044eb000804e0001400320013
:103f1000608d8000718d800002002000031c240051
:103f20008bf407000002be0070808000818080005a
:103f30000001be000400be00c1f2070082f20700cb
:103f400000007800306288007080800081808000ee
:103f50007df20700000078007062880014003700ce
:103f6000708080008180800077f207000000780078
:103f700030628800608d8000718d800001f0a200a9
:103f800002002000031c240071f407000002be00a0
:103f900070808000818080000001be000400be00af
:103fa000a7f2070068f2070000007800706288003e
:103fb0004f04be000080fa00000006000400fa0072
:103fc000881f7800008fbe0021088000f0fc2f00c1
:103fd00000806000200888001e0178009e0190008b
:103fe000001c2e0041c624007af3070018c0b3005d
:103ff00002f02f00f377240030f207000000e00009
:1040000001003c000044eb000804e00054003200d2
:1040100021088000f0fc2f00008060000040a0001c
:10402000200888001e0178009e019000001c2e00d0
:1040300041c6240067f3070002002000031024009b
:1040400064f3070018c0b30002f02f00f3772400d8
:104050001af207000000e00001003c000044eb0001
:104060000804e0003200320021088000f0fc2f003c
:10407000008060000050a000200888001e01780029
:104080009e019000001c2e0041c6240051f3070041
:1040900002002000032824004ef3070018c0b300dc
:1040a00002f02f00f377240004f207000000e00084
:1040b00001003c000044eb000804e0001000320066
:1040c0002108800000032000010070002008880003
:1040d0001e0178009e019000001c2e0041c62400a5
:1040e0003cf30700020020000338240039f30700e6
:1040f000f4f1070000007800100888002000370065
:104100001e0178009e019000001c2e0041c6240074
:1041100030f3070002002000032824002df30700dd
:10412000e8f107000000780010088800140037004c
:104130001e0178009e019000001c2e0041c6240044
:1041400024f30700020020000310240021f30700dd
:10415000dcf1070000007800100888000800370034
:104160001e0178009e019000001c2e0041c6240014
:1041700018f30700d3f1070000007800100888004a
:104180004f0478000080fa00000006000000fa00ea
:1041900005e1a90000002400c159240087ff0700a1
:1041a0000421a9000068a9002068a80005e1a80072
:1041b0000080fa00000006000000fa0013e1a900e8
:1041c00011e1a9001061a8001021a9008108800058
:1041d000f0fc2f00008060000050a00080088800e4
:1041e0000a21ef000621ef00e0002000700888009f
:1041f000c0e12400600888002142800080ff2f0079
:10420000008060000000a000204288000108a90092
:104210002108a80011e1a8000080fa0000000600b3
:104220000400fa00881f7800008fbe0018c0b30099
:104230006011b8001e0078009e0090009ff10700fa
:104240000000e00001003d000044eb000804e00035
:10425000030032001e0078009e009000030037002b
:104260001e0078009e00900001f0a2004f0478002c
:104270000080fa00000006000800fa00881f78009d
:10428000008fbe00220798003307980018c0b300c3
:104290002e019000be0190001e0078009e0090004c
:1042a00086f107000000e00001003c000044eb0044
:1042b0000804e000030032001e0078009e00900019
:1042c000020037002e009000be0090004f047800de
:1042d0000080fa00000006000800fa00881f78003d
:1042e000008fbe00220798003307980018c0b30063
:1042f0002e019000be0190001e0078009e009000ec
:104300006cf107000000e000010035000044eb0004
:104310000804e000030032001e0078009e009000b8
:10432000020037002e009000be0090004f0478007d
:104330000080fa00000006000c00fa00881f7800d8
:10434000008fbe00220798003307980044079800aa
:104350005507980018c0b3004e019000de01900090
:104360001e0078009e00900054f107000000e0005d
:1043700001003c000044eb000804e00004003200af
:104380004e019000de019000028fbe000e0037004b
:1043900018c0b3002e019000be0190001e007800ee
:1043a0009e00900043f107000000e000010035008e
:1043b0000044eb000804e000030032002e019000ee
:1043c000be019000028fbe001e0078009e0090008b
:1043d0004f0478000080fa00000006000400fa0094
:1043e000008fbe00b2fd2000930424001e00780060
:1043f0009e00900077f20700020020004333240063
:1044000053f307000080fa00000006000400fa00e1
:10441000008fbe00b2fd2000930424001e0078002f
:104420009e0090004af3070002002000433324005e
:1044300068f207000080fa00000006000200fa009f
:10444000000f78001e007800cf80de0059f10700d1
:10445000c2f5280023f92b004df5070002002700c4
:10446000035424003af307000080fa00000006001d
:104470000000fa0016d0bf000080fa00000006001d
:104480000600fa0010079800210798000040eb0092
:10449000004f780050000700ae009000810f5000e0
:1044a000110034000040eb00004f78000600370098
:1044b0001e80fb009e0090000080400010407800ad
:1044c0000b0007001e4fe8009e80fb002e009000ae
:1044d000808f5000f6ff3500e5ff07000004e00084
:1044e00001003a00220007000080fa0000000600e8
:1044f0000200fa00004f7800a080800061022100d5
:10450000008040001e487800a1808000f007200055
:10451000808f5000010034001430ef00a080800034
:104520000000e800a08088000080fa00000006007b
:104530000000fa00908080000000e8009080880071
:1045400091808000f0072000808f5000010034002f
:104550001230ef00908080000000e900610221002d
:1045600000804000104078000080fa000000060043
:104570000200fa0010c0b30016f0b700ecff07000d
:10458000004f78001e80fb00a01188000080fa0018
:10459000000006000200fa00a180800090808000e8
:1045a000008f5000a180800090808000808f50009c
:1045b00006003d00908080000108200080805000af
:1045c000a080800000804000010037001e007800bd
:1045d0000080fa00000006000200fa00edff07006c
:1045e00001082000008f50001e0078000080fa00b3
:1045f000000006000400fa00881f7800530007003e
:104600009f0107009c000700e0fe0700eafe07008c
:104610005dfd07006601070084aea800856ea80056
:10462000754ea800c01c210011c0b30001487800dd
:104630000000eb00000f780008003700f1000700d1
:10464000204798002e409000e8fc07000e80e8000c
:10465000110020008aff07001e0fe8000301070079
:104660009e0f5000f5ff3c00208e8000318e8000b0
:1046700018c0b30002002000031a24008df00700c8
:104680000000e000010035000044eb000804e000f9
:104690000200320084aea8000100370084aea900f9
:1046a000008e8000118e800018c0b3000200200030
:1046b000031a24007ff007000000e000010035002d
:1046c0000044eb000804e00002003200848ea800e1
:1046d00001003700848ea900e08d8000f18d8000fc
:1046e00018c0b30002002000031a240071f0070074
:1046f0000000e000010035000044eb000804e00089
:1047000002003200856ea80001003700856ea90006
:10471000c08d8000d18d800018c0b3000200200041
:10472000031a240063f007000000e00001003500d8
:104730000044eb000804e00002003200754ea800bf
:10474000bbff3700754ea900b9ff37000000fa0023
:10475000413a800000fc2f00008060007001b3002f
:10476000403a8800313a800000e02f0080806000ed
:104770008005200001007000303a8800213a800056
:10478000f0f32f0000806000203a8800213a80007a
:1047900000fe2f00008060000000a000203a88008a
:1047a0001200200080072000a1092000337420009f
:1047b000804978008149780082497800103a800069
:1047c000000178000200a0006004200071052000b4
:1047d000237420008049780081497800824978005c
:1047e00000000000113a8000000027008080600077
:1047f00000002100808f5000faff3a005927a800de
:10480000c13a800080ff2f00008060000000a000ff
:10481000c03a8800d03a80007000b300d03a8800d7
:10482000c13a8000f0f12f0080806000000c200071
:1048300001007000c03a880059a7a80059e7a800f5
:1048400000000000c13a80000000240000806000e9
:104850000000e000fbff320000000000113a800081
:1048600000022000008060000000e000fbff32003a
:104870000080fa00000006000000fa0021e3a90011
:104880002143a80001198000f0cf2f0000806000b4
:10489000001988002043a90001198000000e2000a3
:1048a000010070000019880011198000f0ff21003c
:1048b00000806000101988002343a80011198000af
:1048c000f0cf2f00008060001019880011198000bf
:1048d00030f82f00008060000040a0001019880010
:1048e0002203a9002223a90025e3a900f0c0b300f8
:1048f00024e3b70021198000f00f2e0080806000b3
:1049000000f0200001007000201988003303a90086
:104910001f2ea8001f4ea8001e0ea8001f0ea800e4
:104920001f6ea8003123a8003143a8003003a8005f
:104930003103a8003163a8004119800000fe2f0058
:10494000008060004019880028e3a90001a8a900a0
:1049500021a8a80021e3a8000080fa0000000600ba
:104960000000fa002023a8000080fa0000000600e2
:104970000000fa00201d21000080fa00000006005f
:104980000000fa0023d0bf000080fb000080fa0086
:10499000000006000000fa002370ef000080fa001b
:1049a000000006000000fa001c30ef001e30ef008f
:1049b0000080fa00000006000200fa00004f7800b4
:1049c0003a0007000000e0000c003400f180800095
:1049d000f0072000808f5000010034001e30ef00ef
:1049e000f0808000610a2100008040001e487800ad
:1049f000f08080000000e800f08088000080fa006d
:104a0000000006000200fa00e1808000f0072000ac
:104a1000808f5000010034001c30ef00e0808000e7
:104a2000610a210000804000104f7800e080800083
:104a30000000e800e08088001e4078000080fa0056
:104a4000000006000000fa00e1808000f080800095
:104a5000808f50000200320010c0b3000100370008
:104a60000040eb000080fa00000006000000fa00a1
:104a7000f1808000e0808000808f500006003d00c3
:104a8000e08080000108200080805000f0808000dd
:104a90000080400003003700f1808000e08080004b
:104aa000008050000080fa00000006000200fa00ba
:104ab000eeff070001082000008f50001e00780064
:084ac0000080fa00000006006e
:020000040000fa
:104ac8001810000004000000800000002010000002
:104ad800020000008200000001000000a611000092
:104ae8002c000000800000000a10000008000000f0
:104af80082000000333333003f00000048420000ca
:104b0800d2110000280000008000000022100000e0
:104b18000200000080000000261000008000000055
:104b28008000000012100000060000008000000055
:104b3800a610000080000000800000001c1000008b
:104b48000400000080000000261100008000000022
:104b580080000000001000000a0000008000000033
:104b6800241000000200000080000000fa1100007c
:104b78001800000082000000000080003f000000d4
:104b8800c03f000000000000dccfd100350000006d
:104b980000000000c0153f001212000002000000d3
:084ba800800000000000000085
:020000040000fa
:104bb0000000fa003002a9008111800090ff2f0050
:104bc000008060008011880030a2a9003062a80037
:104bd00010082000c011880033a2a90033e2a90008
:104be00003e8a90023e8a80091118000f0f32f004a
:104bf000008060009011880003c8a90023c8a800a5
:104c000031e2a8003342a8000080fa00000006004c
:104c10000600fa0010079800210798000040eb00fa
:104c2000004f78000040eb00004f78000e00370086
:104c30000000000091118000002020000080600032
:104c40000000e000fbff3a001e00900010407800da
:104c50000080fb00a01188001e0090000000e8000a
:104c6000100798001e4fe8009e80fb002e00900069
:104c7000808f5000eeff35000080fa000000060033
:104c80000000fa000e2eef001e2eef003e2eef0069
:104c90002e2eef004e2eef006e2eef0080cea900dc
:104ca00091eea90080aea900000ea900808ea90097
:104cb000012ea900816ea900014ea900714ea90024
:104cc000706ea900160007003136800000f82f0032
:104cd000008060002001b3003036880081348000fd
:104ce00000fc2f00008060003000b300803488009a
:104cf000020007000080fa00000006000000fa0031
:104d0000217420006204200073052000824878008e
:104d10008348780042c7a8000080fa00000006001f
:104d20000000fa00217420006204200073052000b6
:104d3000824878008348780042c7a9000080fa00c2
:044d40000000060069
:020000040000fa
:0200000401f009
:04000800cfffff0027
:020000040000fa
:0200000401f009
:04000c00f9ffff00f9
:020000040000fa
:0200000401f009
:040010005bffff0093
:020000040000fa
:0200000401f009
:040014007fffff006b
:020000040000fa
:0200000401f009
:04001800cfffff0017
:020000040000fa
:0200000401f009
:04001c00deffff0004
:020000040000fa
:0200000401f009
:04002000cfffff000f
:00000001FF
