:020000040000fa
:080000000002040000000000f2
:020000040000fa
:040008001e040000d2
:020000040000fa
:04000c001e040000ce
:020000040000fa
:040010001e040000ca
:020000040000fa
:040014001e040000c6
:020000040000fa
:040018001e040000c2
:020000040000fa
:04001c001e040000be
:020000040000fa
:040020001e040000ba
:020000040000fa
:040024001e040000b6
:020000040000fa
:040028001e040000b2
:020000040000fa
:04002c001e040000ae
:020000040000fa
:040030001e040000aa
:020000040000fa
:0400340002030000c3
:020000040000fa
:040038001e040000a2
:020000040000fa
:04003c001e0400009e
:020000040000fa
:040040001e0400009a
:020000040000fa
:040044001e04000096
:020000040000fa
:04004800360300007b
:020000040000fa
:04004c001e0400008e
:020000040000fa
:040050001e0400008a
:020000040000fa
:040054001e04000086
:020000040000fa
:040058001e04000082
:020000040000fa
:04005c00ce030000cf
:020000040000fa
:040060001e0400007a
:020000040000fa
:040064001e04000076
:020000040000fa
:040068001e04000072
:020000040000fa
:04006c001e0400006e
:020000040000fa
:040070001e0400006a
:020000040000fa
:040074001e04000066
:020000040000fa
:040078001e04000062
:020000040000fa
:04007c001e0400005e
:020000040000fa
:040080001e0400005a
:020000040000fa
:040084001e04000056
:020000040000fa
:040088001e04000052
:020000040000fa
:04008c001e0400004e
:020000040000fa
:040090001e0400004a
:020000040000fa
:040094001e04000046
:020000040000fa
:040098001e04000042
:020000040000fa
:04009c001e0400003e
:020000040000fa
:0400a0001e0400003a
:020000040000fa
:0400a400f203000063
:020000040000fa
:0400a8001e04000032
:020000040000fa
:0400ac001e0400002e
:020000040000fa
:0400b0001e0400002a
:020000040000fa
:0400b4001e04000026
:020000040000fa
:0400b8001e04000022
:020000040000fa
:0400bc001e0400001e
:020000040000fa
:0400c0001e0400001a
:020000040000fa
:0400c4001e04000016
:020000040000fa
:0400c8001e04000012
:020000040000fa
:0400cc001e0400000e
:020000040000fa
:0400d0001e0400000a
:020000040000fa
:0400d4001e04000006
:020000040000fa
:0400d8001e04000002
:020000040000fa
:0400dc001e040000fe
:020000040000fa
:0400e0001e040000fa
:020000040000fa
:0400e4001e040000f6
:020000040000fa
:0400e8001e040000f2
:020000040000fa
:0400ec001e040000ee
:020000040000fa
:0400f0001e040000ea
:020000040000fa
:0400f4001e040000e6
:020000040000fa
:0400f8001e040000e2
:020000040000fa
:0400fc001e040000de
:020000040000fa
:040100001e040000d9
:020000040000fa
:040104001e040000d5
:020000040000fa
:040108001e040000d1
:020000040000fa
:04010c001e040000cd
:020000040000fa
:040110001e040000c9
:020000040000fa
:040114001e040000c5
:020000040000fa
:040118001e040000c1
:020000040000fa
:04011c001e040000bd
:020000040000fa
:040120001e040000b9
:020000040000fa
:040124001e040000b5
:020000040000fa
:040128001e040000b1
:020000040000fa
:04012c001e040000ad
:020000040000fa
:040130001e040000a9
:020000040000fa
:040134001e040000a5
:020000040000fa
:040138001e040000a1
:020000040000fa
:04013c001e0400009d
:020000040000fa
:040140001e04000099
:020000040000fa
:040144001e04000095
:020000040000fa
:040148001e04000091
:020000040000fa
:04014c001e0400008d
:020000040000fa
:040150001e04000089
:020000040000fa
:040154001e04000085
:020000040000fa
:040158001e04000081
:020000040000fa
:04015c001e0400007d
:020000040000fa
:040160001e04000079
:020000040000fa
:040164001e04000075
:020000040000fa
:040168001e04000071
:020000040000fa
:04016c001e0400006d
:020000040000fa
:040170001e04000069
:020000040000fa
:040174001e04000065
:020000040000fa
:040178001e04000061
:020000040000fa
:04017c001e0400005d
:020000040000fa
:040180001e04000059
:020000040000fa
:040184001e04000055
:020000040000fa
:040188001e04000051
:020000040000fa
:04018c001e0400004d
:020000040000fa
:040190001e04000049
:020000040000fa
:040194001e04000045
:020000040000fa
:040198001e04000041
:020000040000fa
:04019c001e0400003d
:020000040000fa
:0401a0001e04000039
:020000040000fa
:0401a4001e04000035
:020000040000fa
:0401a8001e04000031
:020000040000fa
:0401ac001e0400002d
:020000040000fa
:0401b0001e04000029
:020000040000fa
:0401b4001e04000025
:020000040000fa
:0401b8001e04000021
:020000040000fa
:0401bc001e0400001d
:020000040000fa
:0401c0001e04000019
:020000040000fa
:0401c4001e04000015
:020000040000fa
:0401c8001e04000011
:020000040000fa
:0401cc001e0400000d
:020000040000fa
:0401d0001e04000009
:020000040000fa
:0401d4001e04000005
:020000040000fa
:0401d8001e04000001
:020000040000fa
:0401dc001e040000fd
:020000040000fa
:0401e0001e040000f9
:020000040000fa
:0401e4001e040000f5
:020000040000fa
:0401e8001e040000f1
:020000040000fa
:0401ec001e040000ed
:020000040000fa
:0401f0001e040000e9
:020000040000fa
:0401f4001e040000e5
:020000040000fa
:0401f8001e040000e1
:020000040000fa
:0401fc001e040000dd
:020000040000fa
:040200001e040000d8
:020000040000fa
:040204001e040000d4
:020000040000fa
:040208001e040000d0
:020000040000fa
:04020c001e040000cc
:020000040000fa
:040210001e040000c8
:020000040000fa
:040214001e040000c4
:020000040000fa
:040218001e040000c0
:020000040000fa
:04021c001e040000bc
:020000040000fa
:040220001e040000b8
:020000040000fa
:040224001e040000b4
:020000040000fa
:040228001e040000b0
:020000040000fa
:04022c001e040000ac
:020000040000fa
:040230001e040000a8
:020000040000fa
:040234001e040000a4
:020000040000fa
:040238001e040000a0
:020000040000fa
:04023c001e0400009c
:020000040000fa
:040240001e04000098
:020000040000fa
:040244001e04000094
:020000040000fa
:040248001e04000090
:020000040000fa
:04024c001e0400008c
:020000040000fa
:040250001e04000088
:020000040000fa
:040254001e04000084
:020000040000fa
:040258001e04000080
:020000040000fa
:04025c001e0400007c
:020000040000fa
:040260001e04000078
:020000040000fa
:040264001e04000074
:020000040000fa
:100400006f1021000eff2d000e018800000000007b
:10041000000020000000e000020032000001200087
:100420002002880014000700060107000000e00019
:1004300003003a000074220001002000020037008f
:100440000000200001002000810f70000100320038
:100450000f000700000020000000e0000200320052
:100460000000020000000000102402000000000054
:100470000040da000000fe00200020000000e00044
:1004800002003200100020009001880000000600e9
:10049000a1028800800478000000eb001f003700f4
:1004a000e284440054a0b4009905ba00e2844400f8
:1004b00054a0b4009906ba00e284440054a0b400e9
:1004c0000006eb00476fde00fd07b200ae018800ba
:1004d000636ce10003003a000ad801000000eb0061
:1004e0000e003700606ce10008003a00004deb00a0
:1004f0000a05e800020039003420ec000af0a000f0
:100500008b05e900f9ff3e00040037006168e10057
:10051000010032000086eb000b00070019c7ba008b
:100520000e04e0001905ba0003003a000a00e000da
:10053000dbff3a0000000600fe07b200ae028800b2
:100540008a047800f5ff37000cd0a300e20f4d00bd
:100550001c003b0089027800354dba000a05e8000e
:10056000020039003420ec000af0a0008b05e900fd
:100570000f003200254dba000a05e80002003900dc
:100580003420ec000af0a0008b05e90008003200de
:100590000c00e0000600320015cdba000a05e800a4
:1005a000020039003420ec000af0a0008b05e900bd
:1005b0008984e80054a0b4000b00e000e2ff3a0098
:1005c000000006009902ba00055d78008b05e9007d
:1005d000f7ff3200c82ade00055d78008b05e900d0
:1005e000f3ff32000c00e000f1ff320019ddba0029
:1005f000eeff37002e26040000000000482604000d
:10060000000000003600f800809fbe00829fbe0000
:10061000849fbe00869fbe000000fa000068a9000b
:10062000640e0700591107000ed0bf000004e0005f
:1006300004003a00040ea80010c0b3000ef0b7008a
:1006400002003700040ea9000e70ef00e70b070050
:100650000080fa004f03be004f02be004f01be00f3
:100660004f00be003600f900004006003600f800da
:10067000809fbe00829fbe00849fbe00869fbe00fa
:100680000000fa00f00b2100104078000004e000a8
:1006900003003200108680000000e9001086880008
:1006a000108680000000e0000c00340012c0b3008f
:1006b00000002000011a2c002c0e070022c0b300fd
:1006c00000002000011a2400280e0700e00b210082
:1006d0008040eb000148780005003700f00b210056
:1006e00010407800e00b210011c0b30001487800f1
:1006f0000108a90090738000620060000000e00023
:10070000030032001270ef0010c0b3000ff0b7000a
:100710000fd0bf000004e00019003200a073800079
:100720006800600000f0a7000000ea000000e90097
:100730004f00de00004078000080fb006100600098
:100740004300dd00a17380000130a10001007000b2
:10075000a0738800808080000000e800808088000e
:1007600081808000b0032000808f5000040034009e
:1007700010c0b30012f0b7000f70ef001030ef00a0
:100780000080fa004f03be004f02be004f01be00c2
:100790004f00be003600f90000400600801f7800c0
:1007a0000000fa0001a8a900001880002086880037
:1007b000101880003086880020188000408688004d
:1007c00030188000508688004018800060868800bd
:1007d00010c0b30015f0b7000080fa004f00780099
:1007e000004006003600f800809fbe00829fbe00d9
:1007f000849fbe00869fbe000000fa0003c8a900c7
:100800005180800040808000808f500003003200c3
:100810008064220000000100010037000c70ef002e
:100820000080fa004f03be004f02be004f01be0021
:100830004f00be003600f900004006000040da001c
:100840000000fe000000050014002000ad0337008a
:10085000f4ff2f00ab0337000001be003f0007008c
:100860000470a70003f0a1006509b1001600320072
:100870000d0035006828e10006003500f0ff2f006c
:10088000f1ff27000300e00013003b0001002800f7
:100890000000050000004000818048008502e9005a
:1008a000fcff3a0008003700f88f420002003c00cd
:1008b0008000eb00000005008100d1000080d30023
:1008c0008502e800fcff3a000300e00002003b0064
:1008d00060001000e0801800000006000001be006b
:1008e0001e0007000470a70003f0a10003f8a30096
:1008f00013003a006509b10010003200090035000c
:100900006928e10002003500010028000000050010
:1009100000004000818048008502e900fcff3a00a9
:1009200000000600f88f4200050035008100d1006c
:100930000080d3008502e800fcff3a0000000600ba
:100940008000eb00000005004f89de008201780086
:10095000870337006011b80095033700c70ade002f
:10096000f107b200f50fb20008003200e1cf4200fb
:10097000020032000170a00024000500810f700009
:10098000010032000408050044000500810f7000da
:1009900002003a00140005008502e9000000400052
:1009a00081c04800fcff3b000170a000240005004e
:1009b00007f82700078361000638e10004003a00c9
:1009c000f7072000878361008703710001003a0068
:1009d00003f0a200889fbe008a9fbe008c9fbe00cd
:1009e000470ade000480a100c71ade000580a100ce
:1009f000070028000785600087856100f70f200049
:100a00000720e1009e0032000728e1009c00320030
:100a1000010678000400e000b4003200f70720006f
:100a2000878060000170a0000500e000c000320077
:100a3000f7072000878161000370a00005065200bf
:100a40000f003a000b50e1000b0032000308e100f8
:100a500002003a000200e1007e0032000204500071
:100a600083845800040031000001fd008101fd0075
:100a70008402fd008a05fd006044b80021003700b3
:100a80000520e10005003d000001fd008101fd00a1
:100a90008402fd008a05fd00050652007a60e1002f
:100aa000050035000170a1004722dd008480700040
:100ab0008a807000630037006044b800ef0266006f
:100ac00007ff2f00070666000500e000060034005f
:100ad000f08312008714dd000511de00071bdd0026
:100ae000060171008519de007060e1000500350027
:100af0000904780082047800030178008001eb008b
:100b0000700656000b50e10003003a00020040005e
:100b1000838048000400370060041400e0841c0057
:100b200002005800838058000188a30006003200ac
:100b30008100d1000080d3008984d3000884d300d1
:100b40000402e800270037000178a30025003a00de
:100b50000100e000030032008186cf006986560064
:100b60000a0037008c0020000000e00004003a007a
:100b700009007800880478000004eb00700252003d
:100b80008086cf000d0646000c06e9007060e1008b
:100b9000060035008000780009007800880478009d
:100ba0000004eb0070065600700252000c00e000da
:100bb0000c0034008c08dd00f00316000703de0093
:100bc000868070000c00dd00074bde000600700020
:100bd0008c4cdd000743de00868474000c44dd008d
:100be0000c0252006120e10020003500610160002c
:100bf0000700280087816400f7ff270087836400cf
:100c0000070374000300e000060032008203730053
:100c1000040032000000e800e08048000188a300e2
:100c20000e003a00f70f20000720e1004a003d00c7
:100c30000170a1004722dd00810072008a807000ef
:100c40000000be004f06be004f05be004f04be00b0
:100c5000000006006000b800faff37008100d100f4
:100c60000080d3000402e800eeff370004017800a2
:100c700089017400a10107008a807000f1ff37002c
:100c8000f7010700070278000001fd008101fd0067
:100c9000f301070087027800850372000778a3003c
:100ca000040032000001fd008101fd000602070082
:100cb000e4ff3700850362000768a30008003200e4
:100cc0000b50e10003003200f0ff2f00f1ff27007e
:100cd000dcff37000001fd008101fd00d9ff370076
:100ce0000468a300d7ff3200faff3700f8ff27009f
:100cf000888360000b003a000000e00009003a0021
:100d00008303640082837300020032000200be008d
:100d1000ccff37000b50e100ceff3a000200be00ce
:100d2000c8ff370014002000810064003eff370038
:100d3000f8ff27008883610004003a000200e00009
:100d400002003a008c007800beff3700150020003a
:100d50008301640039ff370001f8270000002000fc
:100d600081007500b7ff3700889fbe008a9fbe00d4
:100d70008c9fbe001b0020000202be00058668009a
:100d800006002800060666004709de00f20fb200e2
:100d9000820032000243e80080003200c729de00f2
:100da000f30fb2007d0032000343e8007b00320005
:100db000f107b2000170a000f507b2000570a000b5
:100dc000c708dd004903de00868070004700dd00b3
:100dd000c72add004923de00868272004722dd003b
:100de00003055100040350008583580003003100bf
:100df00000004000818048000a05e9008c1f78004f
:100e00008a9fbe0004005000858058000402420002
:100e100085824a0000004000818048000005eb0008
:100e20000004be006033b8000406be000d48e100b7
:100e300056003100110009004dccd8000c01b8005b
:100e40000d02b8008481410060824a008283530011
:100e500003045c0084845c0060055d000a00e0001f
:100e600025003a00800578000d40e100490031007e
:100e70008800780007007800110009004d88d8002c
:100e80000c01b8000d02b8008481410060824a0064
:100e90006003110083835b0004045c00e0845c0059
:100ea0000900e00021003a004f01be000300e0000d
:100eb0002b003200e3016000070673008c81710093
:100ec00001003200640070004200de004e5edd0072
:100ed0000c007000c258de0001e0a0008301070092
:100ee000cf017800818071004f06be004f05be0023
:100ef0004f04be00000006008c8343000d044c002c
:100f0000e0844c0060054d000000e9000a00e000ac
:100f1000d4ff32008c8343000d044c00e0844c006d
:100f200060054d000000e900ceff37000c034300d0
:100f30008d834b0060044c00e0844c000000e9000d
:100f40000900e000d8ff32000c0343008d834b0002
:100f500060044c00e0844c000000e900d2ff370040
:100f60004200de004e5edd000c007000c258de0064
:100f700001e0a000cf0178000300e000daff3200ba
:100f800060001000e0801800d7ff3700f0ff2f004e
:100f9000aaff3700f0ff2f00b9ff37000404be009e
:100fa0002f010700870678000004fd008104fd0082
:100fb0002b010700078366000678a30003003200b8
:100fc0000960a7000800be002c0037000d78a300c0
:100fd000020032000800be00280037000778a30096
:100fe00026003a0001f0a10009f0a1000668a30064
:100ff00003003200f1ff2700f0ff2f00baff370097
:101000000d68a300030032000800be008c80700051
:10101000b5ff37000768a30007003a000648a300a1
:1010200003003200f1ff2700f0ff2f00aeff370072
:101030000d48a300030032006000b8008c807000ef
:10104000a9ff37000748a3000400320001f8270079
:10105000000020008c807000a3ff3700760107009d
:101060000004fd008104fd00020578007201070004
:101070000802be008a01780059ff37000160a00015
:1010800012022000b280880097ff37000100e000c4
:10109000120032000500e00010003200889fbe0000
:1010a0008a9fbe008c9fbe000006eb0001f8a300e3
:1010b0000300320060001000e08018000cf0a00077
:1010c00005f8a3000300320060021200e0821a005b
:1010d0000cf0a2008005eb0041ff37006000b80073
:1010e000020005000383680007002800070363006f
:1010f000470ade000480a100c71ade000580a100b7
:10110000f70f20000720e100420032000728e1002d
:1011100040003200889fbe008a9fbe008c1f78006e
:10112000f107b200f307b2000400e00064003200ef
:101130000170a0000500e000680032000370a0000c
:1011400085054200eb07b1000204b8000302b800b5
:101150008484440060854a00020ab8008484440004
:101160000a854a00030ab80004054500040033005c
:101170000804d0008984d2000a85d2008b05e900da
:101180006158e1003d0035000210200009016100b6
:101190000308200089816100f7072000878364002d
:1011a00008867300c84cde00c853dd0087847400d5
:1011b0004855de000300e00006003200820376009e
:1011c000040032008904e80060054d000a88a3008d
:1011d0000c003a00f70f20000758e10044003d00e2
:1011e0000a70a100c75ddd000a8575008a007300e2
:1011f000090078004f0678004f05be004f04be007e
:10120000000006000a05d1008984d3008b05e800a0
:10121000f0ff3700881f7800060478009000070070
:10122000070278000001fd008101fd008c0007002d
:1012300087027800850372000778a300050032005a
:101240000001fd008101fd009f0007004f047800b0
:1012500000000600850372000748a3000300320067
:10126000f0ff2f00f1ff2700f8ff370000002000fb
:1012700001f8270088807000f4ff370088017800ab
:101280004848dd00808171004848de00c850dd001c
:1012900001007000c850de00060478000b017800e1
:1012a0001600070088807000d2ff37000500e000bc
:1012b00005003200170020003a0007009dff3700ac
:1012c00081037000f9ff3a00860078004f0678002d
:1012d0004f05be004f04be000000050083037100ef
:1012e000f9ff3200270020002e00070094ff37008e
:1012f00001f8270086807000f4ff37000100e0004d
:1013000026003200610111007810e10023003c004a
:101310006022b8007010e1000400350080027800ff
:10132000010078008000eb00700151000200e00035
:101330000900340070031100062add00822ade0055
:101340008603dd00878272000200de00860bdd006e
:10135000070070008208de0084817100f4ff27001e
:10136000048262008481710004002800848262008b
:101370006102600005f0a600000006000482710012
:10138000070032000000e800e0804800000006008e
:101390000002be006000b800efff37006000b80038
:1013a00000000600889fbe000004eb006138e100e9
:1013b00016003a000100e00008003a00c800de0014
:1013c0004800dd00880020000100e00003003a0032
:1013d000c800de004800dd00680444008184cf00be
:1013e000e9845400060034008908dd00f08314000d
:1013f0008703de00878070000900dd0009044400d7
:10140000610214004f04be00000006000300e0006b
:1014100008003a00c811de004811dd0088002000f5
:101420000300e00003003a00c811de004811dd00af
:10143000680444008384cf00e9845400060034002b
:101440008919dd00f08314008713de0087817100a5
:101450000911dd0009044400e1021400e9ff37002e
:101460002700200001f0a70017002000470bde0036
:10147000f60fb200040032000643e8000a00320012
:101480004702b3000000060001037800f607b2002f
:101490000603700002003a000703b30000000600d4
:1014a0008702b3000000060001037800f607b200cf
:1014b00006037000020032000770a0000000060062
:1014c0000760a000000006000478a30004003200ba
:1014d0000578a300030032000168a30001003a0070
:1014e0000200be000160a000000006008101700043
:1014f000270032008002eb0001f8a3000300320055
:1015000060001000e080180015002000f4072000a3
:101510000202420020003400f7032000870360002d
:10152000060420000003630002082000000161009f
:101530004700de00c909dd0000807100c708de0039
:101540000600e00008003200870371000600320048
:101550001000b0000180b0000188a300020032003a
:10156000c108de000402e800f107b200f30f20001a
:101570000320e10003003d004722dd0081007200ee
:101580002900370001f827000000eb002600370093
:101590006000b80000000600680212007f20e10031
:1015a000020034006000b8001f0037006011b8006e
:1015b0007020e1000400350080017800010078000f
:1015c0008000eb00700252000400e00009003400cb
:1015d000f00312000719dd008419de000703dd00a7
:1015e000868171000400de00070bdd00060070003c
:1015f0008408de00f7ff2700838363008703710000
:101600000600280003036300070032000700e00023
:1016100003003a00610160000281730002003200a1
:101620001000b0000180b0000500a6000000060018
:1016300001f0a000000006004f0ade004709de00ae
:10164000f107b200f20fb2000b003200f207b10056
:101650000170a000c708dd00c901de0083807000b2
:101660004700dd000400a600000006006000100036
:10167000e080180000000600810f700001003a00b1
:10168000000006008182cf000500e00010003e004f
:101690008082cf00ee8242007028e1000400390011
:1016a00007003e00800078000000eb000e003700cd
:1016b000708312008600de000500dd000a0037009e
:1016c000708352008600dd000000eb00060037004a
:1016d000e28252008508dd00708312000603de00fe
:1016e000868070000500dd007507b0000501ea0086
:1016f0000400a6000000060060001000e080180052
:1017000000000600889fbe008a9fbe00841f7800ec
:101710007c0007004f00780011003300f0ff2f001d
:10172000838f6c0006003b00040565000a00a700db
:101730000800370009f0a60010002000080037005c
:10174000820f5400838f5c000300390010002000da
:1017500001003e000000200009f0a7000000ea00a0
:101760004f05be004f04be000000e0000000060070
:10177000881f7800030478000300e00007003d00a4
:1017800060001000e080180060011900e08119007d
:1017900002003b0001f02d000300370004000700a9
:1017a00008f0a70001f0a0004f0478000000060038
:1017b000889fbe008a9fbe000082700004027100f4
:1017c00004827100260032000004be000200be0048
:1017d0006011b8006b092000950220000182cf0043
:1017e0000a0039000541b1000082cf00070039002e
:1017f0000541b1000982cf00040039000541b10064
:101800000882cf00010039000541b10005425200b5
:10181000120032000a003b00828171006101640005
:101820008100d1000080d3008984d3000884d300d4
:101830008b05e8000442e800f7ff3a000700370094
:101840000804440089844c0000004800818048005e
:101850008b05e9000442e900f9ff3a0003000700a4
:101860004f05be004f04be000000060081002000ae
:10187000618055000b003d000b00200061fe2f0031
:101880000100e1001d0034008281710061016400eb
:101890008904d1000884d3000000e800faff3a0070
:1018a000710020006100640003007000020060000d
:1018b0000900320061044400e0844c000988a5005e
:1018c000050032008b05e8006808e10002003a00dc
:1018d0008904d1000884d300f20f20000258e100ef
:1018e00005003d00c75ddd00f907b2008980750085
:1018f00008007800000006000bf827008b00780035
:10190000000005000004be0014fc07000003be0038
:101910000405be000200be0010fc0700844f7500e5
:10192000000006006f04b000889fbe008a9fbe00c2
:101930008c9fbe008e1f78000006be000204be0011
:101940000200be00900607000203be000002be00b7
:10195000d09f9f00e19f9f00f29f9f0083a79f0061
:10196000b6af9f00c7af9f000005be00cfaa97008b
:1019700005f0a1000602780000007200818072006c
:10198000e00f5000e08f5800e70432000c00be006a
:1019900094b79f00a5b79f007b06070092af9f00fa
:1019a000a3af9f000003be00b0a79f00c1a79f0088
:1019b0000000200001ff23001fb29700afb2970084
:1019c000800f5100818f590003003a00e00f53004f
:1019d000e08f5b00d4043200afab970007f0a100aa
:1019e0001fab9700d6a79f00e7a79f00000020002d
:1019f00001ff2700800f5300818f5b0011003c0026
:101a000005003a003fa19700cfa19700e00f5100d9
:101a1000e08f59000b003a00800f5200818f5a006e
:101a200008003c000000200001ff2700800f52004a
:101a3000818f5a0007003a00e00f5500e08f5d00eb
:101a4000040032000c01be000800be00e1fb0700ec
:101a5000b30437006000b800f0a79f0081af9f007b
:101a60001fa99700afa99700e00f5100e08f590020
:101a700059003d002000200001002000f0a79f0039
:101a800081af9f00f0ff2f00f1332400800f520040
:101a9000818f5a0050003c006011b800f2a79f00ef
:101aa00083af9f00f0ff2f00f1fe2300800f520054
:101ab000818f5a004800340044a8de00cfa8de0021
:101ac000f03fb1000180b100f40f5000e08f5800ea
:101ad000220034004203200000015100f2a79f00c1
:101ae0000a01be007fa797000e07e900030033003c
:101af0008301d1000281d300fbff37000200be004a
:101b00007fa797000e07e9000300330000004000a4
:101b100081804800fbff370090a79f00a1a79f008e
:101b20006000b800f0a79f0081af9f001fa0970042
:101b3000afa097008a0f50008b8f580026003a0004
:101b40006000b8006100610062011000e0811800cf
:101b5000f2a79f0083af9f001f0037006011b800fd
:101b6000f2a79f0083af9f00e00f5500e08f5d005c
:101b700064003a00740010000401be000005780003
:101b80000a05e900030033008381d1000281d300fc
:101b9000fbff37000205be00000778000e07e900d2
:101ba000030033000a0545008b854d00fbff37001d
:101bb000840f5500858f5d002b003a006000b8004f
:101bc0006100610062011000e0811800f2a79f002f
:101bd00083af9f0024003700e00f5500e08f5d00c9
:101be00048003a000000200001ff2700800f52004b
:101bf000818f5a001c003a000000200001012c00d7
:101c000006004000878048003fa29700cfa29700bf
:101c10000400700085807000e00f5000e08f5800d5
:101c200041043200f0ff2f00f1fe2300800f53002b
:101c3000818f5b00060034003fab9700cfab97006d
:101c4000e00f5300e08f5b003f043d003904370094
:101c50003fad9700cfad9700e00f5500e08f5d00de
:101c600034043d006d0037000000200001ff230018
:101c7000800f5200818f5a0009003a003fa8970058
:101c8000cfa89700e00f5000e08f58002b043d00d4
:101c90000c01be000000200001f823007100370095
:101ca00000002000010024003fa99700cfa9970061
:101cb000800f5100818f590003003a000c01be00d3
:101cc0000c00be00150437000000200001fe2300b8
:101cd0003fad9700cfad9700800f5500818f5d001d
:101ce00008003a001fa89700afa89700e00f500027
:101cf000e08f5800030035000c00be0043040700cd
:101d0000070437000c00be0094b79f00a5b79f00e2
:101d1000f6af9f0087b79f008f0507000005be0044
:101d20001fb29700afb297007fab97008fb39700b9
:101d30003fa19700cfa19700e00f5100e08f59001d
:101d400038003a000000200001ff2700800f5300f8
:101d5000818f5b0008003200e00f5300e08f5b00d2
:101d6000050032000000200001ff2300800f530017
:101d7000818f5b002b003a003faa9700cfaa970003
:101d8000e00f5200e08f5a000a003d000a01be0039
:101d90000000200001f82300f6af9f0087b79f00e6
:101da000f1fb07000001be007fab97008fb39700e7
:101db000010037000a01be001fad9700afad9700cc
:101dc000e00f5500e08f5d00de033d0000002000c5
:101dd00001012c0006034000878348007fa0970084
:101de0008fa897000603700087837000e00f5300f0
:101df000e08f5b0003003a0010022000208888007a
:101e0000150037007fa297008faa9700e10f5200bc
:101e1000e08f5a00cb033a000204be0009f0a20092
:101e2000c90337001fa89700afa89700e00f500024
:101e3000e08f580015003d007fa197008fa9970003
:101e4000e00f5100e08f590008003a001002200016
:101e5000208888000c01be000200be00d4fa0700f2
:101e60000001be00c0fb0700ad0337007fa0970054
:101e70008fa89700e10f5000e08f58000800320053
:101e80000200200003f823000700370000002000b4
:101e900001f82300f0a79f0081af9f0004003700e6
:101ea0000200200003f82b00f2a79f0083af9f00e1
:101eb00000002000011e2400800f5200818f5a0074
:101ec0007600340000002000013f2400800f520003
:101ed000818f5a0015003400f0ff2f00f1fe23001f
:101ee000800f5300818f5b0007003c006044b80006
:101ef0003faa9700cfaa9700e00f5200e08f5a0048
:101f000091033d00060037006044b8003fab9700e6
:101f1000cfab9700e00f5300e08f5b008a033400e3
:101f20000800200009f8270087033700e0ff2f0092
:101f3000f1fe2300800f5300818f5b0006003c0000
:101f40003fad9700cfad9700e00f5500e08f5d00eb
:101f500082023d005c0237000000200001ff2300e8
:101f6000800f5300818f5b00060034003fa897006c
:101f7000cfa89700e00f5000e08f580052023c00bd
:101f8000760237000200200003f823000a00be009a
:101f900087fa07000005be00b2a32a0083fb2300d6
:101fa00050fc0700b0af9f00c1af9f0002062700a2
:101fb000532a23000a00be004afc07000002be00ac
:101fc0000a01be000a00be0094b79f00a5b79f009b
:101fd00044fc07000006be000200200003e82300c6
:101fe0000a00be003ffc07000001be00b0aa2a00a4
:101ff000a1ea23006efa07000001be000a00be003d
:1020000038fc07000001be000000200001f02300a2
:1020100067fa07000001be000c00be0031fc07009b
:10202000b2a32a0083fb23002efc07000001be00a0
:102030001fb29700afb297000400be005cfa070021
:102040000006be000001be003fa89700cfa8970081
:1020500060fa0700cc0407000002be000203be00c5
:102060006000b800f2ff2f00f3ff2f0000006200b5
:10207000818062000201630083816300e104070044
:102080000005be003fa99700cfa9970048fa0700b6
:102090000001be000c00be00b70137006000b800b0
:1020a000f2ff2f00f3002000820f5300838f5b00ac
:1020b0000a003c000200200003a025000a00be0028
:1020c00008fc07000005be00af040700d2a79f0070
:1020d000e3a79f00b0fc2f00f1ff2f000001be001e
:1020e000f23fb1000380b100efa2970044a8de00e8
:1020f00005037800cfb0de00020240008382480072
:10210000b4a79f00c5a79f0086027800ef816200f8
:102110005fa197000000200001ff23000002710072
:1021200081827100d4a79f00e5a79f006033b800ab
:1021300096af9f00a7af9f00e088290031002000e4
:10214000800f5100818f59001400340010002000ce
:102150000100200090af9f00a1af9f0090672b006f
:10216000b1002000800f5100818f59000b00340016
:102170003fa19700cfa1970061014100e081490094
:10218000b2a79f00c3a79f00f0825200d4a79f0070
:10219000e5a79f0096af9f00a7af9f005fa29700a3
:1021a000efa297004fabde00860378000403be0069
:1021b0006022b800b4af9f00c5af9f00d6af9f00ac
:1021c000e7af9f000a00be006f040700f4ff2f0076
:1021d000f5ff2f006033b8000402600085826000c4
:1021e00006036100878361003fa89700cfa897008e
:1021f0005fa99700efa99700040070008580700028
:102200000601710087817100f0979f00819f9f00f8
:10221000929f9f00a39f9f007f9097008f989700a9
:102220001f999700af999700760407000006be003b
:102230009fa89700420fdd00c00e21000e00400055
:102240001001780090019000b2b79f00c3b79f00c3
:102250000c00be00d6f9070090a79f00a1a79f0021
:102260003fb19700cfb197000c00be00d9f907002d
:102270000001be000000200001f82300bafa0700a8
:10228000b09f9f00c19f9f000001be001fa097004c
:10229000afa0970093fb0700b0af9f00c1af9f00b6
:1022a000390407000002be000203be00f4979f003d
:1022b000859f9f00969f9f00a79f9f006000b8008a
:1022c000f2ff2f00f3ff2f00000062008180620008
:1022d0000201630083816300d0b79f00e1b79f00d4
:1022e000f2b79f0083bf9f005fb09700efb09700e9
:1022f0007fb197008fb99700420407000005be0028
:102300001fa99700afa99700c210dd0000002000b0
:1023100060014000e88148005fa29700efa29700ab
:102320008580d1000480d30001d0a00002004000cd
:10233000838048004f89de00820178000001be00e2
:102340006000b8002f0407000002be000001be00bc
:102350000a00be0094b79f00a5b79f0061fb07006d
:102360000001be001fa09700afa0970090f90700e2
:102370000003be003fb19700cfb197001fb2970096
:10238000afb297000400be00f6af9f0087b79f0072
:1023900087f907000001be000c00be0084f90700a9
:1023a0000001be000a00be004efb07000001be0097
:1023b0007fab97008fb397000600be007cf9070043
:1023c0000001be003f989700cf98970045fb07009b
:1023d00090af9f00a1af9f003fa99700cfa99700a2
:1023e0000200be003ffb07000006be000001be0069
:1023f0003cfb07000002be0022142f0033e523003f
:102400000c00be0094b79f00a5b79f0035fb0700e6
:1024100052252300c3e623006ef907000001be0029
:102420000c00be002ffb070052302a00b3e8230047
:1024300068f907000001be000c00be0029fb070080
:10244000b2aa2a00a3ea230062f907000001be0035
:102450000c00be0023fb070072db2600b3ed230057
:102460005cf907000001be000c00be001dfb070068
:10247000a299290093f1230056f907000001be003c
:102480001fb29700afb297000400be0015fb070013
:102490000006be003fa99700cfa997000a00be0022
:1024a0004cf907000001be001fa89700afa89700d5
:1024b0000cfb07000001be000c00be0045f9070040
:1024c000d0a79f00e1a79f000a01be000a00be003e
:1024d00004fb07000006be000200200003042400e5
:1024e0003cf907005fa19700efa1970039f90700b9
:1024f000a50307000002be000203be006000b80092
:10250000f2ff2f00f3ff2f000000620081806200c5
:102510000201630083816300f0979f00819f9f0009
:10252000929f9f00a39f9f007f9097008f98970096
:102530001f999700af999700b20307000002be00f1
:102540000001be000a00be0094b79f00a5b79f001f
:10255000e4fa070090a79f00a1a79f001fb2970071
:10256000afb297000401be001fa89700afa8970064
:10257000dcfa07000005be0002002000030424006e
:102580001fb29700afb297000400be0008f9070021
:102590000c01be0006f907000001be005fa0970015
:1025a000efa0970002f907003fa99700cfa9970075
:1025b000ccfa07000001be000a00be0005f90700c2
:1025c0000006be000001be001fa09700afa097004c
:1025d00000f907006c0307000002be000203be0002
:1025e0006000b800f2ff2f00f3ff2f000000620030
:1025f000818062000201630083816300b0af9f00ad
:10260000c1af9f00d2af9f00e3af9f003fa89700ec
:10261000cfa897005fa99700efa99700790307005b
:102620000005be00f284230063f72300adfa070023
:1026300090af9f00a1af9f0012f02700131f2b0047
:102640000a00be00a7fa07000002be001fa1970003
:10265000afa197000a00be0094b79f00a5b79f00e6
:10266000d3f807000001be000c00be00d0f8070040
:10267000f284230063f723009afa07000001be00ea
:102680001fb29700afb297000400be00d1f8070058
:10269000420f21000e0141009201900012017800ca
:1026a000ccf80700d0a79f00e1a79f003fa09700ac
:1026b000cfa09700a4f807000006be00c00f2100bd
:1026c0000e0740001e0378009e039000b6af9f00e7
:1026d000c7af9f005fa19700efa197001fa89700c9
:1026e000afa89700bbf807003fa99700cfa99700b4
:1026f000b8f807000c01be00b6f807002203070077
:102700000002be000203be006000b800f2ff2f000e
:10271000f3ff2f000000620081806200020163006d
:1027200083816300f0979f00819f9f00929f9f008d
:10273000a39f9f007f9097008f9897001f99970005
:10274000af9997002f0307000005be000c01be00e3
:1027500097f807003fa99700cfa9970094f80700c2
:102760001fa99700afa9970091f807000001be00cc
:102770005fa09700efa097008df807000006be004d
:102780006000b800f2ff2f00f3ff2f005f9a970060
:10279000ef9a97007f9b97008fa39700000062003d
:1027a00081806200020163008381630015030700da
:1027b0000003be000001be000800be00f6af9f008f
:1027c00087b79f007af807000a01be0045fa0700a4
:1027d0000002be000c01be000800be0094b79f00be
:1027e000a5b79f003ffa07000001be001fb2970087
:1027f000afb297000400be0076f807000004be00e8
:102800000a01be007fab97008fb397000600be00a1
:1028100034fa07000005be0090af9f00a1af9f00f3
:102820000001be000800be006af807000006be00f6
:10283000d50207000203be000002be00f0ff2f0019
:10284000f1082400800f5100818f590026003400c8
:102850000000200001f72b000200400083804800a8
:102860000400700085807000e00f5000e08f580079
:1028700015003a00b2a32a00834b22000800be00d4
:10288000f6af9f0087b79f0052f807000002be0016
:102890000a01be000c00be0094b79f00a5b79f00c0
:1028a00043f807000001be001fb29700afb29700c7
:1028b0000400be00e6f707007fab97008fb39700d8
:1028c0000000e0002b0034000200200003f8270085
:1028d0007fa097008fa8970002fa0700020020004f
:1028e00003f827000d0137008701780003f0a100ed
:1028f00006017800f0bf2c0001092400800f510070
:10290000818f59001b00340000402300f1f62300a2
:102910000600400087804800040070008580700039
:10292000e00f5000e08f58000c003a000a01be0092
:102930000c00be00f6af9f0087b79f001cf8070091
:102940000001be000800be00bff707007fab970084
:102950008fb397000000e00006003c006011b80053
:102960007fa097008fa89700def907006011b800dc
:10297000ea0037008701780003f0a1000601780023
:102980006000b800b0af9f00c1af9f000000200002
:1029900001fe2300800f5100818f5900490034004f
:1029a0004498de00e03fb100040020000501200053
:1029b0000000e900030033008582d1000482d300c7
:1029c000fbff37000402430085824b0005067800b8
:1029d0008500780001f0a1004489de00cf89de0087
:1029e0000200be00f03fb1000180b10090af9f0037
:1029f000a1af9f00f2ff2f00f30020009fa89700d7
:102a00008100e900030033008381d1000281d300fb
:102a1000fbff37000281ea008381ea0083806200c5
:102a2000040061004f89de00820178000001be00d1
:102a30006000b80094b79f00a5b79f00f6af9f0055
:102a400087b79f006f0207000001be00ef0066001d
:102a50001fb097000002be000540a000b4af9f0069
:102a6000c5af9f009faa9700748012003faa9700ed
:102a7000cfaa97000000e900030033008582d1004f
:102a80000482d300fbff3700b4af9f00c5af9f00a7
:102a90007fab97008fb39700e00f5300e08f5b0090
:102aa00004003d0060021200e0821a00b4af9f00f3
:102ab000c5af9f000a00be00bdf7070090af9f00a2
:102ac000a1af9f001fa99700afa997000800be0003
:102ad000c0f707002c0207006022b800f6ff2f00a5
:102ae000f7ff2f000402600085826000060361008a
:102af000878361000400be000601be00410207009a
:102b00000006be008221270013f3230075f9070099
:102b10000005be001fa99700afa997000c00be00da
:102b2000a3f707000001be000800be00a0f70700e1
:102b30008221270013f323006af907000004be0076
:102b400082302e0023102b000c00be0065f9070018
:102b50000001be000800be009ef707000006be0090
:102b60000001be000a00be009af707000004be0084
:102b70000a01be008ef707000001be000c00be0077
:102b80008bf7070090af9f00a1af9f000801be0028
:102b90000800be0053f907000005be00c2b42b00b8
:102ba000133323004ff90700e2a02e00d35d23006a
:102bb0007ff707000001be000a00be0049f90700c8
:102bc00052352b00a388230082f707000001be00c6
:102bd0000a00be0043f9070012b6200063b32300c9
:102be00073f707000001be000a00be003df90700b0
:102bf000b2aa2a00a3e2230076f707000001be0074
:102c00000a00be0037f907000001be000800be0040
:102c100067f707000005be000001be000800be0007
:102c200030f907000006be00020020000300240067
:102c30000a00be005ef707000001be000c00be00e7
:102c400049f807000005be001fa99700afa997002b
:102c50000800be0023f907000001be001fa897006e
:102c6000afa897005bf707000001be000a00be0096
:102c70004ff707000801be004df707000001be0036
:102c80000000200001f8230049f707000004be00ff
:102c9000bd0107003fab9700cfab9700c432dd000a
:102ca00004002000040241008582490044abde009c
:102cb000cfabde00e00f5300e08f5b0004003c0070
:102cc0003fa997000800be0026000700100037004b
:102cd0004fabde00860378000403be006022b8001c
:102ce000f8ff2f00f9ff2f006055b80008046000be
:102cf000898460000a0561008b856100080072000c
:102d0000898072000a0173008b817300bd01070086
:102d10000001be007fa097008fa89700f1f8070080
:102d20000004be00080037000800200009f8230056
:102d3000050037006044b800030037000c04be00f3
:102d4000010037000204be000800be004f077800f3
:102d50004f06be004f05be004f04be006f04b10019
:102d600000000600889fbe008a9fbe000204780013
:102d7000f93f2000890f54000d00340002002000ac
:102d800003f82700d7f80700f83fb100890f540077
:102d9000150034000200200003f82700d1f80700d6
:102da000f83fb100890f54000e003c000e003700c0
:102db00029c02f00890f54000b003d006011b8009e
:102dc000c8f80700983cb000890f540006003d0089
:102dd0006011b800c3f80700983cb000890f540098
:102de00001003d0009047800f83fb000cfc4de00c8
:102df000614db9006044b8000801be00b9f8070091
:102e00004f05be004f04be00000006002800fa0077
:102e1000889fbe008a9fbe008c9fbe000004be003b
:102e2000590107000203be000002be00c0b79f00a8
:102e3000d1b79f00e2b79f00f3b79f000602be0024
:102e40000600200007ff270087866200060678003c
:102e5000860f5600878f5e0007003a000801be000b
:102e60000800be009ff807000001be000800be0079
:102e7000d8f60700310137004fb39700dfb3970052
:102e8000e00f5200e08f5a0013003c0085017800eb
:102e900003f0a10004017800060171008781710030
:102ea000e00f5100e08f590025013200e00f520081
:102eb000e08f5a00080032001002200020888800ad
:102ec0000801be000800be00b9f607000001be0000
:102ed000a5f707001901370044a8de00cfa8de00df
:102ee000e00f5000e08f58002e003a000800370035
:102ef00075005000e0805800453cdd004b32de009c
:102f000004027400cb3ade00c533dd000600200069
:102f1000e00f5200e08f5a00f5ff32006011b80058
:102f2000040037000402420085824a00610141002a
:102f3000e081490008002000090120008585640027
:102f400008057800e00f5500e08f5d00f5ff3200c6
:102f500061004000e080480002005000838058007b
:102f600008022000020454000605be00080678008e
:102f70000c06e900030033008b05d1000a85d3005d
:102f8000fbff370004027500858275008206780019
:102f90008d06e900030033000603430087834b00de
:102fa000fbff3700f03fb1000180b100ef8162000c
:102fb000040178000340a0000008a3000c003200c8
:102fc0000201410083814900080020000900280017
:102fd00087826400080278004f2ade000500200086
:102fe0000201420083814a000603430087834b00ad
:102ff0008182d1000082d30084af9f0095af9f00f3
:1030000002014100838149000800200009002800d6
:1030100087806400080078004f08de00010020006f
:1030200002014000838148000600430087804b0076
:103030006c01200006002000070220006044b80058
:103040006022b80088bf9f0099bf9f00eca79f0037
:103050000405430085854b00820f5500838f5d007a
:103060000a003c000a0243008b824b000a01510017
:103070008b8159000fbe97009fbe97000c0643003e
:103080008d864b008cbf9f009dbf9f0002044100b6
:1030900083844900c8b79f00d9b79f000a00200069
:1030a0000b00280081846500b9b79f00aab79f0074
:1030b0002fb19700bfb197004f19de000300200029
:1030c000e2af9f00f3af9f004fb49700dfb49700cb
:1030d00008014100898149000000400081804800ca
:1030e0008703d1000683d300efa697008d06e90081
:1030f000eda79f00d6ff3a000fbc97009fbc97003a
:103100006033b800a6b79f00b7b79f00cab79f004b
:10311000dbb79f000c022000e8a79f00f9a79f00e3
:10312000e6af9f00f7af9f004fb59700dfb5970060
:103130002fb39700bfb397000a0443008b844b0062
:10314000820f5200838f5a000400350034003a0089
:10315000800f5400818f5c0030003e004fb5970017
:10316000dfb597000805450089854d00aab79f0087
:10317000bbb79f000a0020000b00280009836500f0
:1031800096b79f008ab79f000fb397009fb3970031
:103190008a0f53008b8f5b000c003a00bfb397007f
:1031a00087836500d7af9f00c6af9f004fad9700e4
:1031b000dfad9700e00f5500e08f5d0003003a009f
:1031c00061034200e0834a00010037000403be00af
:1031d0000401510085815900880f5000898f5800e3
:1031e0000200310061015100e081590008005000e7
:1031f000898058006faa9700ffaa97004fb49700e4
:10320000dfb497000402440085824c00e4af9f00c5
:10321000f5af9f000602be00010037000401be00aa
:1032200002014100838149000600200007002800b8
:1032300081846300b9af9f0006057800aaaf9f00a4
:103240002fac9700bfac97004f4bde00070020006b
:103250000201430083814b00000040008180480050
:103260004fb59700dfb597008b05d1000a85d300d5
:10327000cab79f00dbb79f000c06e900aaff3a001f
:103280006fa49700ffa497006fab9700ffab970068
:103290000001710081817100e00f5100e08f590041
:1032a0000b003200e10f4300e08f4b0004003a00b6
:1032b00061044400e0844c006033b800040037002f
:1032c0006000b800610063000003430081834b008d
:1032d0008985d1000885d3008701d1000681d300fc
:1032e0000808a3000100320003f0a0000fae970011
:1032f0009fae9700c460dd000000200004002000a5
:1033000005fe23000000420081804a0000024500c3
:1033100081824d004fabde00860378000403be00bf
:103320006022b80004027100858271000603be00ad
:103330000400be000601be00320007000004be000b
:103340000800be004f06be004f05be004f04be0081
:103350000080fa00000006006022b8006033b80068
:103360000002be00f0ff2f00f1ff2f00f2ff2f0040
:10337000f3ff270000006200818062000201630009
:1033800083816300000006008103780073f5070065
:103390000001be006000b8000478a30013003a00ea
:1033a0006220e10015003e000d0039008301d100cc
:1033b0000281d3008180d3008301d1000281d30038
:1033c0008180d3008301d1000281d3008180d300aa
:1033d0000538b000c42add00f300b200838172001a
:1033e00007f0a70003f0a0000000060083ff2700fd
:1033f000020020006110b900f9ff370003ff270029
:10340000f7ff37001400fa00889fbe008a9fbe00b5
:103410008c9fbe000005be000206be00680047008b
:103420000c90be000a90be00210007006400e1007d
:103430001a00320016003e006100e1001a0032005e
:103440006e049000fe0490000e0b90009e0b900006
:103450006011b8009e0590000b38b100d501200026
:1034600082817100610164008703d1000683d3006b
:103470008984d3000884d3008502e900f8ff3a006c
:10348000faf807000df0a70001f0a0004300370094
:1034900001fc270000002000faff370001f8270098
:1034a00000002000f7ff37006000b800f5ff37008c
:1034b0005002be00e40050005003be004439de005c
:1034c000f700b200f37f2000030161000900320021
:1034d0000218e10016003a008501720083017300b2
:1034e000838173000008200015003a00400020008e
:1034f000130037008501720083017300838173001c
:1035000005003a0004a8be0006a8be001000200076
:103510000b0037000201e9000402420085824a00e4
:1035200006034b0087834b000748a300f9ff3200d6
:103530000740a00004a8be0006a8be00200020008e
:103540008000980092009800000006006804470080
:103550000294be000094be00fc0447008694be00a6
:103560008494be0009007800d1ff070008007800ad
:10357000cfff070099007800814f70000b003b00df
:103580000800be000a0007004f00b100030037002a
:10359000f3ff2700f2ff2f006110b9004f06be00b5
:1035a0004f05be004f04be000080fa000000060078
:1035b000e48240001078a30007003200640240005b
:1035c0001178a3003400be001401be0005003200d3
:1035d0000330a7000000060035007800b500780031
:0c35e0001501be000330a0000000060032
:020000040000fa
:1035ec001c00fa00881f7800e00b210010407800c6
:1035fc000004a2000004e0002b023a0012d0bf002d
:10360c000004e0000700320012c0b3006000b800f4
:10361c005302070022c0b3006000b800500207003c
:10362c00220237005e050700e10f500075003a00da
:10363c006005070056050700100798001e00900053
:10364c00100078008000eb00bff407003233230039
:10365c0033052400a0f607000200200003582400c4
:10366c00bef5070020079800310798002e01900046
:10367c00be0190000000200081202400b7f5070057
:10368c0002002000030a2400c6f40700d08588003d
:10369c00e18588001e0090000080e8001000780092
:1036ac008000eb00a8f4070032332300330524001c
:1036bc0089f607000200200003582400a7f5070034
:1036cc0020079800310798002e019000be01900051
:1036dc000000200081202400a0f50700020020003b
:1036ec00030a2400aff40700b0858800c185880068
:1036fc001e00900064004000100078008000eb0079
:10370c0091f40700323323003305240072f60700ce
:10371c00020020000358240090f5070020079800b1
:10372c00310798002e019000be019000000020008f
:10373c008120240089f5070002002000030a2400e0
:10374c0098f4070090858800a18588001e009000e1
:10375c0066004000100078008000eb007af407004f
:10376c0032332300330524005bf6070002002000ef
:10377c000358240079f507002007980031079800ba
:10378c002e019000be01900000002000812024003a
:10379c0072f5070002002000030a240081f40700e0
:1037ac0070858800818588001e00900068004000ac
:1037bc00100078008000eb0063f407003233230024
:1037cc003305240044f607000200200003582400af
:1037dc0062f5070020079800310798002e01900031
:1037ec00be01900000002000812024005bf5070042
:1037fc0002002000030a24006af4070050858800a8
:10380c00618588000000eb00000f780000002000ac
:10381c00011e24004007980051079800000020006a
:10382c00011e2400600798007107980050858000e5
:10383c006185800018c0b3006e019000fe019000fd
:10384c00fef307000000e000010034000044eb0030
:10385c000804e000020032009e007800708f4000e7
:10386c00708580008185800018c0b3004e019000e7
:10387c00de019000f1f307000000e00001003400cd
:10388c000044eb000804e000020032009e007800c7
:10389c00688f400090858000a185800018c0b3001f
:1038ac004e019000de019000e4f307000000e00000
:1038bc00010034000044eb000804e0000200320078
:1038cc009e007800648f4000b0858000c185800028
:1038dc0018c0b3004e019000de019000d7f3070032
:1038ec000000e000010034000044eb000804e0009c
:1038fc00010032001e8fe800d0858000e185800039
:10390c0018c0b3006e019000fe019000cbf30700cd
:10391c000000e000010034000044eb000804e0006b
:10392c00010032001e0fe80000002000011c2400e2
:10393c00000f9800110f98006000b800200f98003d
:10394c00310f980000002000010a2c00400f980055
:10395c00510f9800708580008185800018c0b300dd
:10396c000200200083192400b4f307000000e000db
:10397c00010034000044eb000804e0002200320097
:10398c00b0858000c185800018c0b3000200200003
:10399c0083192400a9f307000000e00001003400a3
:1039ac000044eb000804e000170032000e09900000
:1039bc009e0990000000200001102400f9f307007c
:1039cc0012c0b3006601070002002000031024009f
:1039dc000e0890009e089000f2f3070022c0b3007e
:1039ec005f010700f00b210011c0b3000148780003
:1039fc001000200010868800000c210011c0b300bc
:103a0c0001487800290137001e0078000000e00012
:103a1c0002003a000000eb00000f78001e00780056
:103a2c00e10f500002003a0010002000000f780057
:103a3c001e007800e20f500002003a002000200027
:103a4c00000f78001e007800e30f500002003a00cf
:103a5c0020002000000f78001e007800e40f5000ba
:103a6c0002003a0040002000000f78001e00780091
:103a7c00e50f500002003a00a0002000000f780073
:103a8c001e007800e60f500002003a00a000200053
:103a9c00000f78001e007800e70f500002003a007b
:103aac00a0002000000f78001e007800e80f5000e6
:103abc0002003a0080002000000f78001e00780001
:103acc00e90f500002003a00a0002000000f78001f
:103adc001e007800ea0f500002003a00c0002000df
:103aec00000f78001e007800eb0f500002003a0027
:103afc00a0002000000f78001e007800ec0f500092
:103b0c0002003a00c0002000000f78001e00780070
:103b1c00ed0f500002003a00a0002000000f7800ca
:103b2c001e007800ee0f500002003a00a0002000aa
:103b3c00000f78001e007800ef0f500002003a00d2
:103b4c00a0002000000f78001e007800f00f50003d
:103b5c0002003a0090002000000f78001e00780050
:103b6c00f10f500002003a000000eb00000f78004b
:103b7c001e007800f20f500002003a00a000200056
:103b8c00000f78001e007800f30f500002003a007e
:103b9c00a0002000000f78001e007800f40f5000e9
:103bac0002003a00c0002000000f78001e007800d0
:103bbc00f50f500002003a00c0002000000f780002
:103bcc001e007800f60f500002003a00c0002000e2
:103bdc00000f78001e007800f70f500002003a002a
:103bec00a0002000000f78001e007800f80f500095
:103bfc0002003a0080002000000f78001e007800c0
:103c0c00f90f500002003a00c0002000000f7800ad
:103c1c001e007800fa0f500002003a00c00020008d
:103c2c00000f78001e007800fb0f500002003a00d5
:103c3c00c0002000000f78001e007800fc0f500020
:103c4c0002003a00c0002000000f78001e0078002f
:103c5c00fd0f500002003a00c0002000000f780059
:103c6c001e007800fe0f500002003a00c000200039
:103c7c00000f78001e007800ff0f500002003a0081
:103c8c00c0002000000f78001e007800e80f5000e4
:103c9c0047003200e80f50000c003c00e10f5000d0
:103cac001f003200e10f500003003c000000e00058
:103cbc000f0032007d003700e20f5000240032006c
:103ccc00e40f50002e00320078003700ea0f50004d
:103cdc004f003200ea0f500041003500ec0f50004d
:103cec005a003200f40f5000670032006f003700aa
:103cfc0012c0b3000e0890009e08900098000700b8
:103d0c000200200003f823000e0890009e0890008b
:103d1c0024f3070022c0b3009100070063003700b2
:103d2c0002002000031024000e0890009e08900052
:103d3c001cf3070012c0b3008900070022c0b300b7
:103d4c002e089000be089000850007005700370031
:103d5c0002002000031024000e0890009e08900022
:103d6c0010f3070012c0b3007d00070022c0b3009f
:103d7c004e089000de089000790007004b003700d9
:103d8c0002002000031024000e0890009e089000f2
:103d9c0004f3070012c0b3007100070022c0b30087
:103dac004e089000de0890006d0007003f003700c1
:103dbc0012c0b3004e089000de08900068000700a7
:103dcc0002002000031024000e0890009e089000b2
:103ddc00f4f2070022c0b300610007003300370083
:103dec0012c0b3002e089000be0890005c000700c3
:103dfc0002002000031024000e0890009e08900082
:103e0c00e8f2070022c0b300550007002700370076
:103e1c0002002000031024000e0890009e08900061
:103e2c00e0f2070012c0b3004d0007000e0990002d
:103e3c009e0990000000200001102400d9f2070018
:103e4c0022c0b30046000700180037000e0990008e
:103e5c009e0990000000200001102400d1f2070000
:103e6c0012c0b3003e000700020020000310240023
:103e7c000e0890009e089000caf2070022c0b30002
:103e8c00370007000900370012c0b3006000b8000b
:103e9c003300070022c0b3006000b80030000700f8
:103eac000000000001003700000000004f04780003
:103ebc000080fa00000006000000fa00116080008b
:103ecc0080ff2f00008060001060880000962000aa
:103edc00206088001161800000c02000010070008b
:103eec001061880023cca80023eca800300020002f
:103efc00206188001162800000c020000100700069
:103f0c001062880043cca80043eca80030002000cd
:103f1c00206288001163800000c020000100700046
:103f2c001063880063cca80063eca800300020006c
:103f3c00206388001164800000c020000100700024
:103f4c001064880083cca80083eca800300020000b
:103f5c002064880001eca8000080fa000000060034
:103f6c000600fa00008fbe00424798004e409000b9
:103f7c00e14f500005003a001e0178009e019000b0
:103f8c001285880023858800050037001e00780004
:103f9c009e00900001f0a200d0848800e18488008b
:103fac000080fa00000006000000fa00889fbe00a6
:103fbc003485800045858000108580002185800037
:103fcc0018c0b3000001be000400be001bf20700c5
:103fdc000000e000010035000044eb000804e000a4
:103fec000d00320018858000298580003485800002
:103ffc004585800000808000118080000001be009b
:10400c000400be0070f207000801be009b0107000f
:10401c003085880041858800348580004585800086
:10402c00108580002185800018c0b3000001be00ff
:10403c000400be0003f207000000e00001003c0099
:10404c000044eb000804e0000d00320018858000ed
:10405c0029858000348580004585800000808000a3
:10406c00118080000001be000400be004df207006c
:10407c000801be0069010700308588004185880071
:10408c00308580004185800018c0b3006011b800f5
:10409c00ecf107000000e00001003d000044eb00e3
:1040ac000804e00014003200308580004185800057
:1040bc0002002000031c240007f407000002be00cd
:1040cc0020808000318080000001be000400be0012
:1040dc003df20700fef10700000078003061880017
:1040ec002080800031808000f9f10700000078000a
:1040fc0070618800140037002080800031808000bf
:10410c00f3f10700000078003061880030858000f2
:10411c004185800001f0a20002002000031c240055
:10412c00edf307000002be0020808000318080008b
:10413c000001be000400be0023f20700e4f10700fa
:10414c000000780070618800f48480000585800090
:10415c00d0848000e184800018c0b3000001be0050
:10416c000400be00b5f107000000e00001003500be
:10417c000044eb000804e0000d003200d8848000fd
:10418c00e9848000f4848000058580000080800034
:10419c00118080000001be000400be000af207007e
:1041ac000801be0035010700f084880001858800f5
:1041bc00f484800005858000d0848000e184800038
:1041cc0018c0b3000001be000400be009df1070042
:1041dc000000e00001003c000044eb000804e0009b
:1041ec000d003200d8848000e9848000f4848000c3
:1041fc000585800000808000118080000001be00d9
:10420c000400be00e7f107000801be00030107002f
:10421c00f084880001858800f0848000018580008e
:10422c0018c0b3006011b80086f107000000e00070
:10423c0001003c000044eb000804e00014003200d4
:10424c00f08480000185800002002000031c240003
:10425c00a1f307000002be002080800031808000a6
:10426c000001be000400be00d7f1070098f1070062
:10427c00000078003062880020808000318080004f
:10428c0093f107000000780070628800140037007a
:10429c0020808000318080008df1070000007800c4
:1042ac0030628800f08480000185800001f0a2005b
:1042bc0002002000031c240087f307000002be004c
:1042cc0020808000318080000001be000400be0010
:1042dc00bdf107007ef107000000780070628800d5
:1042ec00f08480000185800018c0b300020020001b
:1042fc00831b2c0051f107000000e000010034008a
:10430c000044eb000804e0000f0032003085800010
:10431c004185800018c0b30002002000831b2400dc
:10432c0048f107000000e00001003d000044eb00f4
:10433c000804e00004003200052ea800054ea80079
:10434c0095eea80003003700052ea900054ea90024
:10435c0095eea9004f04be000080fa000000060094
:10436c000400fa00881f7800008fbe00210880002e
:10437c00f0fc2f0000806000200888001e017800ef
:10438c009e019000001c2e0041c6240073f2070011
:10439c0018c0b30002f02f00f377240029f10700b6
:1043ac000000e00001003c000044eb000804e000c9
:1043bc005400320021088000f0fc2f0000806000c7
:1043cc000040a000200888001e0178009e0190008b
:1043dc00001c2e0041c6240060f2070002002000e1
:1043ec00031024005df2070018c0b30002f02f0088
:1043fc00f377240013f107000000e00001003c00fb
:10440c000044eb000804e000320032002108800078
:10441c00f0fc2f00008060000050a00020088800f5
:10442c001e0178009e019000001c2e0041c6240045
:10443c004af20700020020000328240047f207007c
:10444c0018c0b30002f02f00f3772400fdf0070032
:10445c000000e00001003c000044eb000804e00018
:10446c0010003200210880000003200001007000c1
:10447c00200888001e0178009e019000001c2e0070
:10448c0041c6240035f20700020020000338240046
:10449c0032f20700edf007000000780010088800e9
:1044ac00200037001e0178009e019000001c2e0099
:1044bc0041c6240029f20700020020000328240032
:1044cc0026f20700e1f007000000780010088800d1
:1044dc00140037001e0178009e019000001c2e0075
:1044ec0041c624001df20700020020000310240026
:1044fc001af20700d5f007000000780010088800b9
:10450c00080037001e0178009e019000001c2e0050
:10451c0041c6240011f20700ccf00700000078001f
:10452c00100888004f0478000080fa000000060094
:10453c000000fa0005e1a90000002400c159240084
:10454c0087ff07000421a9000068a9002068a800c3
:10455c0005e1a8000080fa00000006000000fa0047
:10456c0013e1a90011e1a9001061a8001021a90014
:10457c0081088000f0fc2f00008060000050a0003b
:10458c00800888000a21ef000621ef00e0002000df
:10459c0070088800c0e12400600888002142800077
:1045ac0080ff2f00008060000000a00020428800e7
:1045bc000108a9002108a80011e1a8000080fa0058
:1045cc00000006000400fa00881f7800008fbe006f
:1045dc0018c0b3006011b8001e0078009e00900057
:1045ec0098f007000000e00001003d000044eb00e3
:1045fc000804e000030032001e0078009e009000ca
:10460c00030037001e0078009e00900001f0a2000d
:10461c004f0478000080fa00000006000800fa0041
:10462c00881f7800008fbe0022079800330798007f
:10463c0018c0b3002e019000be0190001e0078003f
:10464c009e0090007ff007000000e00001003c009d
:10465c000044eb000804e000030032001e00780068
:10466c009e009000020037002e009000be009000cb
:10467c004f0478000080fa00000006000800fa00e1
:10468c00881f7800008fbe0022079800330798001f
:10469c0018c0b3002e019000be0190001e007800df
:1046ac009e00900065f007000000e000010035005e
:1046bc000044eb000804e000030032001e00780008
:1046cc009e009000020037002e009000be0090006b
:1046dc004f0478000080fa00000006000c00fa007d
:1046ec00881f7800008fbe002207980033079800bf
:1046fc00440798005507980018c0b3004e0190006d
:10470c00de0190001e0078009e0090004df0070026
:10471c000000e00001003c000044eb000804e00055
:10472c00040032004e019000de019000028fbe00aa
:10473c000e00370018c0b3002e019000be0190008f
:10474c001e0078009e0090003cf007000000e00086
:10475c00010035000044eb000804e00003003200c7
:10476c002e019000be019000028fbe001e0078004a
:10477c009e0090004f0478000080fa0000000600b4
:10478c000400fa00008fbe00b2fd20009304240048
:10479c001e0078009e00900070f1070002002000bf
:1047ac00433324004cf207000080fa00000006009e
:1047bc000400fa00008fbe00b2fd20009304240018
:1047cc001e0078009e00900043f2070002002000bb
:1047dc004333240061f107000080fa00000006005a
:1047ec000200fa00000f78001e007800cf80de0077
:1047fc0052f00700c2f5280023f92b0046f40700fd
:10480c00020027000354240033f207000080fa0052
:10481c00000006000000fa00881f78005300070013
:10482c00630107009c00070041ff07004bff0700d6
:10483c00a1fd07002a01070084aea800856ea80020
:10484c00754ea800e00b210011c0b30001487800a0
:10485c00d0858000e185800018c0b30002002000e4
:10486c00031a2400f5ef07000000e00001003500fa
:10487c000044eb000804e0000200320084cea800e3
:10488c000100370084cea900b0858000c18580006e
:10489c0018c0b30002002000031a2400e7ef070041
:1048ac000000e000010035000044eb000804e000cb
:1048bc000200320084aea8000100370084aea900cb
:1048cc0090858000a185800018c0b30002002000f4
:1048dc00031a2400d9ef07000000e00001003500a6
:1048ec000044eb000804e00002003200848ea800b3
:1048fc0001003700848ea9007085800081858000be
:10490c0018c0b30002002000031a2400cbef0700ec
:10491c000000e000010035000044eb000804e0005a
:10492c0002003200856ea80001003700856ea900d8
:10493c00508580006185800018c0b3000200200003
:10494c00031a2400bdef07000000e0000100350051
:10495c000044eb000804e00002003200754ea80091
:10496c00bbff3700754ea900b9ff37000000fa00f5
:10497c00413a800000fc2f00008060007001b30001
:10498c00403a8800313a800000e02f0080806000bf
:10499c008005200001007000303a8800213a800028
:1049ac00f0f32f0000806000203a8800213a80004c
:1049bc0000fe2f00008060000000a000203a88005c
:1049cc001200200080072000a10920003374200071
:1049dc00804978008149780082497800103a80003b
:1049ec00000178000200a000600420007105200086
:1049fc00237420008049780081497800824978002e
:104a0c0000000000113a8000000027008080600048
:104a1c0000002100808f5000faff3a005927a800af
:104a2c00c13a800080ff2f00008060000000a000d1
:104a3c00c03a8800d03a80007000b300d03a8800a9
:104a4c00c13a8000f0f12f0080806000000c200043
:104a5c0001007000c03a880059a7a80059e7a800c7
:104a6c0000000000c13a80000000240000806000bb
:104a7c000000e000fbff320000000000113a800053
:104a8c0000022000008060000000e000fbff32000c
:104a9c000080fa00000006000000fa0021e3a900e3
:104aac002143a80001198000f0cf2f000080600086
:104abc00001988002043a90001198000000e200075
:104acc00010070000019880011198000f0ff21000e
:104adc0000806000101988002343a8001119800081
:104aec00f0cf2f0000806000101988001119800091
:104afc0030f82f00008060000040a00010198800e2
:104b0c002203a9002223a90025e3a900f0c0b300c9
:104b1c0024e3b70021198000f00f2e008080600084
:104b2c0000f0200001007000201988003303a90058
:104b3c001f2ea8001f4ea8001e0ea8001f0ea800b6
:104b4c001f6ea8003123a8003143a8003003a80031
:104b5c003103a8003163a8004119800000fe2f002a
:104b6c00008060004019880028e3a90001a8a90072
:104b7c0021a8a80021e3a8000080fa00000006008c
:104b8c000000fa002023a8000080fa0000000600b4
:104b9c000000fa00400c21000080fa000000060022
:104bac000000fa0015d0bf000080fb000080fa0066
:104bbc00000006000000fa001570ef000080fa00fb
:104bcc00000006000000fa000cd0bf000080fa00c4
:104bdc00000006000600fa00100798002107980054
:104bec000040eb00004f780036000700ae0090004c
:104bfc00810f5000140034000040eb00004f78008f
:104c0c0008003700e16222001e80fb001e019000ac
:104c1c0000004100104078000080fb000100010002
:104c2c001e4fe8009e80fb002e009000808f5000ed
:104c3c00f4ff3500e3ff07000004e00002003a0037
:104c4c0080642200000001000080fa0000000600d1
:104c5c000200fa00004f78001300070081012100c8
:104c6c00008040001e4878000080fa00000006001a
:104c7c000000fa0080012100104078000080fa004a
:104c8c00000006000200fa0010c0b3000cf0b700e0
:104c9c00f7ff0700004f78001e80fb00a011880072
:104cac000080fa00000006000200fa00418080003b
:104cbc0050808000008f40001e0078000080fa00b9
:104ccc00000006000200fa00f7ff070001082000b0
:104cdc00008f50001e0078000080fa0000000600d3
:104cec000000fa003002a9008111800090ff2f0013
:104cfc00008060008011880030a2a9003062a800fa
:104d0c0010082000c011880033a2a90033e2a900ca
:104d1c0003e8a90023e8a90091118000f0f32f000b
:104d2c00008060009011880003c8a90023c8a80067
:104d3c0031e2a8003342a8000080fa00000006000f
:104d4c000600fa0010079800210798000040eb00bd
:104d5c00004f78000040eb00004f78000e00370049
:104d6c0000000000911180000020200000806000f5
:104d7c000000e000fbff3a001e009000104078009d
:104d8c000080fb00a01188001e0090000000e800cd
:104d9c00100798001e4fe8009e80fb002e0090002c
:104dac00808f5000eeff35000080fa0000000600f6
:104dbc000000fa000e2eef001e2eef003e2eef002c
:104dcc002e2eef004e2eef006e2eef0080cea9009f
:104ddc0091eea90080aea900000ea900808ea9005a
:104dec00012ea900816ea900014ea900714ea900e7
:104dfc00706ea900160007003136800000f82f00f5
:104e0c00008060002001b3003036880081348000bf
:104e1c0000fc2f00008060003000b300803488005c
:104e2c00020007000080fa00000006000000fa00f3
:104e3c002174200062042000730520008248780051
:104e4c008348780042c7a8000080fa0000000600e2
:104e5c000000fa0021742000620420007305200079
:104e6c00824878008348780042c7a9000080fa0085
:044e7c00000006002c
:020000040000fa
:104e80000e1000000400000080000000121000005e
:104e900002000000820000000100000098100000e5
:104ea0002c0000008000000000100000080000003e
:104eb00082000000333333003f000000484200000e
:104ec000c410000028000000800000001410000042
:104ed00002000000800000001810000080000000a8
:104ee00080000000081000000600000080000000a4
:104ef000161000000200000080000000ec1000000e
:104f00001800000082000000000080003f00000048
:104f1000c03f0000000000005aef670032000000b0
:104f200000001a00c0153f0004110000020000003c
:084f30008000000000000000f9
:020000040000fa
:0200000401f009
:04000800cfffff0027
:020000040000fa
:0200000401f009
:04000c00f9ffff00f9
:020000040000fa
:0200000401f009
:040010005bffff0093
:020000040000fa
:0200000401f009
:040014007fffff006b
:020000040000fa
:0200000401f009
:04001800cfffff0017
:020000040000fa
:0200000401f009
:04001c00deffff0004
:020000040000fa
:0200000401f009
:04002000cfffff000f
:00000001FF
