:020000040000fa
:080000000002040000000000f2
:020000040000fa
:04000800720400007e
:020000040000fa
:04000c00720400007a
:020000040000fa
:040010007204000076
:020000040000fa
:040014007204000072
:020000040000fa
:04001800720400006e
:020000040000fa
:04001c00720400006a
:020000040000fa
:040020007204000066
:020000040000fa
:040024007204000062
:020000040000fa
:04002800720400005e
:020000040000fa
:04002c00720400005a
:020000040000fa
:040030007204000056
:020000040000fa
:04003400fa020000cc
:020000040000fa
:04003800720400004e
:020000040000fa
:04003c00720400004a
:020000040000fa
:040040007204000046
:020000040000fa
:040044007204000042
:020000040000fa
:040048004c03000065
:020000040000fa
:04004c00720400003a
:020000040000fa
:040050007204000036
:020000040000fa
:040054007204000032
:020000040000fa
:04005800720400002e
:020000040000fa
:04005c00e0030000bd
:020000040000fa
:040060007204000026
:020000040000fa
:040064007204000022
:020000040000fa
:04006800720400001e
:020000040000fa
:04006c00720400001a
:020000040000fa
:040070007204000016
:020000040000fa
:040074007204000012
:020000040000fa
:04007800720400000e
:020000040000fa
:04007c00720400000a
:020000040000fa
:040080007204000006
:020000040000fa
:040084007204000002
:020000040000fa
:0400880072040000fe
:020000040000fa
:04008c0072040000fa
:020000040000fa
:0400900072040000f6
:020000040000fa
:0400940072040000f2
:020000040000fa
:0400980072040000ee
:020000040000fa
:04009c0072040000ea
:020000040000fa
:0400a0002e0400002a
:020000040000fa
:0400a4000404000050
:020000040000fa
:0400a80072040000de
:020000040000fa
:0400ac0072040000da
:020000040000fa
:0400b00072040000d6
:020000040000fa
:0400b40072040000d2
:020000040000fa
:0400b80072040000ce
:020000040000fa
:0400bc0072040000ca
:020000040000fa
:0400c00072040000c6
:020000040000fa
:0400c40072040000c2
:020000040000fa
:0400c80072040000be
:020000040000fa
:0400cc0072040000ba
:020000040000fa
:0400d00072040000b6
:020000040000fa
:0400d40072040000b2
:020000040000fa
:0400d80072040000ae
:020000040000fa
:0400dc0072040000aa
:020000040000fa
:0400e00072040000a6
:020000040000fa
:0400e40072040000a2
:020000040000fa
:0400e800720400009e
:020000040000fa
:0400ec00720400009a
:020000040000fa
:0400f0007204000096
:020000040000fa
:0400f4007204000092
:020000040000fa
:0400f800720400008e
:020000040000fa
:0400fc00720400008a
:020000040000fa
:040100007204000085
:020000040000fa
:040104007204000081
:020000040000fa
:04010800720400007d
:020000040000fa
:04010c007204000079
:020000040000fa
:040110007204000075
:020000040000fa
:040114007204000071
:020000040000fa
:04011800720400006d
:020000040000fa
:04011c007204000069
:020000040000fa
:040120007204000065
:020000040000fa
:040124007204000061
:020000040000fa
:04012800720400005d
:020000040000fa
:04012c007204000059
:020000040000fa
:040130007204000055
:020000040000fa
:040134007204000051
:020000040000fa
:04013800720400004d
:020000040000fa
:04013c007204000049
:020000040000fa
:040140007204000045
:020000040000fa
:040144007204000041
:020000040000fa
:04014800720400003d
:020000040000fa
:04014c007204000039
:020000040000fa
:040150007204000035
:020000040000fa
:040154007204000031
:020000040000fa
:04015800720400002d
:020000040000fa
:04015c007204000029
:020000040000fa
:040160007204000025
:020000040000fa
:040164007204000021
:020000040000fa
:04016800720400001d
:020000040000fa
:04016c007204000019
:020000040000fa
:040170007204000015
:020000040000fa
:040174007204000011
:020000040000fa
:04017800720400000d
:020000040000fa
:04017c007204000009
:020000040000fa
:040180007204000005
:020000040000fa
:040184007204000001
:020000040000fa
:0401880072040000fd
:020000040000fa
:04018c0072040000f9
:020000040000fa
:0401900072040000f5
:020000040000fa
:0401940072040000f1
:020000040000fa
:0401980072040000ed
:020000040000fa
:04019c0072040000e9
:020000040000fa
:0401a00072040000e5
:020000040000fa
:0401a40072040000e1
:020000040000fa
:0401a80072040000dd
:020000040000fa
:0401ac0072040000d9
:020000040000fa
:0401b00072040000d5
:020000040000fa
:0401b40072040000d1
:020000040000fa
:0401b80072040000cd
:020000040000fa
:0401bc0072040000c9
:020000040000fa
:0401c00072040000c5
:020000040000fa
:0401c40072040000c1
:020000040000fa
:0401c80072040000bd
:020000040000fa
:0401cc0072040000b9
:020000040000fa
:0401d00072040000b5
:020000040000fa
:0401d40072040000b1
:020000040000fa
:0401d80072040000ad
:020000040000fa
:0401dc0072040000a9
:020000040000fa
:0401e00072040000a5
:020000040000fa
:0401e40072040000a1
:020000040000fa
:0401e800720400009d
:020000040000fa
:0401ec007204000099
:020000040000fa
:0401f0007204000095
:020000040000fa
:0401f4007204000091
:020000040000fa
:0401f800720400008d
:020000040000fa
:0401fc007204000089
:020000040000fa
:040200007204000084
:020000040000fa
:040204007204000080
:020000040000fa
:04020800720400007c
:020000040000fa
:04020c007204000078
:020000040000fa
:040210007204000074
:020000040000fa
:040214007204000070
:020000040000fa
:04021800720400006c
:020000040000fa
:04021c007204000068
:020000040000fa
:040220007204000064
:020000040000fa
:040224007204000060
:020000040000fa
:04022800720400005c
:020000040000fa
:04022c007204000058
:020000040000fa
:040230007204000054
:020000040000fa
:040234007204000050
:020000040000fa
:04023800720400004c
:020000040000fa
:04023c007204000048
:020000040000fa
:040240007204000044
:020000040000fa
:040244007204000040
:020000040000fa
:04024800720400003c
:020000040000fa
:04024c007204000038
:020000040000fa
:040250007204000034
:020000040000fa
:040254007204000030
:020000040000fa
:04025800720400002c
:020000040000fa
:04025c007204000028
:020000040000fa
:040260007204000024
:020000040000fa
:040264007204000020
:020000040000fa
:100400008f2521000eff2d000e0188000000000046
:10041000000020000000e000020032000001200087
:100420002002880014000700300107000000e000ef
:1004300003003a0020e522000100200002003700fe
:100440000000200001002000810f70000100320038
:100450000f000700000020000000e0000200320052
:1004600000000200000000009c2c020000000000c0
:100470000040da000000fe00200020000000e00044
:1004800002003200100020009001880000000600e9
:10049000a1028800800478000000eb001f003700f4
:1004a000e284440054a0b4009905ba00e2844400f8
:1004b00054a0b4009906ba00e284440054a0b400e9
:1004c0000006eb00476fde00fd07b200ae018800ba
:1004d000636ce10003003a000ad801000000eb0061
:1004e0000e003700606ce10008003a00004deb00a0
:1004f0000a05e800020039003420ec000af0a000f0
:100500008b05e900f9ff3e00040037006168e10057
:10051000010032000086eb000b00070019c7ba008b
:100520000e04e0001905ba0003003a000a00e000da
:10053000dbff3a0000000600fe07b200ae028800b2
:100540008a047800f5ff37000cd0a300e20f4d00bd
:100550001c003b0089027800354dba000a05e8000e
:10056000020039003420ec000af0a0008b05e900fd
:100570000f003200254dba000a05e80002003900dc
:100580003420ec000af0a0008b05e90008003200de
:100590000c00e0000600320015cdba000a05e800a4
:1005a000020039003420ec000af0a0008b05e900bd
:1005b0008984e80054a0b4000b00e000e2ff3a0098
:1005c000000006009902ba00055d78008b05e9007d
:1005d000f7ff3200c82ade00055d78008b05e900d0
:1005e000f3ff32000c00e000f1ff320019ddba0029
:1005f000eeff37003600f800809fbe00829fbe00ed
:10060000849fbe00869fbe000000fa000068a9001b
:100610002c1107004810070090908000a1908000e6
:10062000f226210033b823001401070090908800bf
:10063000a1908800e0808000f80f50000200340094
:10064000ec1107001c30ef00e08080000000e800a3
:10065000e0808800a71407001ad0bf000004e00063
:1006600004003a00040ea80010c0b3001af0b7004e
:1006700002003700040ea9001a70ef000080fa0093
:100680004f03be004f02be004f01be004f00be0030
:100690003600f900004006003600f800809fbe00da
:1006a000829fbe00849fbe00869fbe000000fa00ad
:1006b000501e2100104078000004e00003003200ca
:1006c000408f80000000e900408f8800408f80004c
:1006d0000000e0000c00340012c0b3000000200055
:1006e000011a2c000210070022c0b30000002000f5
:1006f000011a2400fe0f0700401e21008040eb007d
:100700000148780003003700401e210011c0b300eb
:10071000014878000108a900907380006200600021
:100720000000e000030032003870ef0010c0b3009a
:100730001ef0b7001ed0bf000004e0001900320018
:10074000a07380006800600000f0a7000000ea00cd
:100750000000e9004f00de00004078000080fb0050
:10076000610060004300dd00a17380000130a10042
:1007700001007000a0738800008180000000e80084
:100780000081880001818000b0032000808f50002c
:100790000400340010c0b30038f0b7001e70ef0042
:1007a0002030ef000080fa004f03be004f02be0071
:1007b0004f01be004f00be003600f90000400600a9
:1007c000801f78000000fa0001a8a900001880002e
:1007d000b090880010188000c09088002018800019
:1007e000d090880030188000e09088004018800089
:1007f000f090880010c0b3003bf0b7000080fa0012
:100800004f007800004006003600f800809fbe00d0
:10081000829fbe00849fbe00869fbe000000fa003b
:1008200003e8a9006181800050818000808f500022
:100830000200320089130700010037002e70ef001c
:100840000080fa004f03be004f02be004f01be0001
:100850004f00be003600f900004006003600f800e8
:10086000809fbe00829fbe00849fbe00869fbe0008
:100870000000fa0003c8a900901180006400600025
:100880000000e000010032003242a9009011800017
:10089000620060000000e000060032003222a90081
:1008a00005003700b011800000407800b91407003f
:1008b000010037000000000090118000610060001e
:1008c0000000e000f7ff3a000080fa004f03be008e
:1008d0004f02be004f01be004f00be003600f900bf
:1008e000004006000040da000000fe0000000500a5
:1008f00014002000ad033700f4ff2f00ab033700d6
:100900000001be003f0007000470a70003f0a10033
:100910006509b100160032000d0035006828e100bd
:1009200006003500f0ff2f00f1ff27000300e00074
:1009300013003b00010028000000050000004000fb
:10094000818048008502e900fcff3a00080037007a
:10095000f88f420002003c008000eb000000050020
:100960008100d1000080d3008502e800fcff3a003e
:100970000300e00002003b0060001000e08018006f
:10098000000006000001be001e0007000470a70062
:1009900003f0a10003f8a30013003a006509b100b9
:1009a00010003200090035006928e100020035001e
:1009b0000100280000000500000040008180480080
:1009c0008502e900fcff3a0000000600f88f4200b3
:1009d000050035008100d1000080d3008502e800c9
:1009e000fcff3a00000006008000eb00000005005c
:1009f0004f89de0082017800870337006011b8005c
:100a000095033700c70ade00f107b200f50fb20008
:100a100008003200e1cf4200020032000170a00065
:100a200024000500810f7000010032000408050059
:100a300044000500810f700002003a001400050018
:100a40008502e9000000400081c04800fcff3b0037
:100a50000170a0002400050007f82700078361004b
:100a60000638e10004003a00f707200087836100a0
:100a70008703710001003a0003f0a200889fbe00c6
:100a80008a9fbe008c9fbe00470ade000480a10042
:100a9000c71ade000580a100070028000785600056
:100aa00087856100f70f20000720e1009e003200db
:100ab0000728e1009c003200010678000400e000f5
:100ac000b4003200f7072000878060000170a000aa
:100ad0000500e000c0003200f707200087816100b8
:100ae0000370a000050652000f003a000b50e10011
:100af0000b0032000308e10002003a000200e100ae
:100b00007e0032000204500083845800040031004b
:100b10000001fd008101fd008402fd008a05fd0049
:100b20006044b800210037000520e10005003d00c9
:100b30000001fd008101fd008402fd008a05fd0029
:100b4000050652007a60e100050035000170a10041
:100b50004722dd00848070008a80700063003700c7
:100b60006044b800ef02660007ff2f00070666002a
:100b70000500e00006003400f08312008714dd0059
:100b80000511de00071bdd00060171008519de007e
:100b90007060e100050035000904780082047800e7
:100ba000030178008001eb00700656000b50e10055
:100bb00003003a0002004000838048000400370030
:100bc00060041400e0841c00020058008380580078
:100bd0000188a300060032008100d1000080d3000c
:100be0008984d3000884d3000402e800270037007a
:100bf0000178a30025003a000100e0000300320064
:100c00008186cf00698656000a0037008c002000dc
:100c10000000e00004003a00090078008804780031
:100c20000004eb00700252008086cf000d064600e3
:100c30000c06e9007060e1000600350080007800d5
:100c400009007800880478000004eb007006560064
:100c5000700252000c00e0000c0034008c08dd0033
:100c6000f00316000703de00868070000c00dd0034
:100c7000074bde00060070008c4cdd000743de00f1
:100c8000868474000c44dd000c0252006120e100f7
:100c900020003500610160000700280087816400a2
:100ca000f7ff270087836400070374000300e00058
:100cb0000600320082037300040032000000e800e6
:100cc000e08048000188a3000e003a00f70f2000e2
:100cd0000720e1004a003d000170a1004722dd002d
:100ce000810072008a8070000000be004f06be00c6
:100cf0004f05be004f04be00000006006000b800b3
:100d0000faff37008100d1000080d3000402e80020
:100d1000eeff37000401780089017400a10107008b
:100d20008a807000f1ff3700f701070007027800a2
:100d30000001fd008101fd00f3010700870278003a
:100d4000850372000778a300040032000001fd0053
:100d50008101fd0006020700e4ff37008503620001
:100d60000768a300080032000b50e10003003200c6
:100d7000f0ff2f00f1ff2700dcff37000001fd002e
:100d80008101fd00d9ff37000468a300d7ff3200be
:100d9000faff3700f8ff2700888360000b003a0055
:100da0000000e00009003a008303640082837300be
:100db000020032000200be00ccff37000b50e10001
:100dc000ceff3a000200be00c8ff3700140020002a
:100dd000810064003eff3700f8ff27008883610030
:100de00004003a000200e00002003a008c007800a3
:100df000beff3700150020008301640039ff370073
:100e000001f827000000200081007500b7ff3700bf
:100e1000889fbe008a9fbe008c9fbe001b002000e2
:100e20000202be000586680006002800060666006d
:100e30004709de00f20fb200820032000243e800f0
:100e400080003200c729de00f30fb2007d003200bf
:100e50000343e8007b003200f107b2000170a000fc
:100e6000f507b2000570a000c708dd004903de00e9
:100e7000868070004700dd00c72add004923de00c0
:100e8000868272004722dd000305510004035000f2
:100e90008583580003003100000040008180480035
:100ea0000a05e9008c1f78008a9fbe0004005000ec
:100eb000858058000402420085824a0000004000fc
:100ec000818048000005eb000004be006033b800dc
:100ed0000406be000d48e100560031001100090073
:100ee0004dccd8000c01b8000d02b800848141003f
:100ef00060824a008283530003045c0084845c00a7
:100f000060055d000a00e00025003a0080057800d9
:100f10000d40e100490031008800780007007800aa
:100f2000110009004d88d8000c01b8000d02b8006e
:100f30008481410060824a006003110083835b006a
:100f400004045c00e0845c000900e00021003a0039
:100f50004f01be000300e0002b003200e3016000ff
:100f6000070673008c81710001003200640070007c
:100f70004200de004e5edd000c007000c258de0054
:100f800001e0a00083010700cf017800818071009b
:100f90004f06be004f05be004f04be000000060015
:100fa0008c8343000d044c00e0844c0060054d0030
:100fb0000000e9000a00e000d4ff32008c83430007
:100fc0000d044c00e0844c0060054d000000e90079
:100fd000ceff37000c0343008d834b0060044c00b0
:100fe000e0844c000000e9000900e000d8ff320076
:100ff0000c0343008d834b0060044c00e0844c00e4
:101000000000e900d2ff37004200de004e5edd0046
:101010000c007000c258de0001e0a000cf01780093
:101020000300e000daff320060001000e0801800ea
:10103000d7ff3700f0ff2f00aaff3700f0ff2f0087
:10104000b9ff37000404be002f01070087067800af
:101050000004fd008104fd002b01070007836600ea
:101060000678a300030032000960a7000800be0054
:101070002c0037000d78a300020032000800be00eb
:10108000280037000778a30026003a0001f0a100ed
:1010900009f0a1000668a30003003200f1ff270059
:1010a000f0ff2f00baff37000d68a30003003200e5
:1010b0000800be008c807000b5ff37000768a300f1
:1010c00007003a000648a30003003200f1ff2700a2
:1010d000f0ff2f00aeff37000d48a30003003200e1
:1010e0006000b8008c807000a9ff37000748a3009b
:1010f0000400320001f82700000020008c807000fe
:10110000a3ff3700760107000004fd008104fd0005
:1011100002057800720107000802be008a0178000b
:1011200059ff37000160a00012022000e281880010
:1011300097ff37000100e000120032000500e000d8
:1011400010003200889fbe008a9fbe008c9fbe00a8
:101150000006eb0001f8a30003003200600010005d
:10116000e08018000cf0a00005f8a3000300320096
:1011700060021200e0821a000cf0a2008005eb0071
:1011800041ff37006000b8000200050003836800db
:101190000700280007036300470ade000480a1005f
:1011a000c71ade000580a100f70f20000720e1002c
:1011b000420032000728e10040003200889fbe0054
:1011c0008a9fbe008c1f7800f107b200f307b200bf
:1011d0000400e000640032000170a0000500e0009f
:1011e000680032000370a00085054200eb07b100e3
:1011f0000204b8000302b8008484440060854a00f9
:10120000020ab800848444000a854a00030ab80030
:1012100004054500040033000804d0008984d2008e
:101220000a85d2008b05e9006158e1003d003500d8
:10123000021020000901610003082000898161007b
:10124000f70720008783640008867300c84cde001f
:10125000c853dd00878474004855de000300e000b9
:101260000600320082037600040032008904e800a0
:1012700060054d000a88a3000c003a00f70f20001b
:101280000758e10044003d000a70a100c75ddd0081
:101290000a8575008a007300090078004f067800ff
:1012a0004f05be004f04be00000006000a05d10035
:1012b0008984d3008b05e800f0ff3700881f780091
:1012c0000604780090000700070278000001fd0086
:1012d0008101fd008c000700870278008503720001
:1012e0000778a300050032000001fd008101fd0028
:1012f0009f0007004f04780000000600850372007d
:101300000748a30003003200f0ff2f00f1ff270081
:10131000f8ff37000000200001f8270088807000e7
:10132000f4ff3700880178004848dd0080817100b3
:101330004848de00c850dd0001007000c850de00e3
:10134000060478000b017800160007008880700002
:10135000d2ff37000500e000050032001700200032
:101360003a0007009dff370081037000f9ff3a0043
:10137000860078004f0678004f05be004f04be007f
:101380000000050083037100f9ff320027002000f0
:101390002e00070094ff370001f8270086807000b8
:1013a000f4ff37000100e000260032006101110067
:1013b0007810e10023003c006022b8007010e100ca
:1013c0000400350080027800010078008000eb0006
:1013d000700151000200e0000900340070031100a8
:1013e000062add00822ade008603dd008782720085
:1013f0000200de00860bdd00070070008208de00c0
:1014000084817100f4ff27000482620084817100ee
:1014100004002800848262006102600005f0a600da
:101420000000060004827100070032000000e8009e
:10143000e0804800000006000002be006000b80026
:10144000efff37006000b80000000600889fbe0074
:101450000004eb006138e10016003a000100e000f2
:1014600008003a00c800de004800dd0088002000c7
:101470000100e00003003a00c800de004800dd0083
:10148000680444008184cf00e984540006003400dd
:101490008908dd00f08314008703de008780700078
:1014a0000900dd0009044400610214004f04be007d
:1014b000000006000300e00008003a00c811de004a
:1014c0004811dd00880020000300e00003003a001e
:1014d000c811de004811dd00680444008384cf0099
:1014e000e9845400060034008919dd00f0831400fb
:1014f0008713de00878171000911dd0009044400b3
:10150000e1021400e9ff37002700200001f0a700e6
:1015100017002000470bde00f60fb2000400320077
:101520000643e8000a0032004702b300000006004c
:1015300001037800f607b2000603700002003a00cb
:101540000703b300000006008702b3000000060096
:1015500001037800f607b2000603700002003200b3
:101560000770a000000006000760a0000000060051
:101570000478a300040032000578a30003003200c1
:101580000168a30001003a000200be000160a00053
:101590000000060081017000270032008002eb008d
:1015a00001f8a3000300320060001000e080180082
:1015b00015002000f4072000020242002000340041
:1015c000f703200087036000060420000003630087
:1015d00002082000000161004700de00c909dd00ab
:1015e00000807100c708de000600e000080032003d
:1015f00087037100060032001000b0000180b000c7
:101600000188a30002003200c108de000402e800e5
:10161000f107b200f30f20000320e10003003d00ba
:101620004722dd00810072002900370001f8270001
:101630000000eb00260037006000b8000000060044
:10164000680212007f20e100020034006000b80050
:101650001f0037006011b8007020e1000400350061
:1016600080017800010078008000eb0070025200d9
:101670000400e00009003400f00312000719dd0047
:101680008419de000703dd00868171000400de009e
:10169000070bdd00060070008408de00f7ff27005e
:1016a000838363008703710006002800030363003f
:1016b000070032000700e00003003a00610160000b
:1016c00002817300020032001000b0000180b000ff
:1016d0000500a6000000060001f0a00000000600c2
:1016e0004f0ade004709de00f107b200f20fb20038
:1016f0000b003200f207b1000170a000c708dd0046
:10170000c901de00838070004700dd000400a600f0
:101710000000060060001000e080180000000600d5
:10172000810f700001003a00000006008182cf00a6
:101730000500e00010003e008082cf00ee824200f3
:101740007028e1000400390007003e0080007800a6
:101750000000eb000e003700708312008600de00f0
:101760000500dd000a003700708352008600dd00ae
:101770000000eb0006003700e28252008508dd0021
:10178000708312000603de00868070000500dd0015
:101790007507b0000501ea000400a600000006007d
:1017a00060001000e080180000000600889fbe0066
:1017b0008a9fbe00841f78007c0007004f007800dd
:1017c00011003300f0ff2f00838f6c0006003b00f8
:1017d000040565000a00a7000800370009f0a6000c
:1017e0001000200008003700820f5400838f5c0037
:1017f000030039001000200001003e00000020001e
:1018000009f0a7000000ea004f05be004f04be002b
:101810000000e00000000600881f78000304780044
:101820000300e00007003d0060001000e0801800a9
:1018300060011900e081190002003b0001f02d0059
:10184000030037000400070008f0a70001f0a00023
:101850004f04780000000600889fbe008a9fbe00eb
:1018600000827000040271000482710026003200c0
:101870000004be000200be006011b8006b09200029
:10188000950220000182cf000a0039000541b10015
:101890000082cf00070039000541b1000982cf0066
:1018a000040039000541b1000882cf000100390071
:1018b0000541b10005425200120032000a003b000f
:1018c00082817100610164008100d1000080d30039
:1018d0008984d3000884d3008b05e8000442e80023
:1018e000f7ff3a00070037000804440089844c00e1
:1018f00000004800818048008b05e9000442e900af
:10190000f9ff3a00030007004f05be004f04be0078
:101910000000060081002000618055000b003d00a2
:101920000b00200061fe2f000100e1001d003400cb
:1019300082817100610164008904d1000884d300b0
:101940000000e800faff3a00710020006100640026
:1019500003007000020060000900320061044400ce
:10196000e0844c000988a500050032008b05e800e2
:101970006808e10002003a008904d1000884d3001d
:10198000f20f20000258e10005003d00c75ddd00b8
:10199000f907b20089807500080078000000060091
:1019a0000bf827008b007800000005000004be0043
:1019b00014fc07000003be000405be000200be00c8
:1019c00010fc0700844f7500000006000800fa00b4
:1019d0000002be008501780003f0a100000178003c
:1019e000a6fd200097f42300860f5100878f590031
:1019f0000d003e00f4ff2f00f5972300840f5100e7
:101a0000858f59005a003e000200200003b82700cd
:101a10001afc0700e0bf9f00f1bf9f0000002000fc
:101a200001f82300600037004f0ade0005002000a7
:101a3000163d2500b7072400860f5100878f5900f7
:101a400019003e0036be2c0067012400860f5100ad
:101a5000878f59000a0036000400e00004003200bd
:101a6000b2fd20009304240004fc07004800370066
:101a7000b2fd200093042400f7fb07004400370068
:101a80000400e00004003200b2fd200093fc2300bb
:101a9000fafb0700430037000001be00b0fd200044
:101aa00091fc230019003700561d2300270e240047
:101ab000860f5100878f590016003e00f6dd2e007c
:101ac000f70a2400860f5100878f59000a0036005c
:101ad0000400e00004003200b2fd2000930c24005a
:101ae000e6fb070022003700b2fd2000930c240023
:101af000d9fb07001e0037000400e000010032009f
:101b000001f0a20042be2c0063092400d2fb0700b2
:101b100024003700f4ff2f00f5f72700840f510051
:101b2000858f5900030036000001be00cafb070084
:101b30001d003700688157001e0607006011b800bd
:101b400063016000e10f5100e08f59000a0032008c
:101b5000e20f5100e08f59000b003200e00f5100fe
:101b6000e08f59000d003a004fb89700dfb897009a
:101b7000e20507000c0037004fb89700dfb8970068
:101b800001f0a200070037004fb89700dfb89700b8
:101b9000da05070001f0a200030037004fb89700f4
:101ba000dfb897005c0607000080fa00000006001e
:101bb000000006000400fa00889fbe008a9fbe0055
:101bc0008c9fbe000004be000205be00020641005c
:101bd00083864900e00f5600e08f5e00140032005b
:101be0000200be0082bf9f0093bf9f00f0ff07006e
:101bf0008102780005f0a1000002780000002000ba
:101c000001f827000fb997009fb99700800f520085
:101c1000818f5a0006003e000802be00474bde00de
:101c2000070020000680fb00e14f430005003a005a
:101c30000800be0055fd07000001be0074fc07004f
:101c4000090037000801440089814c008c0f5100c5
:101c50008d8f590006003e0074003a006011b800f4
:101c60000800be0049fd07000004be006f003700f9
:101c70000000e00013003a004949dd00c741de00e2
:101c8000830171004941dd00030037000000e900d5
:101c90000201410083814900e00f5100e08f5900ab
:101ca000faff3d00e10010000401be008100e900e0
:101cb000030033000201410083814900fbff37002c
:101cc0000400370085017800f307b20008017800ae
:101cd0000370a000475bde0007002000860078004c
:101ce000f10fb20012003a00495bdd00c753de007d
:101cf000870373004953dd00030037008100e900ca
:101d00000603430087834b00e00f5300e08f5b0026
:101d1000faff3d00618310000603e9000300330071
:101d20000a0545008b854d00fbff3700100037008a
:101d30008b037800f707b2000a0378000605be009f
:101d40000b70a0000a003700e00f5300e08f5b002b
:101d500004003500e00f5300e08f5b00bfff32004e
:101d60000601be0002014100838149000000e90034
:101d70000a0351008b835900810f5000f2ff3c0091
:101d8000e00f5300e08f5b0003003d0009003700c7
:101d90000601be0007003700e00f5300e08f5b0034
:101da000fbff3a00adff370002014100838149008b
:101db0000000e900471bde0007002000e00f530091
:101dc000e08f5b00f8ff32000000e0000a00340002
:101dd0000600200007f82f000201430083814b001a
:101de000cf80de00c700dd0000002000020170008f
:101df0008381700006003700610010000000e900d8
:101e0000030033008301d1000281d300fbff3700c0
:101e10000000200001002800858360000003780096
:101e200006017100878171000204be000800be0037
:101e30004f06be004f05be004f04be000080fa00f2
:101e4000000006004f02b000889fbe008a9fbe00bf
:101e50008c9fbe008e1f78000005be000204be00ed
:101e6000b2af9f00c3af9f00b2b79f00c3b79f0040
:101e7000cfae97000df0a10002067800e00f5600eb
:101e8000e08f5e00c3033200faaf9f008bb79f0064
:101e90000000200001f82300800f5500818f5d00b5
:101ea000bc0332008fb2970005f0a1007faa970013
:101eb00094b79f00a5b79f000000200001f82700fd
:101ec000800f5200818f5a0003003c00800f5600a3
:101ed000818f5e00040034000a01be000800be00cd
:101ee000e6fa0700b20337006033b8007fa9970015
:101ef0008fb19700e00f5100e08f590029003d009d
:101f00002600200007002000f0ff2f00f1b724007a
:101f1000800f5600818f5e0022003c006033b800c5
:101f2000f0ff2f00f1f72300800f5600818f5e0035
:101f30003300340047e8de00cfe8de00f007b100f0
:101f40000180b100770110000c00be008201780012
:101f50008301e900030033008180d1000080d300b9
:101f6000fbff37000003be00020778000e07e90000
:101f7000030033000603430087834b00fbff370059
:101f80000601be006033b8008c0f51008d8f5900e0
:101f90001b003a006103600062031300e0831b0032
:101fa000170037000000200001f82700800f5600be
:101fb000818f5e0012003a000000200001f823002b
:101fc000800f5200818f5a007203320006003400e5
:101fd0003fb09700cfb09700e00f5000e08f58005f
:101fe00074033d006e0337003fb19700cfb19700f7
:101ff000e00f5100e08f590069033d006900370090
:102000000000200001f82300800f5600818f5e0041
:1020100009003a003fb29700cfb29700e00f52009c
:10202000e08f5a0060033d000a01be00000020005e
:1020300001f82300550037000000200001002400b3
:102040003fb19700cfb19700800f5100818f5900a9
:1020500003003a000a01be000a00be004b0337002d
:102060000000200001f023003fb19700cfb197009e
:10207000800f5100818f590008003a007fa8970017
:102080008fb09700e00f5000e08f5800030035003c
:102090000a00be000f040700450337000a00be0017
:1020a000f4b79f0085bf9f00d6b79f00e7b79f009a
:1020b000550507000200200003f827007fb29700b3
:1020c0008fba97005fb39700efb39700820f52006b
:1020d000838f5a0008003200e00f5200e08f5a0050
:1020e000050032000200200003f82300820f520096
:1020f000838f5a002d003a003fb19700cfb197006f
:10210000e00f5100e08f59000c003d000001be00bf
:102110000000200001f82300f4b79f0085bf9f0056
:10212000d6b79f00e7b79f0039fb07007fb2970043
:102130008fba97005fb39700efb397007fa997001e
:102140008fb19700e00f5100e08f590018033d0058
:102150000200200003082c0004024100858249008f
:102160000402730085827300e00f5200e08f5a0072
:1021700008003a0012022000b29288000001be005e
:102180000200be0034fa07000001be0020fb070079
:1021900007033700e10f5300e08f5b0004033a00b0
:1021a0000004be0009f0a200020337007fa99700d7
:1021b0008fb19700e00f5100e08f59000d003d00f6
:1021c000e00f5300e08f5b0004003a001002200093
:1021d000b09288000a01be00e9ff3700e10f53000a
:1021e000e08f5b00080032000600200007f82300a3
:1021f000070037000200200003f82300f2af9f0021
:1022000083b79f00040037000600200007f82b006a
:10221000f6af9f0087b79f000200200003d0240084
:10222000820f5600838f5e005600340072ff2f002d
:10223000f3f72300820f5200838f5a0006003c0000
:102240003fb09700cfb09700e00f5000e08f5800ec
:1022500007023d00e50137007200200003f823006b
:10226000820f5200838f5a00060034003fb197005e
:10227000cfb19700e00f5100e08f5900db013c0027
:10228000fb0137000200200003f82300f2f90700e9
:102290000005be0002a02a0083fb2300bbfb070051
:1022a00090b79f00a1b79f0002572a00c36e23007a
:1022b0000a00be00b5fb07000002be000a01be0016
:1022c0000a00be00f4b79f0085bf9f00affb070068
:1022d0000006be000200200003e823000a00be0042
:1022e000aafb07000001be00b0aa2a00a1ea230051
:1022f000d9f907000001be000a00be00a3fb0700d9
:102300000001be000000200001f02300d2f9070008
:102310000001be000c00be009cfb0700b2a32a0017
:1023200083fb230099fb07000001be007fb29700ea
:102330008fba97000400be00c7f907000005be0071
:102340000001be001fb09700afb09700cbf90700a7
:102350000001be008300780004002f00020062002c
:102360000003be00b6b79f00c7b79f001fb197001c
:10237000afb19700b8f907000001be000a00be0027
:10238000590137006011b800f6ff2f00f707200051
:10239000860f5200878f5a0007003c000200200081
:1023a00003b8240079fb070090b79f00a1b79f00f6
:1023b00082fe2f00f3ff2f00f207b1000380b1006f
:1023c0002fb2970047a0de0084027800cfa8de007d
:1023d000020340008383480096af9f00a7af9f0091
:1023e00085007800f107b2001fb0970002002000be
:1023f00003f82300020270008382700094b79f00ec
:10240000a5b79f006033b800d6af9f00e7af9f002d
:1024100012472c00c3012000820f5000838f580008
:102420001a0034001200200003002000d2af9f00e9
:10243000e3af9f00623d2b00d3052000820f5000c8
:10244000838f5800110034001faa9700afaa97008d
:1024500061024200e0824a0094af9f00a5af9f0056
:102460000000200001f82f001fb39700afb39700c2
:10247000060340008783480096b79f00a7b79f00d8
:102480006000b800d0af9f00e1af9f00dfa89700c9
:10249000c208dd0081af9f00e02321000100400061
:1024a00010057800900590000a01be001fb097004b
:1024b000afb0970068f907000006be000a01be0031
:1024c0001fb09700afb097006cf907000001be0085
:1024d0000000200001f823004dfa07000002be00b2
:1024e0000001be000c00be00f4b79f0085bf9f0036
:1024f00026fb07000003be000e002f0081017800bc
:10250000c3b79f0000016700b2b79f005fa89700a4
:10251000efa89700c500dd0000002000d0af9f00ad
:10252000e1af9f0000002000010420005fa9970098
:10253000efa997000201400083814800d2af9f00bd
:10254000e3af9f001fb09700afb097008181d1002b
:102550000081d3008300780001d0a1000200670051
:1025600001d0a0005fa99700efa9970002014000e9
:1025700083814800d2af9f00e3af9f005fa997001f
:10258000efa997003fb09700cfb09700d6b79f0054
:10259000e7b79f00fdfa07000001be000c00be0077
:1025a0002df907000006be000a01be005fa89700d3
:1025b000efa8970028f907000001be001fb09700a0
:1025c000afb0970024f907000001be003fb09700ac
:1025d000cfb09700edfa07000001be000c00be006e
:1025e0001df907000001be007fb297008fba970067
:1025f0000400be00e5fa07000006be005fb39700c6
:10260000efb397000601be000600be00dffa070028
:102610000005be000001be00dcfa07000002be009b
:1026200022142f0033e523000a00be00f4b79f00f8
:1026300085bf9f00d5fa070052252300c3e623007b
:102640000ef907000001be000a00be00cffa070025
:1026500052302a00b3e8230008f907000001be0049
:102660000a00be00c9fa0700b2aa2a00a3ea2300a2
:1026700002f907000001be000a00be00c3fa07000d
:1026800072db2600b3ed2300fcf807000001be005a
:102690000a00be00bdfa0700a299290093f12300a9
:1026a000f6f807000001be007fb297008fba9700ce
:1026b0000400be00b5fa07000005be005fb3970036
:1026c000efb397000601be003fb09700cfb0970070
:1026d000eaf807000001be000c00be00abfa0700dc
:1026e0000001be000a00be00e4f8070090b79f009a
:1026f000a1b79f003fb19700cfb197000200be0085
:10270000a2fa07000005be00020020000304240016
:10271000daf807001fb19700afb19700d7f80700ac
:1027200081027800000267000401be003fb09700fc
:10273000cfb09700f4b79f0085bf9f0093fa0700c2
:10274000b0b79f00c1b79f007fb297008fba9700c4
:102750000401be000c00be008cfa07000006be009b
:1027600002002000030424007fb297008fba970074
:102770000400be00b8f807000a01be00b6f8070062
:102780000001be001fb09700afb09700b2f807007d
:102790005fb39700efb397000601be007bfa070016
:1027a0000001be000c00be00b4f807000005be002a
:1027b0000001be003fb09700cfb09700aff8070010
:1027c00081027800000267000200240063f7230002
:1027d0000400be00f4b79f0085bf9f006bfa07009e
:1027e00090b79f00a1b79f00623c2200638f2b002f
:1027f0007fb297008fba97000400be0063fa07000b
:102800000006be003fb19700cfb197007fb297009e
:102810008fba97000400be008ff807000001be00c9
:102820000a00be008cf80700f284230063f723003f
:1028300056fa07000001be000c00be008ff807002a
:10284000622421008fab97000701410092019000a4
:102850001201780089f80700d0af9f00e1af9f0018
:102860001fa89700afa8970061f807000006be00f8
:10287000e02421008fa99700030040001005780094
:10288000900590005fa99700efa997001fb09700ef
:10289000afb0970079f807000a01be0077f807008b
:1028a0000c01be0075f807000001be00830078002f
:1028b000020067000002be00b4b79f00c5b79f00ca
:1028c0000c01be0064f807000a01be0062f80700b0
:1028d0001fb19700afb197005ff807000001be007d
:1028e0005fa89700efa897005bf807000005be00ff
:1028f000cfaa970000002f00bfab9700070260002f
:102900000401be000800be00f4b79f0085bf9f0011
:1029100051f807003fb19700cfb197001bfa0700ad
:102920000006be000a01be000800be0017fa07003c
:102930000001be000c00be0050f807000004be00fd
:102940003fb19700cfb197007fb297008fba970041
:102950000400be000dfa07000005be00b0b79f00de
:10296000c1b79f000a01be000800be0043f807007f
:102970000006be000003be0000002000013024005d
:10298000800f5600818f5e0018003c00800f5600bb
:10299000818f5e001d003a00c2a32a00833323000a
:1029a0000800be00dcb79f00e7b79f0033f80700c0
:1029b0000002be000a01be000c00be00f4b79f007a
:1029c00085bf9f0024f807000001be007fb297007a
:1029d0008fba97000400be00c7f707005fb39700e7
:1029e000efb397000000e00029003400a22c2f0074
:1029f000931427007fa897008fb09700e3f9070092
:102a0000a22c2f0093142700e000370087017800e4
:102a100003f0a1000c0178000000200061312400c7
:102a2000800f5100818f590011003c0000002000f0
:102a300061312c00800f5600818f5e0014003a0037
:102a40000a01be000c00be00dcb79f00e7b79f0084
:102a500001f807000001be000800be00a4f707004f
:102a60005fb39700efb397000000e00008003c0060
:102a70000226240023da20007fa897008fb0970059
:102a8000c2f907000226240023da2000bf00370025
:102a90008701780003f0a100060178006022b800e9
:102aa0000000200001f02300800f5100818f5900a9
:102ab0003a0034004798de0022f82f000001410060
:102ac00000002000010820000201e900030033009b
:102ad0008180d1000080d300fbff3700000043005d
:102ae00081804b00010678008c01780003f0a10082
:102af000479ade00cf9ade000401be00f207b10063
:102b00000380b100b2b79f00c3b79f00f4ff2f004e
:102b1000f5072000bfb197008301e90003003300ef
:102b20008582d1000482d300fbff37000482ea00d3
:102b30008582ea008501660000016200fd07200031
:102b40008d026600000278000570a0003fb7970074
:102b5000770017000000e900030033008582d100f0
:102b60000482d300fbff3700e00f5300e08f5b00cf
:102b700002003d0060021200e0821a000a00be005e
:102b8000f4b79f0085bf9f00b3f70700b0b79f0061
:102b9000c1b79f008fba97007fb297003fb19700ef
:102ba000cfb197000800be00f4b79f0085bf9f001b
:102bb000b2f70700810678000200280000066100d5
:102bc0000220270013f323000c00be006ff907005a
:102bd0000005be003fb19700cfb197000c00be00ca
:102be0009df707000001be000800be009af707002d
:102bf0008221270013f3230064f907000004be00bc
:102c0000c2e82b00f35b23000c00be005ff9070055
:102c10000001be000800be0098f707000006be00d5
:102c20000001be000a00be0094f707000004be00c9
:102c30000a01be0088f707000001be000c00be00bc
:102c400085f70700b0b79f00c1b79f000801be001d
:102c50000800be004df907000005be00c2b42b00fd
:102c60001333230049f90700e2a02e00d35d2300af
:102c700079f707000001be000a00be0043f9070013
:102c800052352b00a38823007cf707000001be000b
:102c90000a00be003df9070012b6200063b323000e
:102ca0006df707000001be000a00be0037f90700fb
:102cb000b2aa2a00a3e2230070f707000001be00b9
:102cc0000a00be0031f907000001be000800be0086
:102cd00061f707000005be000001be000800be004d
:102ce0002af907000006be000200200003002400ad
:102cf0000a00be0058f707000001be000c00be002d
:102d000043f807000005be003fb19700cfb1970020
:102d10000800be001df907000001be003fb097008b
:102d2000cfb0970055f707000001be000a00be00b3
:102d300049f707000801be0047f707000001be0081
:102d40000000200001f8230043f707007fb297003e
:102d50008fba9700c721dd00020020000201400069
:102d600083814800479bde00cf9bde00e00f5300cd
:102d7000e08f5b0003003c000401780014000700b2
:102d80000001be007fa897008fb09700fff80700f2
:102d9000070037000800200009f82300050037006d
:102da0006044b800030037000a04be000100370089
:102db0000004be000800be004f0778004f06be00aa
:102dc0004f05be004f04be004f02b10000000600d8
:102dd000889fbe0002047800f9072000890f540084
:102de0000d0034000200200003f02700e7f8070080
:102df000f807b100890f54001700340002002000ca
:102e000003f02700e1f80700f807b100890f54002c
:102e100010003c001000370029f82f00890f5400e3
:102e20000d003d000200200003c82000d7f8070075
:102e30006806b000890f540007003d000200200022
:102e400003c82000d1f807006806b000890f5400bd
:102e500001003d0009047800f2072000080141004c
:102e6000cf91de00c711dd0002002000c7f8070087
:102e70004f04be00000006000800fa00889fbe0054
:102e80000004be000001be008300780001f0a10034
:102e900008007800a4fd200095f42300840f500062
:102ea000858f580018003e00f2ff2f00f397230093
:102eb000820f5000838f580011003e00f2ff2f0058
:102ec000f3072000820f5000838f580005003e005a
:102ed00002002000033820000800be00abf8070005
:102ee000040037000200200003b827000800be00dd
:102ef000e2f60700c0bf9f00d1bf9f0071003700fe
:102f00000800be00680037004f49de0003002000c3
:102f1000143d2500b5072400840f5000858f58000c
:102f20001f003e0034be2c0065012400840f5000b9
:102f3000858f58000e003e000200e00005003200c0
:102f4000b2fd200093fc23000800be00cbf6070072
:102f500059003700b2fd200093fc23000800be009a
:102f6000bdf60700e50007000004be00550037006d
:102f70000200e00005003200b2fd200093042400ae
:102f80000800be00bdf6070046003700b2fd200075
:102f9000930424000800be00aff60700410037008c
:102fa000541d2300250e2400840f5000858f5800e7
:102fb0001d003e00f4dd2e00f50a2400840f5000b1
:102fc000858f58000c003e000200e0000500320032
:102fd00042be2c00630924000800be00a7f60700cb
:102fe000e0ff370042be2c00630924000800be0049
:102ff00099f60700300037000200e00005003200bb
:10300000b2fd2000930c24000800be009bf60700d0
:1030100025003700b2fd2000930c24000800be00fc
:103020008df6070020003700f2ff2f00f3f727008e
:10303000820f5000838f5800040036000801be0044
:103040000800be0084f60700c7ff37006c815700f8
:103050000800be00d70007006011b80063016000df
:10306000e10f5100e08f590009003200e20f5100da
:10307000e08f590009003200e00f5100e08f590045
:103080000b003a002fb89700bfb897000600370032
:103090002fb89700bfb89700b2ff37002fb897003e
:1030a000bfb8970001f0a2001b010700aeff370078
:1030b0002fb89700bfb89700900007000004be002b
:1030c00009f0a2000800be004f04be000080fa0014
:1030d00000000600889fbe008a9fbe008c9fbe0035
:1030e0000004be000400200005f82700858360006e
:1030f00004037800840f5300858f5b0007003a00bb
:103100000801be000800be0020f807000001be0054
:103110000800be0059f6070010003700e00f50000d
:10312000e08f58000f003c008101780003f0a100ff
:1031300000017800e00f5100e08f59006a00320072
:1031400010022000b09288000801be000800be00f6
:1031500041f607000001be002df707000004be0085
:1031600061003700478cde00cf8cde00e00f54009a
:10317000e08f5c000f003a006044b80004003700a4
:10318000000040008180480061044400e0844c005d
:1031900004002000050820008181620004017800fd
:1031a000e00f5100e08f5900f5ff32006104140078
:1031b000e0841c00f807b1000980b10081017800ab
:1031c000f307b200000178000200be000170a00009
:1031d0000808a3000200320000004000818048007f
:1031e0008984d1000884d300000040008180480019
:1031f0009401200002002000031020006055b80058
:103200006066b8000c0341008d834900800f5300b5
:10321000818f5b0006003c0006064100878649005e
:1032200006005000878058000a0541008b85490040
:1032300000004000818048008301d1000281d3005a
:103240000402e900efff3a00e00f5000e08f580061
:103250001b0032000226240023da20000000200098
:1032600001f82300fcf507000200200003f823000a
:10327000a1f507000000e00011003500022624003f
:1032800023da20000000200001f82300fbf50700ee
:103290000200200003f8230097f507000000e0007b
:1032a0000300340062054500e0854d00040037004e
:1032b0006000b800610065000005450081854d0093
:1032c000c744dd00080020000000200001f02300ba
:1032d00008044000898448008b85d1000a85d3000a
:1032e0000804450089844d000800be004f06be005a
:1032f0004f05be004f04be0000000600889fbe00c0
:103300008a9fbe008c9fbe000001be009ff7070091
:103310000004be000001be009cf707000005be00cf
:103320000200200003f02b000800be0097f7070002
:103330000200200003f82300d0f507000006be00bd
:10334000f2a92a00a3d223000a00be008ff70700cb
:103350000001be000c00be00c8f507000006be005c
:103360000801be000a00be0088f707000005be0085
:1033700072a12900c37c23000800be0083f7070068
:10338000f243200063ab2300b3f507000001be0049
:103390000a00be007df707000001be000c00be0061
:1033a000b6f507004f06be004f05be004f04be0035
:1033b000000006000800fa00889fbe008a9fbe0039
:1033c0008c9fbe000005be00020478000001be0014
:1033d0008300780001f0a1000a007800a2fd20001f
:1033e00093dc2400820f5000838f58001d003e00a4
:1033f00032982f0023f223000a00be0063f7070073
:103400000200200003b424009cf507000200200005
:1034100003b4240090f507000006be0038f507004d
:1034200080047800a2fd200093fc23000c00be0065
:1034300056f707000001be000a00be0086f507002f
:103440000005be00325a2800832823000c00be006d
:103450004ef707000001be000a00be007ef507001f
:1034600026003700f2ff2f00f3f72700820f5000ed
:10347000838f5800060036000a01be000a00be0015
:1034800075f50700008cbe008004eb001c003700bf
:103490000a00be00500007000005be0032982f0051
:1034a00023f2230039f707000200200003f0230075
:1034b00072f50700590007000203be000002be00bb
:1034c000e4b79f00f5b79f0086bf9f0097bf9f009e
:1034d000d1f8070032982f0023f223004cf60700a2
:1034e0000001be000a00be005bf507006000b800e6
:1034f0002004980031049800efb49700008cbe00bf
:10350000090078004f06be004f05be004f04be0004
:103510000080fa0000000600889fbe008a9fbe005f
:103520008c9fbe000005be000001be0017f707001b
:103530000004be000a01be0014f707000006be002a
:103540004288280083c023000800be000ff7070050
:10355000b2aa2a00a3e223003ff507000001be0043
:103560000c00be0009f707000001be000a00be0003
:1035700042f507000005be000801be000800be00bd
:1035800002f707000001be000c00be00fff60700b6
:103590000006be00c2c32600636323000800be000d
:1035a000faf60700f27c2000039523002af50700b5
:1035b0000001be000c00be00f4f607000001be00d2
:1035c0000a00be002df507004f06be004f05be00e5
:1035d0004f04be00000006006022b8006033b8004f
:1035e0000002be00f0ff2f00f1ff2f00f2ff2f00be
:1035f000f3ff270000006200818062000201630087
:1036000083816300000006000001be008300780093
:1036100001f0a10002007800000006000003be00d7
:10362000f8f407006011b8000470a70007f0a100cb
:103630006509b1001b00320012003500860220002f
:103640000628e10008003500f3ff2700f2ff2f00f5
:103650006110b9000700e00018003b0003002800db
:103660006000b800020005000000400081804800b2
:1036700002014900838149008502e900faff3a000e
:1036800008003700f88f420002003c008000eb0089
:10369000000005008100d1000080d3008502e80011
:1036a000fcff3a000700e00004003b00600010004f
:1036b000e080180060011900e08119000000060098
:020000040000fa
:1036c0002000fa00881f7800401e2100104078007a
:1036d0000004a2000004e00048023a0038d0bf0015
:1036e0000004e0000600320012c0b3006000b80021
:1036f000ff03070022c0b3006000b800fc0307000e
:1037000084080700e10f500093003a008608070084
:103710007c080700100798001e0090001000780039
:103720008000eb00b5f4070032332300330524009a
:1037300096f607000200200003582400b4f50700a5
:1037400020079800310798002e019000be019000dc
:103750000000200081202400adf5070002002000b9
:10376000030a2400bcf40700008f8800118f880032
:103770001e0090000080e800100078008000eb0040
:103780009ef4070032332300330524007ff6070040
:1037900002002000035824009df507002007980030
:1037a000310798002e019000be019000000020001b
:1037b0008120240096f5070002002000030a24005f
:1037c000a5f40700e08e8800f18e88001e009000ae
:1037d00064004000100078008000eb0087f40700d0
:1037e000323323003305240068f60700020020006e
:1037f0000358240086f50700200798003107980039
:103800002e019000be0190000000200081202400c5
:103810007ff5070002002000030a24008ef4070051
:10382000c08e8800d18e88001e0090006600400087
:10383000100078008000eb0070f4070032332300a2
:103840003305240051f6070002002000035824002d
:103850006ff5070020079800310798002e019000af
:10386000be019000000020008120240068f50700c0
:1038700002002000030a240077f40700a08e8800cd
:10388000b18e88001e009000680040001000780093
:103890008000eb0059f40700323323003305240085
:1038a0003af60700020020000358240058f50700ec
:1038b00020079800310798002e019000be0190006b
:1038c000000020008120240051f5070002002000a4
:1038d000030a240060f40700808e8800918e88001f
:1038e000008f8000118f800026f4070000407800d0
:1038f000405f9800e08e8000f18e800021f4070088
:1039000000407800505f9800c08e8000d18e80000b
:103910001cf4070000407800605f9800a08e8000d3
:10392000b18e800017f4070000407800705f9800a7
:10393000808e8000918e800012f407000040780095
:10394000006798007c0047000001780051002000cb
:1039500000032000dd0107000000eb00000f7800ed
:1039600000002000011e2400400798005107980025
:1039700000002000011e24006007980071079800d5
:10398000808e8000918e800018c0b3006e01900080
:10399000fe019000d6f307000000e00001003400b3
:1039a0000044eb000804e000020032009e007800b2
:1039b000708f4000a08e8000b18e800018c0b300d0
:1039c0004e019000de019000c9f307000000e00006
:1039d000010034000044eb000804e0000200320063
:1039e0009e007800688f4000c08e8000d18e8000dd
:1039f00018c0b3004e019000de019000bcf3070038
:103a00000000e000010034000044eb000804e00086
:103a1000020032009e007800648f4000e08e80003b
:103a2000f18e800018c0b3004e019000de019000be
:103a3000aff307000000e000010034000044eb0099
:103a40000804e000010032001e8fe800008f8000b3
:103a5000118f800018c0b3006e019000fe0190002d
:103a6000a3f307000000e000010034000044eb0075
:103a70000804e000010032001e0fe80000002000f2
:103a8000011c2400000f9800110f98006000b8007e
:103a9000200f9800310f980000002000010a2c0030
:103aa000400f9800510f9800a08e8000b18e8000ca
:103ab00018c0b30002002000831924008cf3070013
:103ac0000000e000010034000044eb000804e000c6
:103ad00022003200e08e8000f18e800018c0b3001a
:103ae000020020008319240081f307000000e00099
:103af000010034000044eb000804e000170032002d
:103b00000e0990009e099000000020000110240082
:103b1000d1f3070012c0b300f50207000200200035
:103b2000031024000e0890009e089000caf30700be
:103b300022c0b300ee020700501e210011c0b300e6
:103b40000148780010002000408f8800601e21008e
:103b500011c0b30001487800290137001e00780029
:103b60000000e00002003a000000eb00000f7800c7
:103b70001e007800e10f500002003a001000200003
:103b8000000f78001e007800e20f500002003a009b
:103b900020002000000f78001e007800e30f500086
:103ba00002003a0020002000000f78001e0078007c
:103bb000e40f500002003a0040002000000f78009f
:103bc0001e007800e50f500002003a00a00020001f
:103bd000000f78001e007800e60f500002003a0047
:103be000a0002000000f78001e007800e70f5000b2
:103bf00002003a00a0002000000f78001e007800ac
:103c0000e80f500002003a0080002000000f78000a
:103c10001e007800e90f500002003a00a0002000ca
:103c2000000f78001e007800ea0f500002003a00f2
:103c3000c0002000000f78001e007800eb0f50003d
:103c400002003a00a0002000000f78001e0078005b
:103c5000ec0f500002003a00c0002000000f780076
:103c60001e007800ed0f500002003a00a000200076
:103c7000000f78001e007800ee0f500002003a009e
:103c8000a0002000000f78001e007800ef0f500009
:103c900002003a00a0002000000f78001e0078000b
:103ca000f00f500002003a0090002000000f780052
:103cb0001e007800f10f500002003a000000eb00f7
:103cc000000f78001e007800f20f500002003a004a
:103cd000a0002000000f78001e007800f30f5000b5
:103ce00002003a00a0002000000f78001e007800bb
:103cf000f40f500002003a00c0002000000f7800ce
:103d00001e007800f50f500002003a00c0002000ad
:103d1000000f78001e007800f60f500002003a00f5
:103d2000c0002000000f78001e007800f70f500040
:103d300002003a00a0002000000f78001e0078006a
:103d4000f80f500002003a0080002000000f7800b9
:103d50001e007800f90f500002003a00c000200059
:103d6000000f78001e007800fa0f500002003a00a1
:103d7000c0002000000f78001e007800fb0f5000ec
:103d800002003a00c0002000000f78001e007800fa
:103d9000fc0f500002003a00c0002000000f780025
:103da0001e007800fd0f500002003a00c000200005
:103db000000f78001e007800fe0f500002003a004d
:103dc000c0002000000f78001e007800ff0f500098
:103dd00002003a00c0002000000f78001e007800aa
:103de000e80f500047003200e80f50000c003c0084
:103df000e10f50001f003200e10f500003003c00b3
:103e00000000e0000f0032007d003700e20f50009c
:103e100024003200e40f50002e00320078003700fa
:103e2000ea0f50004f003200ea0f50004100350009
:103e3000ec0f50005a003200f40f500067003200bf
:103e40006f00370012c0b3000e0890009e0890006b
:103e5000270207000200200003f823000e0890004c
:103e60009e089000fcf2070022c0b3002002070069
:103e70006300370002002000031024000e089000a9
:103e80009e089000f4f2070012c0b3001802070069
:103e900022c0b3002e089000be0890001402070054
:103ea0005700370002002000031024000e08900085
:103eb0009e089000e8f2070012c0b3000c02070051
:103ec00022c0b3004e089000de08900008020700f0
:103ed0004b00370002002000031024000e08900061
:103ee0009e089000dcf2070012c0b3000002070039
:103ef00022c0b3004e089000de089000fc010700cd
:103f00003f00370012c0b3004e089000de0890005a
:103f1000f701070002002000031024000e089000a3
:103f20009e089000ccf2070022c0b300f001070009
:103f30003300370012c0b3002e089000be08900076
:103f4000eb01070002002000031024000e0890007f
:103f50009e089000c0f2070022c0b300e4010700f1
:103f60002700370002002000031024000e089000f4
:103f70009e089000b8f2070012c0b300dc010700f1
:103f80000e0990009e0990000000200001102400fe
:103f9000b1f2070022c0b300d501070018003700b6
:103fa0000e0990009e0990000000200001102400de
:103fb000a9f2070012c0b300cd01070002002000e3
:103fc000031024000e0890009e089000a2f2070043
:103fd00022c0b300c60107000900370012c0b300b9
:103fe0006000b800c201070022c0b3006000b80042
:103ff000bf010700000000000100370000000000c2
:104000004f0478000080fa00000006000a00fa0061
:104010002007980031079800420798000040eb0005
:10402000004f7800e0cfb3001e4f68002e009000d4
:104030004880de00804078001e40780000c06800a4
:10404000004f78002e009000804078001e407800dd
:1040500000c06800004f78003e0090004880de00fd
:10406000804078001e40780000c06800004f780053
:104070003e009000804078001e40780000c068003c
:10408000004f78000000eb00100798000800370090
:104090001e009000ce00900000804000104078008c
:1040a0001e4f68001e0090000000e80010079800f6
:1040b0009e0090003e009000808f5000f4ff35007d
:1040c0001e4078000080fa00000006000e00fa0092
:1040d000889fbe004007980051079800620798002b
:1040e0000f0478000f007800800478005e009000d4
:1040f000660040008000e900110798000000e80019
:104100000000e8000000d100800040000f007800af
:10411000818747000000e8000000d1000000400057
:10412000200798002e009000e1cfb30001487800ee
:104130004e0090004880de00804078002e00900005
:10414000114098004e009000804078002e009000b2
:10415000214098005e0090004880de00804078009a
:104160002e009000314098005e0090008040780062
:104170002e0090004140980050002000000f780071
:10418000090037001e00780065005000ee00900026
:1041900000804000904078002e0090001e004000fb
:1041a000014878001e0fe8005e00900065004000a6
:1041b0009e0f5000f3ff3c006e019000de00900067
:1041c0004e00900091ff0700604798005e0090004d
:1041d00065004000ee4090002e019000000041007c
:1041e000014878005e009000e60040002e0090003c
:1041f000de04070089077800880778004f04be00b6
:104200000080fa00000006000c00fa003007980059
:104210004107980052079800e00f2000000f780037
:104220003e0090004880de001e0f68003e009000b7
:104230001e0f68004e0090004880de001e0f6800d0
:104240004e0090001e0f68000000eb001007980061
:104250000f0037001e009000de009000008040003c
:10426000104078000080fb00200798001e0090009e
:10427000de00900000804000104078000080fb00cd
:104280001e0f68001e0090000000e8001007980054
:104290009e0090004e009000808f5000edff350092
:1042a0001e0078000080fa00000006000800fa00f6
:1042b0001007980021079800320798009e00900090
:1042c00000022000808f500072003a003e009000f3
:1042d0000000e800104078000080fb00000f78002c
:1042e0003e0090000000e8009040780010c3b3004a
:1042f00080cf500010003a003e0090000080e8009f
:104300009040780010c3b30080cf500002003a0004
:10431000052ea8005f0037003e0090000080e800f6
:104320009040780000c3b30080cf500059003a009d
:10433000052ea900570037003e0090000000e8005d
:104340009040780020c3b30080cf500010003a00a6
:104350003e0090000080e8009040780010c3b30059
:1043600080cf500002003a0095eea80049003700c7
:104370003e0090000080e8009040780000c3b30049
:1043800080cf500043003a0095eea900410037006d
:104390003e0090000000e8009040780030c3b30079
:1043a00080cf500010003a003e0090000080e800ee
:1043b0009040780010c3b30080cf500002003a0054
:1043c000054ea800330037003e0090000080e80052
:1043d0009040780000c3b30080cf50002d003a0019
:1043e000054ea9002b0037003e0090000000e800b9
:1043f0009040780040c3b30080cf500010003a00d6
:104400003e0090000080e8009040780010c3b300a8
:1044100080cf500002003a00746ea8001d003700e3
:104420003e0090000080e8009040780000c3b30098
:1044300080cf500017003a00746ea90015003700b5
:104440003e0090000000e8009040780000c3b300f8
:1044500080cf50000f003a003e0090000080e8003e
:104460009040780010c3b30080cf500002003a00a3
:10447000040ea800070037003e0090000080e8000e
:104480009040780000c3b30080cf500001003a0094
:10449000040ea9009e00900000042000808f5000b0
:1044a00000003a000080fa00000006000200fa0056
:1044b000004f7800c0808000e30f500026003200db
:1044c000e30f500005003e00e10f500011003200e4
:1044d000e10f500017003e0007003700e50f5000c5
:1044e00032003200e50f500021003900e60f500085
:1044f0003d003200520037001830ef001e407800b7
:10450000e24f400049003a0010002000c0808800bf
:104510004b0037001e80fb00c800dd00908080004b
:10452000010070009080880020002000c08088007a
:10453000430037009e80fb009080800001007000e7
:10454000908088009080800090808800300020005b
:10455000c08088003a0037001e80fb004800dd0064
:10456000a080880040002000c08088003400370010
:104570009e80fb00a080800001007000a080880069
:10458000a0808000a0808800a08080000000e00063
:104590000300340050002000c0808800280037004d
:1045a00060002000c080880025003700b0808000b7
:1045b0000000e800b0808800b0808000e113210096
:1045c000008040001e487800b1808000a0808000fc
:1045d000808f5000170035001630ef00600020007b
:1045e000c080880016003700a18080009080800085
:1045f000e213210004ff07000040780010f0b7002c
:1046000010d0bf009e4f50000c003a001830ef0051
:10461000a180800090808000e213210023ff07002a
:104620001230ef001430ef000500370000000000ea
:104630000300370000000000010037000000000008
:104640000080fa00000006000000fa0011608000ff
:1046500080ff2f000080600010608800009620001e
:10466000206088001161800000c0200001007000ff
:104670001061880023cca80023eca80030002000a3
:10468000206188001162800000c0200001007000dd
:104690001062880043cca80043eca8003000200042
:1046a000206288001163800000c0200001007000bb
:1046b0001063880063cca80063eca80030002000e1
:1046c000206388001164800000c020000100700099
:1046d0001064880083cca80083eca8003000200080
:1046e0002064880001eca8000080fa0000000600a9
:1046f0000600fa00008fbe00424798004e4090002e
:10470000e14f500005003a001e0178009e01900024
:10471000428e8800538e8800050037001e00780006
:104720009e00900001f0a200008e8800118e88008b
:104730000080fa00000006000000fa00889fbe001a
:10474000648e8000758e8000408e8000518e8000c7
:1047500018c0b3000001be000400be0064f00700f2
:104760000000e000010035000044eb000804e00018
:104770000d003200488e8000598e8000648e8000cb
:10478000758e800010818000218180000001be00b4
:104790000400be00b9f007000801be008702070050
:1047a000608e8800718e8800648e8000758e800017
:1047b000408e8000518e800018c0b3000001be0002
:1047c0000400be004cf007000000e00001003c00c7
:1047d0000044eb000804e0000d003200488e800029
:1047e000598e8000648e8000758e8000108180005c
:1047f000218180000001be000400be0096f0070089
:104800000801be0055020700608e8800718e880086
:10481000608e8000718e800018c0b3006011b800f7
:1048200035f007000000e00001003d000044eb000f
:104830000804e00014003200608e8000718e800059
:1048400002002000031c240050f207000002be00fa
:1048500030818000418180000001be000400be0064
:1048600086f0070047f007000000780030618800fc
:10487000308180004181800042f007000000780014
:104880007061880014003700308180004181800011
:104890003cf007000000780030618800608e8000e6
:1048a000718e800001f0a20002002000031c240091
:1048b00036f207000002be00308180004181800096
:1048c0000001be000400be006cf007002df00700e0
:1048d0000000780070618800248e8000358e800092
:1048e000008e8000118e800018c0b3000001be0051
:1048f0000400be00feef07000000e00001003500ec
:104900000044eb000804e0000d003200088e800037
:10491000198e8000248e8000358e800010818000ea
:10492000218180000001be000400be0053f007009a
:104930000801be0021020700208e8800318e880009
:10494000248e8000358e8000008e8000118e8000c5
:1049500018c0b3000001be000400be00e6ef07006f
:104960000000e00001003c000044eb000804e0000f
:104970000d003200088e8000198e8000248e800089
:10498000358e800010818000218180000001be00f2
:104990000400be0030f007000801be00ef01070070
:1049a000208e8800318e8800208e8000318e80001d
:1049b00018c0b3006011b800cfef07000000e0009e
:1049c00001003c000044eb000804e0001400320049
:1049d000208e8000318e800002002000031c240005
:1049e000eaf107000002be003081800041818000b2
:1049f0000001be000400be0020f00700e1ef070048
:104a000000007800306288003081800041818000a1
:104a1000dcef0700000078007062880014003700a7
:104a20003081800041818000d6ef070000007800cf
:104a300030628800208e8000318e800001f0a2005c
:104a400002002000031c2400d0f107000002be0079
:104a500030818000418180000001be000400be0062
:104a600006f00700c7ef07000000780070628800ba
:104a70004f04be000080fa00000006000000fa00ab
:104a8000c301a9000080eb00e00e88000080eb006d
:104a9000f00e8800c1e1a8000080fa0000000600c6
:104aa0000000fa00c305a8000080eb00e02e88009b
:104ab0000080eb00f02e8800c1e5a8000080fa001d
:104ac000000006001000fa00889fbe008a9fbe000a
:104ad0002080800031808000008088001180880064
:104ae0006080800071808000408088005180880054
:104af000300e80008000eb00008fbe00500e800062
:104b00004000dd008000eb001e0f40005e97480073
:104b1000302e80008000eb002007980031079800bd
:104b2000502e80004000dd008000eb002e01900040
:104b3000be019000020040008380480020079800da
:104b4000310798001e0078009e009000a8ef070033
:104b5000c2532e00737823008cf107002080880058
:104b6000318088002e009000be009000a0ef07006a
:104b7000c2532e0073782b0084f1070060808800f8
:104b80007180880024808000358080000080800053
:104b9000118080000001be000400be00aeef0700df
:104ba000400798005107980064808000758080005d
:104bb00040808000518080000001be000400be00e3
:104bc000a5ef070060079800710798000200200019
:104bd000a33724004e009000de0090006bf1070028
:104be000508f8800618f880002002000a3372400c6
:104bf0006e009000fe00900064f10700708f880046
:104c0000818f8800548f8000658f8000708f8000b6
:104c1000818f80000001be000400be0097ef0700f6
:104c2000020020000300240079f00700908f880024
:104c3000a18f8800548f8000658f8000708f800066
:104c4000818f80000001be000400be0082ef0700db
:104c50000002be00a0818000b18180000001be0082
:104c60000400be006af00700b08f8800c18f880082
:104c7000f08f800001908000d08f8800e18f880045
:104c80003090800041908000109088002190880032
:104c90007090800081908000509088006190880022
:104ca000f88f8000099080009a8f8000ab8f800081
:104cb000709080008190800044f307000001be00e6
:104cc0000a00be0031f107006011b8002ff10700a3
:104cd0000001be000800be0068ef0700f08f8800ea
:104ce0000190880038908000499080009a8f800061
:104cf000ab8f800070908000819080005ef807008c
:104d00000001be000a00be0020f107006011b800db
:104d10001ef107000001be000800be0057ef0700ab
:104d200030908800419088007890800089908000c1
:104d3000b08f8000c18f80006011b80013f10700b0
:104d40000001be000800be004cef07007090880014
:104d500081908800709080008190800018c0b3001e
:104d6000b2fd200093042400e3ee07000000e00001
:104d700001003c000044eb000804e00007003200a2
:104d80007090800081908000b2fd2000930c240080
:104d900031ef07007090880081908800709080004b
:104da0008190800018c0b300b2fd200093042c0055
:104db000cfee07000000e000010035000044eb00ea
:104dc0000804e000070032007090800081908000ad
:104dd000b2fd2000930c240028ef0700709088009b
:104de000819088004f05be004f04be000080fa008d
:104df000000006001800fa0090908000a19080004a
:104e00000001be008000eb000e0078008701070063
:104e1000f08f8000019080000001be004100200062
:104e20000e007800810107003090800041908000e2
:104e30000001be00810020000e0078007b01070009
:104e400070908000819080000001be00c1002000b1
:104e50000e00780075010700908f8000a18f800000
:104e60000001be00010120000e0078006f01070064
:104e7000b08f8000c18f80000001be004101200082
:104e80000e007800690107000e0178008101200002
:104e9000100620008dfc07000080fa0000000600cc
:104ea0000400fa00881f7800008fbe0021088000ef
:104eb000f0fc2f0000806000200888001e017800b0
:104ec0009e019000001c2e0041c62400d0ef070078
:104ed00018c0b30002f02f00f377240086ee07001d
:104ee0000000e00001003c000044eb000804e0008a
:104ef0005400320021088000f0fc2f000080600088
:104f00000040a000200888001e0178009e0190004b
:104f1000001c2e0041c62400bdef07000200200047
:104f200003102400baef070018c0b30002f02f00ee
:104f3000f377240070ee07000000e00001003c0061
:104f40000044eb000804e000320032002108800039
:104f5000f0fc2f00008060000050a00020088800b6
:104f60001e0178009e019000001c2e0041c6240006
:104f7000a7ef07000200200003282400a4ef070089
:104f800018c0b30002f02f00f37724005aee070098
:104f90000000e00001003c000044eb000804e000d9
:104fa0001000320021088000000320000100700082
:104fb000200888001e0178009e019000001c2e0031
:104fc00041c6240092ef07000200200003382400ad
:104fd0008fef07004aee07000000780010088800f5
:104fe000200037001e0178009e019000001c2e005a
:104ff00041c6240086ef0700020020000328240099
:1050000083ef07003eee07000000780010088800dc
:10501000140037001e0178009e019000001c2e0035
:1050200041c624007aef070002002000031024008c
:1050300077ef070032ee07000000780010088800c4
:10504000080037001e0178009e019000001c2e0011
:1050500041c624006eef070029ee0700000078002b
:10506000100888004f0478000080fa000000060055
:105070000000fa0005e1a90000002000a13724008b
:1050800087ff07000421a9000068a9002068a80084
:1050900005e1a8000080fa00000006000000fa0008
:1050a00013e1a90011e1a9001061a8001021a900d5
:1050b00081088000f0fc2f00008060000050a000fc
:1050c000800888000a21ef000621ef00e0002000a0
:1050d00070088800c0e12400600888002142800038
:1050e00080ff2f00008060000000a00020428800a8
:1050f0000108a9002108a80011e1a8000080fa0019
:10510000000006000400fa00881f7800008fbe002f
:1051100018c0b3006011b8001e0078009e00900017
:10512000f5ed07000000e00001003d000044eb0049
:105130000804e000030032001e0078009e0090008a
:10514000030037001e0078009e00900001f0a200ce
:105150004f0478000080fa00000006000800fa0002
:10516000881f7800008fbe00220798003307980040
:1051700018c0b3002e019000be0190001e00780000
:105180009e009000dced07000000e00001003c0004
:105190000044eb000804e000030032001e00780029
:1051a0009e009000020037002e009000be0090008c
:1051b0004f0478000080fa00000006000800fa00a2
:1051c000881f7800008fbe002207980033079800e0
:1051d00018c0b3002e019000be0190001e007800a0
:1051e0009e009000c2ed07000000e00001003500c5
:1051f0000044eb000804e000030032001e007800c9
:105200009e009000020037002e009000be0090002b
:105210004f0478000080fa00000006000c00fa003d
:10522000881f7800008fbe0022079800330798007f
:10523000440798005507980018c0b3004e0190002d
:10524000de0190001e0078009e009000aaed07008d
:105250000000e00001003c000044eb000804e00016
:10526000040032004e019000de019000028fbe006b
:105270000e00370018c0b3002e019000be01900050
:105280001e0078009e00900099ed07000000e000ed
:10529000010035000044eb000804e0000300320088
:1052a0002e019000be019000028fbe001e0078000b
:1052b0009e0090004f0478000080fa000000060075
:1052c0000400fa00008fbe00b2fd20009304240009
:1052d0001e0078009e009000cdee07000200200026
:1052e00043332400a9ef07000080fa000000060005
:1052f0000400fa00008fbe00b2fd200093042400d9
:105300001e0078009e009000a0ef07000200200021
:1053100043332400beee07000080fa0000000600c0
:105320000200fa00000f78001e007800cf80de0037
:10533000afed0700c2f5280023f92b00c1f20700ea
:10534000020027000354240090ef07000080fa00b9
:10535000000006000800fa002007980031079800b6
:10536000b2fd2000930424002e009000be009000a7
:10537000b9ed0700b2fd2000930c24000df20700e8
:10538000b2fd200093042400bced0700008fbe0096
:10539000b2fd2000930424001e0078009e009000bf
:1053a000b6ed0700b2fd2000930c240001f20700c7
:1053b000b2fd200093042400a7ed07000080fa004e
:1053c000000006000a00fa00300798004107980024
:1053d000be0090004e009000008f40001e0078003c
:1053e00010017800900190001207980023079800a0
:1053f0001e009000ae0090000080fa000000060041
:105400000600fa0010079800210798009e009000ff
:105410002e009000008f40001e0078009000900049
:10542000100078000080fa00000006000c00fa006e
:10543000200798003107980042079800530798000a
:1054400068004700100798000000eb00000f78008c
:105450000a0037003e0090001e004000ae009000a1
:10546000008040009e0078001e01900081004100f5
:1054700091407800014878001e0fe8001e00780077
:10548000e30f5000f3ff34000080fa000000060034
:105490000c00fa0020079800310798004207980096
:1054a0005307980068004700100798000000eb00c1
:1054b000000f78000b0037003e0090001e004000f7
:1054c000ae00900000804000320020009e0051009d
:1054d0001e01900081004100914078000148780051
:1054e0001e0fe8001e007800e30f5000f2ff3400aa
:1054f0000080fa00000006000c00fa002007980067
:105500003107980042079800530798006800470049
:10551000100798000000eb00000f78000a00370029
:105520003e0090001e004000ae0090000080400051
:105530009e0078001e01900081004100914078009b
:10554000014878001e0fe8001e007800e70f5000a9
:10555000f3ff34000080fa00000006000000fa00ab
:105560002ed0bf000080fa00000006000600fa00fe
:1055700010079800210798000040eb00004f7800ca
:1055800050000700ae009000810f50001100340061
:105590000040eb00004f7800060037001e80fb0043
:1055a0009e00900000804000104078000b00070033
:1055b0001e4fe8009e80fb002e009000808f500060
:1055c000f6ff3500e5ff07000004e00001003a00a7
:1055d000220007000080fa00000006000200fa0026
:1055e000004f780060818000e103210000804000ce
:1055f0001e48780061818000f0072000808f5000f5
:10560000010034002c30ef00608180000000e800d1
:10561000608188000080fa00000006000000fa00a7
:10562000508180000000e800508188005181800096
:10563000f0072000808f5000010034002a30ef0076
:10564000508180000000e900e1032100008040005b
:10565000104078000080fa00000006000200fa0006
:1056600010c0b3002ef0b700ecff0700004f780029
:105670001e80fb00a01188000080fa0000000600d8
:105680000200fa006181800050818000008f50008c
:105690006181800050818000808f500006003d00b5
:1056a00050818000010820008080500060818000cf
:1056b00000804000010037001e0078000080fa00e2
:1056c000000006000200fa00edff070001082000bc
:1056d000008f50001e0078000080fa0000000600d5
:1056e0000000fa00413a800000fc2f0000806000ba
:1056f0007001b300403a8800313a800000e02f008a
